:100000000C94E5000C940D010C940D010C940D0161
:100010000C940D010C940D010C940D010C940D0128
:100020000C940D010C940D010C94E3210C946122AD
:100030000C940D010C940D010C940D010C940D0108
:100040000C940D010C940D010C940D010C940D01F8
:100050000C940D010C940D010C940D010C9493243F
:100060000C940D010C940D010C940D010C940D01D8
:100070000C940D010C940D010C940D010C940D01C8
:100080000C940D010C940D010C940D010C940D01B8
:100090000C94DD240C940D010C940D010C940D01B5
:1000A0000C940D010C940D010C940D010706050430
:1000B0000100080A0B0C0D090000000024002700B5
:1000C0002A002D0030000000000023002600290037
:1000D0002C002F00080B000202020000090400009F
:1000E00001020200000524001001052401010104A1
:1000F00024020605240600010705810310004009BB
:10010000040100020A000000070502024000000787
:100110000583024000000403090412010002EF02FB
:1001200001404123378000010102030141726475DF
:10013000696E6F204C4C430041726475696E6F208C
:100140004D6963726F004661696C656420746F204D
:10015000626F6F7420564C35334C305800000000ED
:1001600000250028002B002E0031000404040404A4
:10017000030405020202020403020202020606064A
:1001800006060604040202020404040802011040E8
:1001900080401020408040800802040180402010F0
:1001A0000201108010204040200000000200090FD2
:1001B0000000030401000C0000000000000000002B
:1001C00000000000000000002F2611241FBECFEF0A
:1001D000DAE0DEBFCDBF13E0A0E0B1E0EAE1F8E590
:1001E00002C005900D92A63DB107D9F726E0A6ED15
:1001F000B3E001C01D92A83EB207E1F710E0C5EEE2
:10020000D0E004C02197FE010E94F72BC43ED10725
:10021000C9F70E94D7260C940B2C0C940000982F41
:100220002091C90481E0213208F043C08091A504E7
:100230008111FCCF8091C80432E03093A5049093E3
:10024000A4049FEF9093A3041092A2042093A1040E
:10025000A8EAB4E0E1E8F4E090E0291331C010929C
:10026000800490918004880F892B80938004809172
:100270007F04813049F510927F048091800480933F
:10028000BB008091BC0083FDF8CF85EC8093BC005F
:100290008091A5048230E1F38091A3048F3FB1F0F7
:1002A0008091A3048032A1F08091A304803391F067
:1002B00084E01092A7041092C9041092A604089535
:1002C0003D9131939F5FC9CF85EEE0CF80E0F1CFC4
:1002D00082E0EFCF83E0EDCFCF93DF9300D000D06B
:1002E000CDB7DEB719821A821B821C8289819A815E
:1002F000AB81BC818A3F9105A105B10568F400007E
:1003000089819A81AB81BC810196A11DB11D898330
:100310009A83AB83BC83EACF80E00F900F900F905D
:100320000F90DF91CF9108954F925F926F927F92DD
:100330008F929F92AF92BF92CF92DF92EF92FF92F5
:100340000F931F93CF93F9010FEF1FEF98010083D5
:100350001183228333834A015B01B3E0B694A794EF
:1003600097948794BA95D1F76A017B0127E0C2225E
:10037000DD24EE24FF2495018401C0E00630110540
:100380002105310508F041C0C1113FC0DC01A00FBB
:10039000B11F6C91412C512C320180169106A2069E
:1003A000B30649F470E00C2C02C0759567950A9469
:1003B000E2F726013701462F50E060FF17C0B90170
:1003C000A801A3E0440F551F661F771FAA95D1F718
:1003D000440E551E661E771E4082518262827382D1
:1003E000C1E00F5F1F4F2F4F3F4FC8CFBA01759528
:1003F00067954FEF441A540A640A740A48E0441699
:10040000510461047104B9F6ECCFCF911F910F91A3
:10041000FF90EF90DF90CF90BF90AF909F908F9024
:100420007F906F905F904F90089508950895FC011C
:1004300080917804882311F13FB7F89482E080938B
:10044000E9002091F200822F90E01816190614F4AA
:1004500081E090E0882339F0289A44E640937704BD
:100460004091F1004083222339F02091F2002111C4
:1004700003C02BE62093E8003FBF08958FEF9FEF66
:1004800008958093E9008091F200882319F08AE3AF
:100490008093E800089580911D058F5F0C944102C0
:1004A00040915804509159042091560430915704BA
:1004B00042175307B4F49091E8009570E1F39091DE
:1004C000E80092FD19C08093F1008091580490914A
:1004D000590401968F739927892B19F48EEF809315
:1004E000E800809158049091590401969093590422
:1004F0008093580481E0089580E00895DF92EF92A0
:10050000FF920F931F93CF93DF93D82E8A01EB01B5
:100510007B01E40EF51ECE15DF0559F0D7FE12C0A3
:10052000FE0184910E94500221968111F4CF0FEFB9
:100530001FEFC801DF91CF911F910F91FF90EF90B6
:10054000DF9008958881EECF2FB7F894877080935D
:10055000E9009091E800892F807295FF04C0909186
:10056000F20080E4891B2FBF0895615030F0209184
:10057000F100FC0120830196F8CF289A84E680934D
:100580007704089580914E0481110DC082E080931C
:100590004A0484E080934B0410924D0410924C0462
:1005A00081E080934E048AE494E008950F931F93B2
:1005B000CF93DF931F92CDB7DEB782E0898342E409
:1005C00050E064ED70E080E80E947E020E94C2026A
:1005D000DC0112960D911C910115110589F0D801CD
:1005E000ED91FC910280F381E02DBE016F5F7F4FA2
:1005F000C801099597FD04C0F80100851185ECCF6D
:1006000089810F90DF91CF911F910F910895CF9322
:10061000DF931F92CDB7DEB76983DC01ED91FC91CA
:100620000280F381E02D41E050E0BE016F5F7F4F1B
:1006300009950F90DF91CF91089583E00C944102CA
:1006400083E00E94A40290E00895CF93DF931F926D
:10065000CDB7DEB7FC018485958597FD08C02FEFE7
:100660003FEF358724870F90DF91CF910895CE011A
:1006700001960E941702019719F4898190E0F3CF47
:100680008FEF9FEFF0CF0F931F93CF93DF931F92C6
:10069000CDB7DEB78C01FC018485958597FF0BC033
:1006A000CE0101960E941702019771F4898190E0B2
:1006B000F80195878487F801848595850F90DF91EF
:1006C000CF911F910F9108958FEF9FEFF1CFFC0114
:1006D0008485958597FD0BC09FB7F89482E0809341
:1006E000E9008091F2009FBF90E0019608959FB7C6
:1006F000F89482E08093E9008091F2009FBF90E03F
:10070000089581508F3008F047C0E82FF0E0E5579A
:10071000FC4F0C94F72BA803AC039A03A003A4038B
:10072000CC03CC03CC03AF03B503B903BD03C303B0
:10073000CC03C703809180008F7780938000089559
:10074000809180008F7DF9CF80918000877FF5CFE9
:1007500084B58F7784BD089584B58F7DFBCF80915C
:1007600090008F77809390000895809190008F7D06
:10077000F9CF80919000877FF5CF8091C0008F776F
:100780008093C00008958091C0008F7DF9CF809143
:10079000C200877F8093C2000895CF93DF93282FF4
:1007A00030E0F901E755FE4F8491F901E657FE4F1D
:1007B000D491F901E559FE4FC491CC2389F0811100
:1007C0000E948103EC2FF0E0EE0FFF1FE35AFE4F73
:1007D000A591B4918FB7F894EC91DE2BDC938FBF89
:1007E000DF91CF910895CF93DF93282F30E0F90167
:1007F000E755FE4F8491F901E657FE4FD491F90178
:10080000E559FE4FC491CC23A1F081110E948103D0
:10081000EC2FF0E0EE0FFF1FEA53FF4FA591B491CC
:10082000EC91ED2381E090E009F480E0DF91CF913D
:10083000089580E090E0FACFCF93DF9390E0FC0141
:10084000E657FE4F249185599E4FFC0184918823E1
:10085000C9F090E0880F991FFC01E854FF4FA59163
:10086000B491FC01E35AFE4FC591D49161110DC0C2
:100870009FB7F8948C91209582238C9388812823AC
:1008800028839FBFDF91CF910895623051F49FB7C5
:10089000F8943C91822F809583238C93E8812E2BB2
:1008A000EFCF8FB7F894EC912E2B2C938FBFEACF1C
:1008B000823108F08251E82FF0E0E455FF4FE491D7
:1008C00090917B008E2F880F880F80729F7D892BDF
:1008D00080937B00E770E064E0937C0080917A0075
:1008E000806480937A0080917A0086FDFCCF8091AD
:1008F00078009091790008953FB7F894809146046C
:1009000090914704A0914804B091490426B5A89B52
:1009100005C02F3F19F00196A11DB11D3FBFBA2F91
:10092000A92F982F8827BC01CD01620F711D811D51
:10093000911D42E0660F771F881F991F4A95D1F7D6
:1009400008958F929F92AF92BF92CF92DF92EF92D3
:10095000FF924B015C010E947C046B017C010E94B0
:100960007C046C197D098E099F09683E73408105DE
:100970009105A8F321E0821A9108A108B10888EE38
:10098000C80E83E0D81EE11CF11C81149104A1045F
:10099000B10429F7FF90EF90DF90CF90BF90AF9018
:1009A0009F908F9008957F928F929F92AF92BF9267
:1009B000CF92DF92EF92FF920F931F93CF93DF932B
:1009C000C82E8B017A0180917804811110C08FEFBD
:1009D0009FEFDF91CF911F910F91FF90EF90DF90EC
:1009E000CF90BF90AF909F908F907F90089580910F
:1009F0005C0480FF05C08091E00082608093E0008D
:100A0000CE2DDF2DD12C8AEFB82E8C2D8770982E0D
:100A10008C2D8072882E8C2D8074782E9AE3A92ECE
:100A2000209719F4DD2009F452C08C2D0E94A402F5
:100A300081110AC0BA94BB2051F261E070E080E0FD
:100A400090E00E94A104ECCF8C171D0611F00CF071
:100A50008C2F9FB7F8949092E9002091E80025FD33
:100A600002C09FBFDDCF282F30E0C21BD30B8820F0
:100A700029F08150A0F01092F100FBCFF801C7FCE3
:100A80000AC0815050F041914093F100FACF449157
:100A90004093F10031968150D0F7020F131FDD20F3
:100AA00021F0A092E800D12CDCCF8091E80085FDF8
:100AB00007C0A092E800DD24D394209791F2F3CFF1
:100AC000209779F6772069F2A092E800CACF5D9A64
:100AD00084E680935B04C7017CCFCF93DF9300D083
:100AE00000D0CDB7DEB769837A838B839C838091F6
:100AF0001D0544E050E0BE016F5F7F4F8F5F0E9495
:100B0000D3040F900F900F900F90DF91CF91089525
:100B1000962F6BE070EB0E946D050C944B02BC01AC
:100B2000990F880B990B0E94B12A2AE037ED43EA0E
:100B300052E40E94662B0E94792A611520EE72070A
:100B400014F460E070EECB016130704214F080E08C
:100B500090E29C01220F232F221F330B60EE70EED8
:100B60008F77922F9F770E946D050C944B02CF9345
:100B7000DF93EC018091C101882331F083E00E9472
:100B8000D3041816190634F081E090E09B838A8321
:100B900080E090E0DF91CF91089590E080E00895AB
:100BA00080E008950F931F93CF93DF93CDB7DEB707
:100BB000C456D1090FB6F894DEBF0FBECDBFFC01FD
:100BC000DB019C919E5F9C939E01295F3F4F8AE5CC
:100BD000D9011D928A95E9F788E089838BE08A83A1
:100BE00022E02C8391E09D839E8339E0398764E085
:100BF0006A879E879F873A8B44E24B8B9C8BA0E051
:100C0000B1E0BE8BAD8B09E010E0188F0F8B998F90
:100C10003B8F6C8F2F8F98A353E059A387E08CA351
:100C20004DA39EA3B8A7AFA3A1E4B0E0BAA7A9A71C
:100C300086E08BA74CA72DA79EA79FA789AB4AABA1
:100C40002BAB2CAB2DAB3FAB48AF59AF9AAF5BAFE3
:100C50009CAF2DAF9EAF21963FAF219722964FAF0D
:100C6000229723965FAF239724962FAF249725963C
:100C70006FAF259726969FAF269727969FAF27970A
:100C800028969FAF28972A963FAF2A9745E02B9644
:100C90004FAF2B972D962FAF2D9760E470E02F96D6
:100CA0007FAF6EAF2F9763964FAF639785E26496E1
:100CB0008FAF649765969FAF659766969FAF66976F
:100CC00067969FAF679768963FAF689769964FAFF3
:100CD00069976B962FAF6B976D967FAF6EAF6D97E1
:100CE000A1964FAFA197A2968FAFA297A3969FAF61
:100CF000A397A4969FAFA497A5965FAFA59792815F
:100D00009B839B879F5F9A8F9D8F83812C968FAF4C
:100D10002C978F5F80686A968FAF6A9744E650E0A1
:100D2000BE016F5F7F4F80E00E947E02CC59DF4F93
:100D30000FB6F894DEBF0FBECDBFDF91CF911F91EC
:100D40000F91089585ED8093BC008091BC0084FDD7
:100D5000FCCF1092A504089520911E04260F33277E
:100D6000331F21323105ECF42091A504FC0190E001
:100D700080E0243069F082E00895A0911E04219162
:100D8000AC0142505C4FA40FB52FB11D2C930196BE
:100D9000861798F380911E04680F60931E0480E00C
:100DA000089581E008950895E0917E0480917D0486
:100DB000E81730F4F0E0E252FC4F808190E00895B3
:100DC0008FEF9FEF089590917E0480917D042FEF27
:100DD0003FEF981748F4E92FF0E0E252FC4F2081F2
:100DE00030E09F5F90937E04C901089580917D0457
:100DF00090917E04891B990B0895CF92DF92EF9218
:100E0000FF920F931F93CF93DF937C01CB018A0155
:100E10002091A604222389F0EB016B01C40ED51E9C
:100E2000CC15DD0569F06991D701ED91FC91019038
:100E3000F081E02DC7010995F3CF642F0E94AC0625
:100E4000C801DF91CF911F910F91FF90EF90DF903C
:100E5000CF900895CF93DF931F92CDB7DEB769830C
:100E60002091A6042223F9F02091C904203258F0E1
:100E700021E030E0FC013383228390E080E00F909A
:100E8000DF91CF9108958091A704E82FF0E0E85515
:100E9000FB4F998190838F5F8093A7048093C9044F
:100EA00081E090E0ECCF61E0CE0101960E94AC06BB
:100EB000F7CF90E080E008958F929F92AF92BF921B
:100EC000CF92DF92EF92FF920F931F93CF93DF9316
:100ED0006A014801E70191E09093A6048093C80459
:100EE0001092A7041092C904E881F9810190F08161
:100EF000E02DC70109958C0C9D1CC814D90459F02C
:100F0000E881F9810190F081E02DD6016D916D01AC
:100F1000CE010995F2CF81E00E940F0190E080E0C0
:100F2000DF91CF911F910F91FF90EF90DF90CF90C5
:100F3000BF90AF909F908F900895EF92FF920F9384
:100F40001F93CF93DF9300D0CDB7DEB7FC01EF5BEB
:100F5000FE4F70813496E080F1804A83598302E02D
:100F600010E020E030E0AE014F5F5F4F872F0E941E
:100F70005C07892B51F08CEE0F900F90DF91CF9191
:100F80001F910F91FF90EF90089580E0F5CFEF92C1
:100F9000FF920F931F93CF93DF931F92CDB7DEB7CE
:100FA000FC01EF5BFE4F70813496E080F180498355
:100FB00001E010E020E030E0AE014F5F5F4F872F8F
:100FC0000E945C07892B49F08CEE0F90DF91CF9146
:100FD0001F910F91FF90EF90089580E0F6CFEF9270
:100FE000FF920F931F93AB01FC01EB5BFE4FE08080
:100FF000F1808F5B9E4F06E010E020E030E060EB78
:10100000FC0180810E945C07892B31F08CEE1F91DE
:101010000F91FF90EF90089580E0F9CF4F925F928B
:101020006F927F928F929F92AF92BF92CF92DF92F8
:10103000EF92FF920F931F93CF93DF938AE00E946A
:1010400058046C0189E00E9458047C0184E10E94EC
:1010500058048C0186E10E945804EC012FE730E02F
:10106000D6010E94FD2B23EF422E23E0522E612C4D
:10107000712CA30192010E943A29822EC22ED32EF6
:101080002FE730E0D7010E94FD2BA30192010E94BF
:101090003A29922EE22EF32E2FE730E0D8010E945B
:1010A000FD2B3CE6432E512C612C712CA3019201A7
:1010B0000E943A29A22E022F132F2FE730E0DE01E3
:1010C0000E94FD2BA30192010E943A29B22EC22F49
:1010D000D32F8091DC039091DD038C159D0521F0C9
:1010E000682D83E00E9488058091DA039091DB03EC
:1010F0008E159F0521F0692D89E00E948805809159
:10110000D8039091D90398012C5F3F4F28173907D6
:101110002CF0285031098217930724F46A2D80E1BE
:101120000E9488058091D6039091D7039E012C5F81
:101130003F4F281739072CF02850310982179307A1
:1011400024F46B2D81E10E948805D092DD03C092CA
:10115000DC03F092DB03E092DA031093D9030093EF
:10116000D803D093D703C093D603DF91CF911F91BB
:101170000F91FF90EF90DF90CF90BF90AF909F9036
:101180008F907F906F905F904F900895CF92DF92F5
:10119000EF92FF920F931F93CF93DF938BE00E9408
:1011A000F3036C0187E00E94F3037C0186E00E9458
:1011B000F3038C0185E00E94F303EC0184E00E94BC
:1011C000F303CD2821F1EF28C9F4012B09F054C015
:1011D000CD2B71F4892B09F446C080E091E0DF91BA
:1011E000CF911F910F91FF90EF90DF90CF900895D6
:1011F000892B09F441C08EE091E0F1CF012BE1F59C
:10120000CD2B61F5892BA9F58CE891E0E8CFEF288B
:1012100049F0012B81F0CD2B79F1892B69F18AE21C
:1012200091E0DDCF012B71F0CD2B31F1892B21F134
:1012300088E391E0D4CFCD2BF9F0892BE9F086E457
:1012400091E0CDCFCD2B29F0892BB1F084E591E051
:10125000C6CF892B59F082E691E0C1CF892B61F08E
:1012600088EA91E0BCCF8EE791E0B9CF80E791E0CA
:10127000B6CF8AE991E0B3CF8CE191E0B0CFFC0129
:1012800001900020E9F73197AF01481B590BBC01D1
:101290008AEC94E00C94B705CF93DF93D0E0C0E0E4
:1012A000009719F00E943F09EC018CEF92E00E9438
:1012B0003F098C0F9D1FDF91CF910895009711F08A
:1012C0000C943F0990E080E008958F929F92AF9236
:1012D000BF92CF92DF92EF92FF920F931F93CF9323
:1012E000DF93CDB7DEB7A1970FB6F894DEBF0FBE80
:1012F000CDBF6C01990FEE08FF08F7FE47C06DE205
:101300008AEC94E00E9407038C0122273327A9016D
:101310002C193D094E095F0919A2CE0181967C0165
:101320009AE0892E912CA12CB12CCA01B901A501FA
:1013300094010E946429605DF70162937F01211589
:1013400031054105510589F790E080E0309719F0AB
:10135000CF010E943F09080F191F8CEF92E00E94F5
:101360003F09800F911FA1960FB6F894DEBF0FBE04
:10137000CDBFDF91CF911F910F91FF90EF90DF9044
:10138000CF90BF90AF909F908F900895A701960146
:1013900019A28E010F5D1F4F8AE0C82ED12CE12CBF
:1013A000F12CCA01B901A70196010E946429605D70
:1013B000F80162938F01211531054105510589F727
:1013C000309729F0CF010E943F098C01C6CF10E071
:1013D00000E0C3CF8F929F92AF92BF92CF92DF92E5
:1013E000EF92FF920F931F93CF93C82F6A0148018A
:1013F00081E08093A604C093C8041092A7041092C1
:10140000C904D701ED91FC910190F081E02DC70155
:10141000099581E00E940F018091A5048111FCCF04
:10142000982D81E08093A5048093A4042FEF20934E
:10143000A3041092A204280D2093A1048093800499
:1014400080918004CC0FC82BC093800480917F04CE
:10145000813099F510927F04809180048093BB00C5
:101460008091BC0083FDF8CF85EC8093BC00809117
:10147000A5048130E1F38091A204891710F49091C2
:10148000A204E1E8F4E0AEEDB3E080E0891317C018
:1014900010927E0480937D048C0C9D1CC814D9048A
:1014A00091F0D701ED91FC910284F385E02DC70105
:1014B0000995F60181936F01F1CF85EED6CF219189
:1014C0002D938F5FE3CF90E080E0CF911F910F913C
:1014D000FF90EF90DF90CF90BF90AF909F908F9054
:1014E00008952F923F924F925F926F927F928F92C8
:1014F0009F92AF92BF92CF92DF92EF92FF920F93A3
:101500001F93CF93DF93CDB7DEB72F970FB6F89425
:10151000DEBF0FBECDBF9C878B876D875F874E87F1
:101520003901170128012F82388649865A8610E032
:1015300000E0EE24E394F12C0A151B0509F461C0C8
:101540009E01295F3F4FB201A1018E859F850E94B8
:1015500094014F81588569857A854F3F2FEF520757
:101560006207720709F49CC0DB01CA018C549F4FCB
:10157000AF4FBF4FE6E0B695A79597958795EA954B
:10158000D1F7880F991F880F991F84549D4F21E030
:10159000FC0180819181A281B381892B8A2B8B2BC5
:1015A00009F420E0FD85F2137BC01A012B0133E022
:1015B00056944794379427943A95D1F7DB01CA01A2
:1015C00087709927AA27BB2726E0221631044104F9
:1015D000510468F4F301E20DF31D970102C0220FDC
:1015E000331F8A95E2F7C9019081892B80831A0104
:1015F0002B013FEF231A330A430A530A0F5F1F4F91
:101600009BCFB12CF4012082318242825382B110EF
:101610002DC0B3018B859C850E94EF07B82E8111E8
:1016200025C0EB85FC85EB5BFE4FE080F180EB8510
:10163000FC85EF5BFE4F06E010E020E030E0AE01FD
:101640004F5F5F4F60EB80810E94EA09892B11F0A8
:101650009CEEB92EF301DE011196C301069631917D
:101660002D91321320C0E817F907C9F78B2D2F965B
:101670000FB6F894DEBF0FBECDBFDF91CF911F91A3
:101680000F91FF90EF90DF90CF90BF90AF909F9021
:101690008F907F906F905F904F903F902F90089524
:1016A0002EECB22EAFCF8EECB82EE0CFCF92DF92E1
:1016B000EF92FF920F931F93CF93DF9300D000D050
:1016C000CDB7DEB76A01FC01EB5BFE4FE080F18035
:1016D0008F5B9E4F04E010E020E030E0AE014F5FF2
:1016E0005F4FFC0180810E94EA0949815A81542799
:1016F0004527542770E060E0762F652F542F44274C
:101700002B81422B762F652F542F44272C81422B7F
:10171000F6014083518362837383892B71F480E0E7
:101720000F900F900F900F90DF91CF911F910F911D
:10173000FF90EF90DF90CF9008958CEEF1CFCF9295
:10174000DF92EF92FF920F931F93CF93DF9300D01E
:10175000CDB7DEB76A01FC01EB5BFE4FE080F180A4
:101760008F5B9E4F02E010E020E030E0AE014F5F63
:101770005F4FFC0180810E94EA0929813A8132276A
:1017800023273227F60131832083892B61F480E0FF
:101790000F900F90DF91CF911F910F91FF90EF90DD
:1017A000DF90CF9008958CEEF3CFEF92FF920F93DE
:1017B0001F93CF93DF9300D0CDB7DEB78C017A01B2
:1017C0006330710509F449C090F46130710509F185
:1017D00062307105E1F1F80181A992A9A3A9B4A928
:1017E000F70180839183A283B38380E049C0663090
:1017F000710588F7AE014F5F5F4F64E60E949F0B53
:1018000081113EC0298180E0922F990FB0E0A0E0C5
:10181000E7CFAE014F5F5F4F64E40E949F0B8111E1
:101820002FC0998120E0392F330FA90170E060E0CB
:10183000232BD1F0F7014083518362837383F80136
:1018400045AB56AB67AB70AF91E096A319C0FC01F6
:1018500081AD92ADA3ADB4ADC3CFFC01FD96808147
:101860009181A281B381BCCFF80145A956A967A98E
:1018700070ADF7014083518362837383F80116A230
:101880000F900F90DF91CF911F910F91FF90EF90EC
:1018900008958F929F92AF92BF92CF92DF92EF9274
:1018A000FF920F931F93CF93DF9300D0CDB7DEB796
:1018B000962ED42E822EFC01EF5BFE4FC0805C0181
:1018C0002BEBA21A2EEFB20AF501E080F18001E0C5
:1018D00010E020E030E0AE014E5F5F4F8C2D0E94A3
:1018E000EA09892BA9F42A812D2128292A83F501C7
:1018F000E080F180298301E010E020E030E0AE01DB
:101900004F5F5F4F692D8C2D0E945C07892B81F002
:101910008CEE0F900F90DF91CF911F910F91FF9060
:10192000EF90DF90CF90BF90AF909F908F900895F1
:1019300080E0EFCFEF92FF920F931F93FC01EB5BE0
:10194000FE4FE080F1808F5B9E4F01E010E020E0D1
:1019500030E0FC0180810E94EA09892B31F08CEE95
:101960001F910F91FF90EF90089580E0F9CFEF92D3
:10197000FF920F931F93CF93DF931F92CDB7DEB7E4
:101980007C0100E041E06BE0C7010E94C707182F0F
:1019900040E06BE0C7010E94C707182BAE014F5F04
:1019A0005F4F63E1C7010E949A0C812B0F5F998101
:1019B000977061F0033061F0882321F30F90DF917D
:1019C000CF911F910F91FF90EF9008950330B1F7E1
:1019D00084EFF4CF9F92AF92BF92CF92DF92EF92BB
:1019E000FF920F931F93CF93DF931F92CDB7DEB774
:1019F0007C015B016A01922E198241E06FEF0E9427
:101A0000C707182F40E060E0C7010E94C707182BE6
:101A100040E06FEFC7010E94C707182B992031F0F3
:101A2000A5016BECC7010E949A0C182B002341F012
:101A3000AE014F5F5F4F6EEEC7010E949A0C182BEC
:101A400041E06FEFC7010E94C707182B41E060E03B
:101A5000C7010E94C707182B40E06FEFC7010E9423
:101A6000C70799819F7EF6019083812B0F90DF91AC
:101A7000CF911F910F91FF90EF90DF90CF90BF908B
:101A8000AF909F9008950F931F93CF93DF931F9272
:101A9000CDB7DEB78A01AE014F5F5F4F613081F095
:101AA00060E50E949A0C811105C099819F5F990F92
:101AB000F80190830F90DF91CF911F910F910895BE
:101AC00060E7EFCFCF92DF92EF92FF921F93CF9319
:101AD000DF931F92CDB7DEB77C0140E063E80E9440
:101AE000C707182F811117C0D12CC12CAE014F5F31
:101AF0005F4F63E8C7010E949A0C182F89818111FA
:101B00000AC0111108C08FEFC81AD80A88ECC8168D
:101B1000D10461F719EF41E063E8C7010E94C707EC
:101B2000812B0F90DF91CF911F91FF90EF90DF906D
:101B3000CF900895CF92DF92EF92FF920F931F9371
:101B4000CF93DF931F92CDB7DEB77C0110E000E0AA
:101B50006C018EECC80ED11CF6018081AE014F5F86
:101B60005F4F8430A9F463E1C7010E949A0C998108
:101B7000292F2770987111F58823D9F00F90DF91E4
:101B8000CF911F910F91FF90EF90DF90CF9008952C
:101B900064E1C7010E949A0C8111F0CF998190FDF8
:101BA000EDCF0F5F1F4F083C110531F00E946C0113
:101BB000D3CF2430B1F7E2CF89EFE0CF8AEFDECF89
:101BC000CF93DF93EC01462F416060E00E94C7078E
:101BD000811111C0CE010E949A0D81110CC0CE015D
:101BE0000E94B70C811107C040E060E0CE01DF9198
:101BF000CF910C94C707DF91CF9108950F931F9356
:101C0000CF93DF931F92CDB7DEB78B011982AE0160
:101C10004F5F5F4F61E00E949A0C811116C099815D
:101C200094FB332730F9F801308393FB332730F9E5
:101C3000328392FB332730F9318396FB222720F938
:101C40002383991F9927991F94830F90DF91CF9138
:101C50001F910F9108952F923F924F925F926F9232
:101C60007F928F929F92AF92BF92CF92DF92EF922C
:101C7000FF921F93CF93DF93CDB7DEB72B970FB6AD
:101C8000F894DEBF0FBECDBF6C011A011B861F8208
:101C90001E82623009F06EC0AE01465F5F4F60E0A9
:101CA0000E94430D182F811108C0AE01455F5F4FA0
:101CB00066E4C6010E949A0C182FAA85B0E020E0C5
:101CC0003FE24AE350E00E9459292B013C0124EFF6
:101CD000420E21E0521E611C711CCB84D12CF12CD0
:101CE000E12C8FEFC81AD80AE80AF80A98EE892E74
:101CF00093E0992EA12CB12CC301B201A50194014E
:101D00000E946429CA01B901A70196010E94D32B40
:101D10006B017C01C301B20120ED37E040E050E0EF
:101D20000E946429C701B601620F731F841F951FAB
:101D3000A50194010E946429F1012083318342832B
:101D40005383812F2B960FB6F894DEBF0FBECDBF05
:101D5000DF91CF911F91FF90EF90DF90CF90BF90D8
:101D6000AF909F908F907F906F905F904F903F903B
:101D70002F900895633009F043C0AE01465F5F4F76
:101D800060E00E94430D182F20E030E0A90181118E
:101D9000D3CFAE01465F5F4F60E0C6010E94430DA6
:101DA000182F811108C0AE014A5F5F4F61E5C6017F
:101DB0000E949F0B182FEE81FF81AA85B0E020E0E2
:101DC0003FE24AE350E00E9459292B013C0124EFF5
:101DD000420E21E0521E611C711C6F01DD24F12CAA
:101DE000E12C04C0CC0CDD1CEE1CFF1CFA95D2F7D4
:101DF0008FEFC81AD80AE80AF80AEE24FF2476CF33
:101E0000BE016F5F7F4F0E94FE0D8C81882351F1D0
:101E1000AE01465F5F4F60E0C6010E94430D182F80
:101E2000F12CE12C81111BC0AE014A5F5F4F61E5CF
:101E3000C6010E949F0B182F2E813F81C90199274F
:101E4000B0E0A0E004C0880F991FAA1FBB1F3A95FD
:101E5000D2F70196A11DB11D7C01112329F0D12CCF
:101E6000C12C25C0F12CE12CAE01465F5F4F61E033
:101E7000C6010E94430D182F8111F1CFAE01485FBA
:101E80005F4F61E7C6010E949F0B182F2885398597
:101E9000C9019927B0E0A0E004C0880F991FAA1FCC
:101EA000BB1F3A95D2F70196A11DB11D6C01AA8501
:101EB000B0E020E03FE24AE350E00E9459292B01C4
:101EC0003C01E4EF4E0EE1E05E1E611C711C88EEE9
:101ED000882E83E0982EA12CB12CC301B201A5015C
:101EE00094010E946429D601AE19BF090E945929A4
:101EF0000FCF4F925F926F927F92BF92CF92DF92FD
:101F0000EF92FF920F931F93CF93DF9300D000D0F7
:101F1000CDB7DEB78A01AE014F5F5F4F0E942B0E37
:101F2000B82E81112AC069817A818B819C8128EE2B
:101F3000422E23E0522E612C712CA30192010E94AB
:101F4000642969017A019B01AC01AFEFBFEF0E94E8
:101F500059296C507E4F8F4F9F4FA30192010E94D1
:101F600064297601DD24CC24C20ED31EE41EF51EA6
:101F7000F801C082D182E282F3828B2D0F900F9004
:101F80000F900F90DF91CF911F910F91FF90EF90E5
:101F9000DF90CF90BF907F906F905F904F900895AB
:101FA0005F926F927F928F929F92AF92BF92CF92E9
:101FB000DF92EF92FF920F931F93CF93DF93CDB7F2
:101FC000DEB761970FB6F894DEBF0FBECDBF7C01C0
:101FD0008B01FC018089FB018083AE014A5F5F4F6A
:101FE00068EFC7010E949F0B582E81113AC1AE01C4
:101FF0004F5F5F4F64E0C7010E94560B582E81115E
:1020000030C12E813F812115310569F050E040E05B
:1020100069817A818B819C810E946429F8012683E1
:10202000378340875187F80186819781A085B185E4
:10203000F701868B978BA08FB18FF8011286AE01C6
:102040004F5F5F4F60E2C7010E949F0B582E8111C6
:1020500008C189819A81009709F01AC1F701858D1D
:10206000968DA78DB0A1F80185879687A787B08B3D
:10207000F701128EAE014F5F5F4F68E2C7010E9409
:102080009F0B582E8111EDC089819A819F70811517
:10209000F8E09F0708F090514AEF489F9001499F50
:1020A000300D1124C901330FAA0BBB0BF801818B32
:1020B000928BA38BB48B5801F1E2AF0EB11C470198
:1020C00025E2820E911C380185E1680E711CD12C2D
:1020D000C12CA501B601C7010E94D50B582E811154
:1020E000C0C0F40181914F01F30181933F01FFEFE3
:1020F000CF1ADF0A24E0A20EB11C86E0C816D10474
:1021000041F7AE014F5F5F4F61E0C7010E949A0C3B
:10211000582E8111A6C08981F701E35EFE4F8083AE
:1021200087FFCAC081E0F80181AFF80181ADF701F6
:10213000E75BFF4F808380ED97E0A0E0B0E08A8707
:102140009B87AC87BD871E821F821886198686E30F
:102150009BE0A0E0B0E0F80182839383A483B58381
:10216000BE016F5F7F4FC7010E94FE0D582E811187
:1021700078C08981811107C08A81811104C08B8157
:10218000882309F43EC0AE01465F5F4F62E0C7019D
:102190000E942B0E8111C1C089818823A9F08A85F4
:1021A0009B85AC85BD85825B9D4FAF4FBF4FF801CE
:1021B0004281538164817581840F951FA61FB71FCB
:1021C00082839383A483B5838B81882309F477C0AA
:1021D0008A859B85AC85BD858E549D4FAF4FBF4F83
:1021E000880F991FAA1FBB1FF80142815381648188
:1021F0007581840F951FA61FB71F82839383A483C5
:10220000B5838C81811168C08D81882301F1AE0175
:10221000425F5F4F64E0C7010E942B0E8E849F8453
:10222000A888B988F6E28F0EF2E09F1EA11CB11CAF
:10223000F8014281538164817581480D591D6A1DE1
:102240007B1D4283538364837583811166C0F801CB
:1022500082819381A481B581F701828B938BA48BBA
:10226000B58B852D61960FB6F894DEBF0FBECDBF3E
:10227000DF91CF911F910F91FF90EF90DF90CF9062
:10228000BF90AF909F908F907F906F905F900895D8
:1022900033E0880F991F3A95E1F7B0E0A0E0F8012C
:1022A00085879687A787B08BF701858F968FA78F35
:1022B000B0A381E0828FDECEF80111AE36CF8A81E5
:1022C000882309F49ECF8A859B85AC85BD858C5675
:1022D0009D4FAF4FBF4F88CFAE014A5F5F4F63E066
:1022E000C7010E942B0E8E809F80A884B984F4E9D8
:1022F0008F0EF2E09F1EA11CB11CF8014281538198
:1023000064817581480D591D6A1D7B1D428353836D
:1023100064837583882309F477CF582EA2CF2F9238
:102320003F924F925F926F927F928F929F92AF9265
:10233000BF92CF92DF92EF92FF920F931F93CF93B2
:10234000DF93CDB7DEB769970FB6F894DEBF0FBE47
:10235000CDBF00ED17E020E030E00B871C872D8714
:102360003E871F86188A198A1A8A40322EE452073D
:1023700061057105E0F45CEFB52E8B2D69960FB603
:10238000F894DEBF0FBECDBFDF91CF911F910F91AB
:10239000FF90EF90DF90CF90BF90AF909F908F9085
:1023A0007F906F905F904F903F902F9008954E8B4D
:1023B0005F8B688F798F8C01BE016A5F7F4F0E94AF
:1023C000FE0DB82E8111D9CFCE88DF88E88CF98C2C
:1023D00088EEC81A88E0D80AE108F1088E818111D8
:1023E00006C08F81811103C088858823C1F1AE01A9
:1023F000455F5F4F62E0C8010E942B0E81110AC148
:102400008E81882391F08B859C85AD85BE85825B0E
:102410009D4FAF4FBF4F8C159D05AE05BF0508F012
:10242000AACFC81AD90AEA0AFB0A8885882309F4C0
:1024300071C08B859C85AD85BE858E549D4FAF4FF9
:10244000BF4F880F991FAA1FBB1F8C159D05AE0596
:10245000BF0508F090CFC81AD90AEA0AFB0A898595
:102460008823D9F0AE01415F5F4F63E0C8010E944D
:102470002B0E4F85588969897A894C565D4F6F4F6D
:102480007F4F4C155D056E057F0508F074CF8111F7
:10249000C1C0C41AD50AE60AF70A8A85882309F456
:1024A0006CCFBE016F5F7F4FC8010E94FE0D8C8113
:1024B0008823E9F1AE014B5E5F4F60E0C8010E94E6
:1024C000430DB82E81111CC0AE014D5E5F4F61E51A
:1024D000C8010E949F0BB82E8B899C891C01332454
:1024E000512C412C04C0220C331C441C551C9A95C1
:1024F000D2F79FEF291A390A490A590ABB20C9F0B5
:102500008E899F89A88DB98DF801828B938BA48BBE
:10251000B58B33CF8F81882309F4A1CF8B859C8520
:10252000AD85BE858C569D4FAF4FBF4F8ECF312CA2
:10253000212CAE014B5E5F4F61E0C8010E94430D4C
:10254000B82E8111DDCFA6E2CA1AA2E0DA0AE108AC
:10255000F108AD89B0E020E03FE24AE350E00E949C
:1025600059294B015C01B4EF8B0EB1E09B1EA11CFD
:10257000B11CA8EEB3E0A70196010E9459292B01D6
:102580003C01C501B40120ED37E040E050E00E947D
:102590006429420E531E641E751EC501B40128EE47
:1025A00033E040E050E00E946429C301B2010E9480
:1025B0006429220E331E21143104E1F04101B12CB3
:1025C000A12CE1E08E1A9108A108B10890E080E00A
:1025D000B501A4014427452B462B472B31F0B69477
:1025E000A794979487940196F3CF982F88271C017E
:1025F000280C391CA10161E7C8010E949D07B82E73
:1026000081117ECFF801E153FF4FC082D182E28277
:10261000F38276CFB82EB1CE7F928F929F92AF92F7
:10262000BF92CF92DF92EF92FF920F931F93CF93BF
:10263000DF931F92CDB7DEB77C015B016A01722E7A
:102640004C0183EE881A8EEF980AF40110811982EA
:1026500041E061E0C7010E94C70781114AC060E400
:10266000C7010E94E00D811144C0F1E07F121AC041
:1026700000E021E0AE014F5F5F4FB501C7010E944E
:10268000EA0C882389F00F90DF91CF911F910F9171
:10269000FF90EF90DF90CF90BF90AF909F908F9082
:1026A0007F900895F501108242E061E0C7010E9429
:1026B000C707811124C060E0C7010E94E00D8111AD
:1026C0001EC0F1E07F1218C001E020E0A601BE01AB
:1026D0006F5F7F4FC7010E94EA0C8111D4CF412F59
:1026E00061E0C7010E94C7078111CDCFF4011083BB
:1026F000CACFF5011082C7CFF6011082F0CFF601E4
:10270000F9CF2F923F924F925F926F927F928F926A
:102710009F92AF92BF92CF92DF92EF92FF920F9370
:102720001F93CF93DF93CDB7DEB7EC970FB6F89436
:10273000DEBF0FBECDBF6C015B01DC0150961C9269
:1027400041E060E80E94C70741E06FEFC6010E94C8
:10275000C70740E060E0C6010E94C707F601E95DD7
:10276000FE4F408161E9C6010E94C70741E060E079
:10277000C6010E94C70740E06FEFC6010E94C7076D
:1027800040E060E8C6010E94C70741E060E0C60182
:102790000E94C707811116C091E09983412C512CEA
:1027A0003201BFEF4B1A5B0A6B0A7B0A998190FFDB
:1027B0002AC08111B6C2E8EC4E16510461047104BE
:1027C000D1F489EFEC960FB6F894DEBF0FBECDBF03
:1027D000DF91CF911F910F91FF90EF90DF90CF90FD
:1027E000BF90AF909F908F907F906F905F904F9031
:1027F0003F902F900895AE014F5F5F4F60E0C6019C
:102800000E949A0CCECFF8EC4F165104610471046B
:10281000C1F28111D7CFC6010E949A0D8111D2CF8A
:1028200083E0F601E15EFE4F8083B696E080F180A2
:102830000CE010E020E030E0AE01465E5F4F64E166
:10284000349780810E94EA09892B11F08CEEBACF6F
:10285000D50156961C925697F5011082118212826C
:1028600013826CA170E0762F66272DA1620F711D77
:1028700014961D921D921D921C921797E9A1F0E0EB
:10288000FE2FEE27FF0F2F01712C612C1C964D920D
:102890005D926D927C921F978BA190E0982F882774
:1028A000990F8C0130E020E050960D931D932D93ED
:1028B0003C9353970C8D10E0102F00272D8D78013D
:1028C000E20EF11CFCAEEBAE5596FC92EE925497E4
:1028D0009A8CD601A75CBE4F2D913C9111975B97C6
:1028E0008C90283E03E03007E9F1629FC001639FAE
:1028F000900D729F900D11248C509E4F68EE73E0E6
:102900000E94E32BD6015D96ED90FD900D911C91F8
:1029100090975A962C91222329F12BAD3CAD2E9DF8
:10292000A0012F9D500D3E9D500D1124452F552780
:10293000E417F50741F460EE7AE8882009F4E3C073
:1029400068EB72E212C09F01DB010E9486298301BD
:102950007F01E41AF50A01091109A80197010E94F3
:102960006429B901882009F4CEC0CB0196958795DA
:1029700096958795D50119969C938E931897629595
:10298000660F660F607C57966C931FA61EA6892D56
:1029900090E07C0173E0F594E7947A95E1F7FAAE64
:1029A000E9AE09AD0F70902E09F4B2C089AD8D70FB
:1029B00011E018AB853029F084EF800F843008F0E7
:1029C00018AA41E06FEFC6010E94C707811107C036
:1029D000AE01425D5F4F66EBC6010E949F0B9EA554
:1029E00020E0392F330F790110E000E0E9AAFAAABC
:1029F0000BAB1CAB811105C040E06FEFC6010E941C
:102A0000C707F601EE5CFE4FE9A8FAA80BA91CA9BE
:102A1000E082F18202831383811178C1D6019596F9
:102A20008C909597882009F47FC0F501E484F584A3
:102A3000068517855A968C9120E030E0A9018823FD
:102A400099F0A489B589F601258D368D478D50A161
:102A50000E9459299B01AC0120583F4F4F4F5F4FB7
:102A6000232F342F452F55272E0D3F1D401F511F5B
:102A7000A8EEB3E00E94592970588F4F9F4FBC01B8
:102A800088279927F601E65DFE4F672B682B692B97
:102A900009F041C08EEA97E8AFE8B2E08083918305
:102AA000A283B3831EEAE12E17E8F12E0FE812E0AD
:102AB000EDAAFEAA0FAB18AFD5011B961C921E9271
:102AC0001A97AE01465D5F4F70E060E0C6010E945C
:102AD000D50B4AA55BA56CA57DA5411551056105E2
:102AE000710559F0FF24F3940DA91EA92FA938AD43
:102AF000401751076207730708F0F12C8823A9F0EB
:102B0000212C312C07C1F50171876087178A3DCFD1
:102B100001E008AB56CF10821182128213821DAAE7
:102B20001EAA1FAA18AEC8CFF12CD60197963C90CA
:102B3000332009F4C5C0AE014A5D5F4F62E070E02A
:102B4000C6010E94D50B4EA15FA168A579A54115CC
:102B500051056105710559F0EE24E39409A91AA9FC
:102B60002BA93CA9401751076207730708F0E12C15
:102B7000212C90E0811132C0D60198962C90222011
:102B800009F4A4C00BAD1CAD0115110509F49AC0E0
:102B9000962D852D742D6627980150E040E00E9407
:102BA000642929013A01AE014F5F5F4F63E070E095
:102BB000C6010E94D50B49815A816B817C814115E8
:102BC00051056105710531F091E044165506660620
:102BD000770608F090E0882309F479C0D5011B96A8
:102BE0001C921E921A9780E0811002C0FF24F39479
:102BF000F60136A1F3A6F4E09F1609F4B0C021E077
:102C0000311120E0D6019C962C93311002C0EE24A5
:102C1000E394F601E5A6211001C091E0D6019E964D
:102C20009C93F501808F9601265B3F4F99E1F90156
:102C3000DE01119601900D929A95E1F7D501189653
:102C4000ED91FC91199757969C9157971A966D9113
:102C50007C911B971C96ED90FD900D911C911F97F8
:102C600050964D905D906D907C90539754964D91F9
:102C70005C91559714968D909D90AD90BC90179750
:102C80008D829E82AF82B886FA87E9877C876B87C0
:102C9000ED86FE860F87188B498A5A8A6B8A7C8A52
:102CA0005E8B4D8B988F898F89E1FE013196D9011A
:102CB00001900D928A95E1F7C6010E94B70C82CD72
:102CC000E12C5ACF412C512C32016DCF90E018A944
:102CD0008FEF113009F488CF890D8330F0F026E0B2
:102CE000921639F139E0931621F189AD8D70883053
:102CF000B1F041E0E41699F054E0951639F19130C5
:102D000001F1F41601F19F2DEF2C68CF212C312C0D
:102D1000812CF12C90E0E12C61CF85E065CF83E040
:102D200063CFB8EC4B1651046104710409F04ACD2D
:102D300048CD84E081105CCFF60136A121E023A7C5
:102D40005ECF82E0F7CFE92E81E0F4CF82E0811000
:102D50004FCF81E0D6019B968C93E12C82E021E05D
:102D600051CFAF92BF92DF92EF92FF920F931F93DA
:102D7000CF93DF93CDB7DEB769970FB6F894DEBF78
:102D80000FBECDBF8C015B017C0183EEE81A8EEF94
:102D9000F80AF701D08040EC61E0C8010E94C70743
:102DA000811126C0BE016F5F7F4FC8010E94811351
:102DB00081111EC041E06FEFC8010E94C707811159
:102DC00017C0A50166EBC8010E949F0B811110C0BE
:102DD00040E06FEFC8010E94C707811109C04D2D67
:102DE00061E0C8010E94C707811102C0F701D082CB
:102DF00069960FB6F894DEBF0FBECDBFDF91CF91BD
:102E00001F910F91FF90EF90DF90BF90AF900895CA
:102E10002F923F924F925F926F927F928F929F92EA
:102E2000AF92BF92CF92DF92EF92FF920F931F93D8
:102E3000CF93DF93CDB7DEB7AC970FB6F894DEBF74
:102E40000FBECDBF1C017FA36EA359A748A71F8249
:102E5000188619861A861B861C861D861E86198A68
:102E60001A8AFC01E85DFE4F20813181398F288F5D
:102E7000AC014F5E5E4F5B8F4A8FDA011C922C01D2
:102E8000BEEE4B1ABEEF5B0AF20110823C01FDEE72
:102E90006F1AFEEF7F0AD3011C92FC01EC5EFE4F1D
:102EA0001082319610823196108241E06FEF0E94BD
:102EB000C7078B8B81111DC140E06FE4C1010E94E7
:102EC000C7078B8B811115C14CE26EE4C1010E94D2
:102ED000C7078B8B81110DC140E06FEFC1010E94CC
:102EE000C7078B8B811105C144EB66EBC1010E94C2
:102EF000C7078B8B8111FDC040E060E8C1010E94D3
:102F0000C7078B8B8111F5C020E0AE014E5E5F4F8D
:102F1000BE016F5E7F4FC1010E940C138B8B81112C
:102F2000E8C01F82188619861A86F101E95EFE4FF5
:102F3000FD8FEC8F9E01295F3F4F4901A3E0AA2E30
:102F4000B12CC12CD12CE12CF12C87012A8D3B8D89
:102F5000AF0160E0C1010E94710A8B8B8111C9C071
:102F60004F81588569857A854C8B5D8B6E8B7F8B05
:102F7000BE01615F7F4FC1010E94B1168B8B811131
:102F8000B8C08F859889688D798D6817790708F0A2
:102F9000D3C0AA8DBB8D1C92F2011082D3011C926A
:102FA0003296108231961082319610828C899D89DA
:102FB000AE89BF898C549F4FAF4FBF4FE6E0B695A7
:102FC000A79597958795EA95D1F7880F991F880F50
:102FD000991F84549D4FFC0180819181A281B3810E
:102FE000892B8A2B8B2B91F42C893D894E895F8903
:102FF0002C3231054105510548F42F5F3F4F4F4FAB
:103000005F4F2C8B3D8B4E8B5F8BD0CFAE01495FDA
:103010005F4F4A0173E0A72EB12CC12CD12CEC8854
:10302000FD880E891F892A8D3B8D4C8D5D8D61E059
:10303000C1010E94710A811159C16F81788589850A
:103040009A856C8B7D8B8E8B9F8BBE01615F7F4FD2
:10305000C1010E94B116811149C18F859889A88D3F
:10306000B98D11E063E0462E512C612C712CA8170C
:10307000B90720F010E0412C512C3201C12CD12C89
:103080007601C39460C0D501C4010196A11DB11D94
:103090008C8B9D8BAE8BBF8B86E0EAA5FBA5ACA588
:1030A000B02F01900D928A95E1F74E8C5F8C68A04D
:1030B00079A04AA35BA36CA37DA36FC04E8C5F8CE9
:1030C00068A079A0AEA1BFA14D925D926D927C9255
:1030D0001397E8A5F9A51083F101EC5FFE4F81E09D
:1030E000808332978C918083A8A5B9A58C91319665
:1030F00080838B89AC960FB6F894DEBF0FBECDBF30
:10310000DF91CF911F910F91FF90EF90DF90CF90C3
:10311000BF90AF909F908F907F906F905F904F90F7
:103120003F902F900895BEECBB8BE3CFEEECEB8B82
:10313000E0CFFEECFB8BDDCF10E0412C512C3201B7
:10314000C12CD12C76018F859889288D398D8217D5
:10315000930708F0B7CF46E0EA8DFB8D9E012F5F05
:103160003F4FD90101900D924A95E1F7E88DF98D15
:103170008E1B9F0BAC0170E060E04AA35BA36CA3C5
:103180007DA353E0452E512C612C712CB1016F5E53
:103190007E4F7BA76AA72CA7032F9E01255F3F4F79
:1031A0004C895D896E897F898C8D9D8D0E949401EB
:1031B0008B849C84AD84BE847FEF87169706A70618
:1031C000B70609F4B0CFD301C2010196A11DB11D0C
:1031D0008E8F9F8FA8A3B9A3D501C4018C549F4F94
:1031E000AF4FBF4F36E0B695A795979587953A951F
:1031F000D1F7880F991F880F991F84549D4F11E0B4
:10320000FC0180819181A281B381892B8A2B8B2B38
:1032100009F410E0812F90E0B0E0A0E08C159D054E
:10322000AE05BF0509F082CFD501C40123E0B695F4
:10323000A795979587952A95D1F7B501A401477071
:1032400055276627772786309105A105B10508F037
:1032500070CFEA8DFB8DE80FF91F21E030E001C04F
:10326000220F4A95EAF78081822B80836A8D7B8DBD
:10327000C1010E94EF07811139C0BE01615F7F4F1C
:10328000C1010E94B116811131C08F859889288DA6
:10329000398DAC01421B530B8217930711F450E098
:1032A00040E070E060E0A88DB98DA817B90708F07C
:1032B000EACE8AA19BA1ACA1BDA184179507A60760
:1032C000B70708F0FBCEBE016F5F7F4FC1010E94C0
:1032D000EF0796E0FE013196D101AF5EBE4F01903F
:1032E0000D929A95E1F7882309F4ECCE8B8B01CFF0
:1032F000CF92DF92EF92FF926EE574E080917A06B2
:1033000090917B060E94811360916604709167041E
:1033100080917604843009F474C0613471055CF4E2
:103320000E94C608FC01808191810C96FF90EF906D
:10333000DF90CF900895072E000C880B990B0E9408
:10334000B12A6B017C0120E030E04BE153E40E94A4
:10335000022A87FF06C00E94C608FC018281938171
:10336000E4CF20E030E045E753E4C701B6010E9416
:10337000022A87FF06C00E94C608FC01848195814D
:10338000D4CF20E030E847EA53E4C701B6010E94F9
:10339000022A87FF06C00E94C608FC018681978129
:1033A000C4CF20E030E844ED53E4C701B6010E94E9
:1033B000022A87FF06C00E94C608FC01808591850D
:1033C000B4CF20E030EC40E054E4C701B6010E94E5
:1033D000022A87FF06C00E94C608FC0182859385E9
:1033E000A4CF20E030EC40E054E4C701B6010E94D5
:1033F000612B87FD06C00E94C608FC018485958567
:1034000094CF8CE390E092CF9F92AF92BF92CF92F5
:10341000DF92EF92FF920F931F93CF93DF93CDB77D
:10342000DEB7A0970FB6F894DEBF0FBECDBF6C011C
:103430002FEDC20ED11CF601A080F7E0F12CAF16E3
:1034400009F4EEC0B62E8C0141E060E80E94C70787
:10345000F82E41E06FEFC8010E94C707F82A40E04C
:1034600060E0C8010E94C707F82A46E06FEFC80174
:103470000E94C707F82AAE01425E5F4F63E8C801A9
:103480000E949A0CF82A4E8D446063E8C8010E949D
:10349000C707F82A47E06FEFC8010E94C707F82A5C
:1034A00041E061E8C8010E94C707F82A0E946C0148
:1034B000F82A41E060E8C8010E94C707F82A21E025
:1034C000B212C1C0A0FC02C24BE664E9C8010E946E
:1034D000C707E82EC8010E94620D8E29F82AAE01A6
:1034E000465E5F4F60E9C8010E94560BF82A8A8D3C
:1034F0009B8DAC8DBD8D992EE89497F897FBEE24AB
:10350000E0F844E264E9C8010E94C707F82AC8014C
:103510000E94620DF82AAE01465E5F4F60E9C80165
:103520000E94560BF82A8A8D9B8D2C8D3D8D3C8BED
:103530002D8B9E8B8F8B45E264E9C8010E94C707E3
:10354000F82AC8010E94620DF82AAE01465E5F4F5C
:1035500060E9C8010E94560BF82A8C8D9D8D988FCA
:10356000898F40E061E8C8010E94C707F82A46E059
:103570006FEFC8010E94C707F82AAE01425E5F4F95
:1035800063E8C8010E949A0CF82A4E8D4B7F63E8CD
:10359000C8010E94C707F82A41E06FEFC8010E94E6
:1035A000C707F82A41E060E0C8010E94C707F82A6F
:1035B00040E06FEFC8010E94C707F82A40E060E8CA
:1035C000C8010E94C707F82A59F5F1E0BF1699F023
:1035D000A1FC23C0F801E052FF4F8F8D808331960C
:1035E00088A18083BE016F5F7F4FC8018E519F4FBE
:1035F0000E94042C12C0A0FC10C0F801EE5FFE4F28
:1036000090823196E082DE0154967496035E1E4FDE
:103610008D9181930E171F07D9F7BA28F601B08252
:103620008F2DA0960FB6F894DEBF0FBECDBFDF91F1
:10363000CF911F910F91FF90EF90DF90CF90BF90AF
:10364000AF909F900895A1FC41C142E064E9C80198
:103650000E94C707E82EC8010E94620D8E29F82A31
:10366000AE01415E5F4F60E9C8010E949A0CF82AE2
:103670004BE764E9C8010E94C707F82AC8010E9405
:10368000620DF82AAE01405E5F4F60E9C8010E94FA
:103690009A0CF82A47E764E9C8010E94C707F82A8C
:1036A000C8010E94620DF82AAE01465E5F4F60E9D4
:1036B000C8010E94560BF82A4A8D5B8D6C8D7D8D5A
:1036C000DB01CA0129E1B695A795979587952A95BB
:1036D000D1F78983DB01CA0132E1B695A7959795A9
:1036E00087953A95D1F78F778A83DB01CA01EBE0A2
:1036F000B695A79597958795EA95D1F78F778B83A0
:10370000DB01CA01F4E0B695A79597958795FA95E0
:10371000D1F78F778C83440F440F440F48774E8F37
:1037200048E764E9C8010E94C707F82AC8010E9457
:10373000620DF82AAE01465E5F4F60E9C8010E9443
:10374000560BF82A8A8D9B8DAC8DBD8DAC01BD01C9
:103750002DE176956795579547952A95D1F72E8D4A
:10376000240F2D83AC01BD0136E176956795579501
:1037700047953A95D1F74F774E83AC01BD01EFE005
:103780007695679557954795EA95D1F74F774F838B
:10379000292F2F772887AC01BD017695679557951E
:1037A00047954F774987982F9295990F990F907465
:1037B0009E8F49E764E9C8010E94C707F82AC8013B
:1037C0000E94620DF82AAE01465E5F4F60E9C801B3
:1037D0000E94560BF82A8A8D9B8DAC8DBD8DAC0155
:1037E000BD012AE176956795579547952A95D1F7BA
:1037F0002E8D240F2A87AC01BD0133E176956795A4
:10380000579547953A95D1F74F774B87AC01BD0156
:10381000ECE07695679557954795EA95D1F74F7700
:103820004C87AC01BD01F5E07695679557954795B6
:10383000FA95D1F74F774D87982F990F990F9C776D
:103840009E8F4AE764E9C8010E94C707F82AC801A9
:103850000E94620DF82AAE01465E5F4F60E9C80122
:103860000E94560BF82A8A8D9B8DAC8DBD8DAC01C4
:10387000BD012EE176956795579547952A95D1F725
:103880002E8D240F2E87AC01BD0137E1769567950B
:10389000579547953A95D1F74F774F872A2F2F772E
:1038A000288BAC01BD01E9E0769567955795479562
:1038B000EA95D1F74F77498BF2E0B695A7959795A2
:1038C0008795FA95D1F78F778A8B1B8AE12C912CFB
:1038D00048CE2F923F924F925F926F927F928F923B
:1038E0009F92AF92BF92CF92DF92EF92FF920F938F
:1038F0001F93CF93DF93CDB7DEB7C355D1090FB672
:10390000F894DEBF0FBECDBFE0917A06F0917B0642
:10391000EF5BFE4F89E28083E0917A06F0917B06AF
:10392000EE5BFE4F81E08083E0917A06F0917B06AA
:10393000ED5BFE4F20E931E031832083E0917A0690
:10394000F0917B06EB5BFE4F26E235E0318320836E
:1039500010927E0410927D041092A7041092C90464
:103960001092A5048093A40410927F0482E00E9428
:10397000CD0383E00E94CD038091B9008E7F8093B8
:10398000B9008091B9008D7F8093B90088E480935D
:10399000B80085E48093BC0085E192E090937C04BC
:1039A00080937B0486E192E090937A04809379047B
:1039B00021E04EEF69E883E395E00E94490C811114
:1039C00006C040E068E883E395E00E94C7072E0147
:1039D0008BE3480E511CA20160EC83E395E00E944A
:1039E0009A0C1092120688EE93E090936D068093E5
:1039F0006C0680E991E090936F0680936E0685E8EF
:103A00009BE6A1E0B0E08093700690937106A093CE
:103A10007206B093730684EA90E7A9E0B0E0809361
:103A2000FB059093FC05A093FD05B093FE05109255
:103A30005005109251051092520510925305FE0147
:103A400031962A96FFAFEEAF2A97BF0183E395E048
:103A50000E94D00F182F81110BC019821A828AE39D
:103A6000FE013196A3E4B5E001900D928A95E1F74D
:103A700084E690E0909355068093540684E893E0A2
:103A8000909357068093560684EF91E090935906E1
:103A90008093580680E09AE090935C0680935B06E2
:103AA00081E080936B0641E060E883E395E00E944B
:103AB000C707D82E41E06FEF83E395E00E94C70768
:103AC000D82AD12A40E060E083E395E00E94C7074E
:103AD000D82AAE01415C5F4F61E983E395E00E9423
:103AE0009A0CD82A8FAD80935A0641E060E083E3B8
:103AF00095E00E94C707D82A40E06FEF83E395E086
:103B00000E94C707D82A40E060E883E395E00E945E
:103B1000C707D82A10E000E0FF24F394D110ADC10C
:103B20000330110509F49CC07CF401301105D9F073
:103B30000230110509F491C0F0925805F801EE5CCD
:103B4000FA4FF6A280E025C00430110509F48BC0BD
:103B500020E04FEE0530110579F760E683E395E04C
:103B60000E94490C14C0409168055091690560910C
:103B70006A0570916B05B9E07695679557954795FD
:103B8000BA95D1F764E483E395E00E949D0788230A
:103B9000A9F20F5F1F4FD82E0630110509F0BECFD6
:103BA00081116EC010925A0510925B0522E04EEF13
:103BB00060E683E395E00E94490C811161C0109298
:103BC0005C0520E14FEE60E683E395E00E94490C3E
:103BD000811156C010925D0580E090E0A2E1B0E056
:103BE0008093640590936505A0936605B09367057F
:103BF0008091590581113AC080E090E4A0E0B0E0E6
:103C00008093680590936905A0936A05B0936B054E
:103C100080E090E0A3E2B0E080936C0590936D05A6
:103C2000A0936E05B0936F05109270051092710508
:103C300010927205109273058FEF809350064FEF2C
:103C400061E083E395E00E94C70791E090935206FC
:103C5000811116C01092370613C0F0925A056ECF2C
:103C6000F0925B056BCF20E04EEF77CF40E250E063
:103C700064E483E395E00E949D07882309F4BCCFA8
:103C80008093320549E26AE880917A0690917B063A
:103C90000E94C707809332056AE070E080E090E000
:103CA0000E94A10480913205811184C1E0917A06BD
:103CB000F0917B06EF5BFE4F89E2808362E083E355
:103CC00095E00E94041A81112FC080911306811182
:103CD000D6C06EEF72E085EC96E00E94042C6FEF88
:103CE00072E085E896E00E94042C68E373E085EAC0
:103CF00096E00E94042C45EE56E060EC83E395E0EC
:103D00000E949A0C811110C0AE014F5F5F4F62ECB0
:103D100083E395E00E949A0C91E09093E6069981E6
:103D200092959F709093E70680933205811107C0AA
:103D30008091E706813019F08BEF809332058091F6
:103D400032058111CDC060907A0670907B068AE3BF
:103D50002A96EEADFFAD2A9711928A95E9F725963E
:103D60001FAE1EAE259728961FAE289727961FAE2A
:103D7000279723961CAE1DAE1EAE1FAE239761E0A3
:103D8000C3010E94041AF301ED5FFE4F3080F1E0A1
:103D9000F31508F496C0F301EE5FFE4F2080A22CCD
:103DA000B12CD12CC12C81E0381284C091E2A9162B
:103DB000B104C104D10408F084C041E06FEFC30135
:103DC0000E94C70781111AC040E06FE4C3010E943E
:103DD000C707811113C04CE26EE4C3010E94C707FC
:103DE00081110CC040E06FEFC3010E94C707811131
:103DF00005C044EB66EBC3010E94C70793012F5E29
:103E00003E4FF90110823196108231961082319620
:103E100010823196108231961082E12CF12C8701AC
:103E2000332009F4E2C0D801C7018C549F4FAF4F33
:103E3000BF4FF6E0B695A79597958795FA95D1F778
:103E4000880F991F880F991F84549D4FFC01808112
:103E50009181A281B381892B8A2B8B2B09F0C5C05C
:103E6000FCE2EF16F1040105110509F4BEC08FEF65
:103E7000E81AF80A0F4F1F4FD6CF8D2D01CF1091A2
:103E8000140665E176E085EC96E00E94042C11238F
:103E900009F425CF133240F46BE073E0103209F0DF
:103EA00020CF67E173E01DCF63E273E0173208F0C3
:103EB00018CFF7CFEDE0AE16B104C104D10408F479
:103EC0007CCFAE014A5B5F4FBE01615C7F4FC30197
:103ED0000E940817B82EBB2009F49BC0B09232058F
:103EE0008091320581110EC0AE014D5B5F4FBE0166
:103EF0006F5F7F4F80917A0690917B060E94081732
:103F0000809332058091320581110DC021E0A2011C
:103F1000BE01615C7F4F80917A0690917B060E9482
:103F20000C138093320580913205811126C0E091F7
:103F30007A06F0917B06108AE0917A06F0917B0672
:103F4000FF24F394F5A200917A0610917B06F80104
:103F500045A956A967A970AD99E0769567955795DB
:103F600047959A95D1F764E4C8010E949D07811195
:103F700002C0F801F6A280933205809132058111CA
:103F800015C0E0917A06F0917B0681E080A7E09170
:103F90007A06F0917B06FD9684ED98E0A0E0B0E013
:103FA00080839183A283B3831092320581E0909144
:103FB0003205911180E0CD5ADF4F0FB6F894DEBF85
:103FC0000FBECDBFDF91CF911F910F91FF90EF906A
:103FD000DF90CF90BF90AF909F908F907F906F9029
:103FE0005F904F903F902F9008954201A301495E4A
:103FF0005E4F632DC3010E94710AB82E81116BCFF1
:1040000081E0F301EC5FFE4F80833297208231968E
:104010003082F301E85CFE4F80818111C5C1329787
:10402000C080D18030E020E04301FBEB8F1AFEEF2F
:104030009F0AC3018F5B9E4F2C969FAF8EAF2C972C
:10404000F301ED5DFE4F2E96FFAFEEAF2E978097FA
:1040500060969FAF8EAF609732966296FFAFEEAFDD
:104060006297079664969FAF8EAF649703C0ECEF9C
:10407000BE2E9101F601E20FF31F0081002309F427
:1040800084C0B1102BCF19019FEF291A390AD6012C
:10409000A20DB31D6C910F3F09F04DC0190182E0D4
:1040A000280E311CD601A20DB31D8C91613029F16F
:1040B00098F0623089F16330D1F6190194E0290E4D
:1040C000311C238190E0982F8827820F911D6496E0
:1040D000EEADFFAD64970EC0190194E0290E311CBE
:1040E000238190E0982F8827820F911D6096EEAD76
:1040F000FFAD609791838083BCCF190194E0290EB6
:10410000311C238190E0982F8827820F911D2E96D5
:10411000EEADFFAD2E97EECF190194E0290E311CC4
:10412000238190E0982F8827820F911D6296EEAD33
:10413000FFAD6297DFCF053008F099CF2E5F3F4F7C
:10414000D601A20FB31FF201202E312CCF0184190A
:104150009509821593051CF48D918193F7CF220E5A
:10416000331EF401E080F18010E030E020E0A20195
:104170002C96EEADFFAD2C9780810E945C07892BB9
:1041800009F477CF7CEEB72E74CFB110A7CE44E000
:104190006AE0C3010E94C707B82E81119FCE20E0BC
:1041A0004FEE64E8C3010E94490CB82E811196CEEF
:1041B00084E0F301E253FF4F8083C3010E94B70CF8
:1041C000B82E81118BCE41E06FEFC3010E94C7076B
:1041D000B82EAE014D5B5F4F64E8C3010E949F0B98
:1041E000B82A40E06FEFC3010E94C707B82A09F060
:1041F00075CEF301E853FF4F25968EAD9FAD259701
:1042000024E0880F991F2A95E1F7B0E0A0E08083B1
:104210009183A283B383BE016F5F7F4FC3010E946E
:10422000D00FB82E81115ACEAE01495B5F4F69E0C5
:10423000C3010E949A0CB82E811150CE28968FADE2
:104240002897817028968FAF2897F301E25EFE4F82
:1042500080838AE3FE013196D301509601900D923E
:104260008A95E1F7AE01495B5F4F61E0C3010E94AF
:104270009A0CB82E811132CE8301035E1E4F289610
:104280008FAD2897F80180831BAEA20161E0C301C6
:104290000E949A0CB82E811121CE8BADF82EE89495
:1042A000F4F884FF12C04F2D61E0C3010E94C707DC
:1042B000B82E811113CEF801F082F301428953899F
:1042C00064897589C3010E948F111BAEA20161E050
:1042D000C3010E949A0CB82E811100CE8BADF82E2E
:1042E000E894F2F882FF12C04F2D61E0C3010E94F2
:1042F000C707B82E8111F2CDF801F082F30142898F
:10430000538964897589C3010E948F1183E0F30189
:10431000E15EFE4F8083AE014B5B5F4F60E0C30107
:104320000E94430DB82E8111D9CD26968FAD2697C8
:10433000F301E852FF4F8083AE014B5B5F4F61E0BA
:10434000C3010E94430DB82E8111C8CD26968FADB2
:104350002697F301ED52FF4F8083A20163E0C30172
:104360000E94790FB82E8111B9CD8BAD9CADADAD4A
:10437000BEADF301EC52FF4F80839183A283B383E0
:10438000A20164E0C3010E94790FB82E8111A6CD6D
:10439000F301E153FF4F8BAD9CADADADBEAD80835E
:1043A0009183A283B3839ACD82ECC82E81E0D82E6C
:1043B00039CE84E0E0E4F3E0DB0101900D928A95D0
:1043C000E1F784E008951F920F920FB60F92112427
:1043D0002F933F934F935F936F937F938F939F930D
:1043E000AF93BF93CF93EF93FF93C091E100809180
:1043F000E100837F8093E100C3FF0FC01092E900CA
:1044000081E08093EB001092EC0082E38093ED005A
:104410001092780488E08093F000C2FF1BC083E014
:104420000E94410280915B04882341F080915B04EB
:10443000815080935B04811101C05D988091770465
:10444000882341F080917704815080937704811113
:1044500001C02898C4FF23C08091E2008E7E816055
:104460008093E2008091E1008F7E8093E100809153
:104470005C048E7E806180935C04FF91EF91CF910C
:10448000BF91AF919F918F917F916F915F914F916C
:104490003F912F910F900FBE0F901F901895C0FF66
:1044A000ECCF8091E2008E7E80618093E20080916B
:1044B000E1008E7E8093E10080915C048E7E8160BD
:1044C000DACF1F920F920FB60F921124CF92DF9284
:1044D000EF92FF920F931F932F933F934F935F930E
:1044E0006F937F938F939F93AF93BF93EF93FF93BC
:1044F000CF93DF93CDB7DEB76C97DEBFCDBF109201
:10450000E9008091E80083FF25C068E0CE01459670
:104510000E94B50282EF8093E8008D8987FF39C041
:104520009091E80090FFFCCF982F907609F034C16D
:104530009E894F89588D2F89F88C911131C0803810
:1045400061F580915D048093F1001092F1008EEF8F
:104550008093E8006C960FB6F894DEBF0FBECDBF17
:10456000DF91CF91FF91EF91BF91AF919F918F918B
:104570007F916F915F914F913F912F911F910F917B
:10458000FF90EF90DF90CF900F900FBE0F901F9095
:1045900018959EEF9093E800C7CF1092F100D5CF09
:1045A000913059F48111D3CF4130510581F680917A
:1045B0005D048D7F80935D04CACF933049F48111EF
:1045C000C6CF4130510519F680915D048260F2CF6B
:1045D000953041F48091E80080FFFCCF2068209363
:1045E000E300B5CF963009F0A9C00B8D1C8D22E0F9
:1045F0001092E9001092590410925804F2122EC041
:1046000010925704109256040E94D6021F8299E01D
:104610009983FA8291E09E8390EA98879AEF99872E
:104620002091580430915904275F3F4F3C832B83DE
:104630008D831092E900109259041092580410933F
:1046400057040093560449E050E0BE016F5F7F4F6E
:1046500080E00E947E020E94D60279CF1093570418
:10466000009356040E94C202DC0112960D911C9127
:104670000115110509F451C1D801ED91FC91048097
:10468000F581E02DBE016B5E7F4FC8010995009753
:1046900009F03EC1F80100851185EACFF3E0FF1271
:1046A0000EC08F89882309F440C0823061F440E84D
:1046B0006DE088E391E00E94FC25811148CF81E202
:1046C0008093EB0047CF813029F440E86BE08CE227
:1046D00091E0F1CF833099F70E94C202DC0112967B
:1046E000ED90FC908E010F5F1F4F6801E114F10403
:1046F00079F0D701ED91FC910680F781E02DB801AA
:10470000C7010995080F111DF701E084F184EECF70
:10471000D8011C92F60101900020E9F73197BF0102
:104720006C197D0940E0C601C6CF66E171E0FB016E
:10473000449150E080E80E947E0209CF973009F44E
:10474000BECF983021F481E08093F10000CF993002
:1047500009F0FDCE837009F0B2CFE6EBF2E081E024
:1047600031E096E32191222371F08093E9003093A8
:10477000EB00DF0111972C912093EC009093ED005A
:104780008F5F873079F78EE78093EA001092EA0016
:104790008F8980937804DBCE8B8D9C8D1092E900FD
:1047A0001092590410925804909357048093560421
:1047B000898D811192C08E899D89913A49F4813207
:1047C00009F07DCF47E050E06AEB71E080E0B3CFC5
:1047D000913209F074CF833269F48F89988DB0E0FB
:1047E000A0E08093B6019093B701A093B801B09375
:1047F000B901ADCE803269F48091E80082FFFCCF30
:1048000067E08AEB91E00E94B5028BEF8093E800AD
:104810009ECE823209F09BCE8F898093C101EEEF4C
:10482000FFE7859194918B3F9C4D51F1E0E0F8E0DA
:104830008091BA019091BB01A091BC01B091BD01E2
:10484000803B9440A105B105F1F48091C10180FD48
:104850001AC0EE3F8AE0F80789F587E797E791836A
:1048600080838091600080935A0488E19BE00FB6BA
:10487000F894A895809360000FBE9093600067CE77
:10488000EEEFFAE0D5CF808191818737974709F025
:104890005ECEA895809160008861809360008091D1
:1048A0005A0480936000EE3F2AE0F20789F080917D
:1048B000FE0A9091FF0A9183808349CE8081918185
:1048C0008737980751F29093FF0A8093FE0AC5CF6D
:1048D0001092FF0A1092FE0A3ACE0E94C202DC0138
:1048E00012960D911C910115110509F4E8CED8011D
:1048F000ED91FC910190F081E02DBE016B5E7F4F48
:10490000C8010995811123CEF80100851185EBCFEF
:10491000181619060CF41BCED2CEF1E0FF12BECE53
:104920006AE171E004CF1F920F920FB60F9211242B
:104930002F933F938F939F93AF93BF9380914204A4
:1049400090914304A0914404B091450430914104F6
:1049500023E0230F2D3758F50196A11DB11D20939B
:1049600041048093420490934304A0934404B09381
:1049700045048091460490914704A0914804B09169
:1049800049040196A11DB11D8093460490934704EC
:10499000A0934804B0934904BF91AF919F918F9128
:1049A0003F912F910F900FBE0F901F90189526E802
:1049B000230F0296A11DB11DD2CF1F920F920FB6E9
:1049C0000F9211242F933F934F935F936F937F9395
:1049D0008F939F93AF93BF93EF93FF938091B90011
:1049E000887F803609F44AC0F0F5883209F4A7C000
:1049F00018F5803109F49BC0B8F4882309F4F9C094
:104A0000883009F494C0FF91EF91BF91AF919F91CD
:104A10008F917F916F915F914F913F912F910F9067
:104A20000FBE0F901F901895883109F488C080320E
:104A300051F78093A30414C0803409F49DC040F45E
:104A40008033B9F38833F9F68093A30485ECB0C0C2
:104A5000803509F485C0883509F496C0883499F604
:104A60000E94A206D0CF883909F48CC038F5883767
:104A700029F050F4883611F0803729F683E08093CE
:104A8000A5041092400457C0883809F47BC08039CF
:104A900019F0803809F0B7CF80914004803208F0D7
:104AA00071C0E091400481E08E0F809340048091BA
:104AB000BB00F0E0E05EFB4F80833DC0803B39F0FF
:104AC000E0F4803A09F479C0883A09F09CCF84E098
:104AD0008093A50410921F0410921E04E0917B04A1
:104AE000F0917C04099580911E0481110FC081E032
:104AF00080931E041092FE0309C0803C09F4A6CFE7
:104B0000883C09F4A3CF883B09F07DCFE0911F04D6
:104B100081E08E0F80931F04F0E0E250FC4F808113
:104B20008093BB0090911F0480911E0429C0809146
:104B300080048093BB0085EC8093BC0064CF90918F
:104B4000A2048091A104981758F5E091A20481E095
:104B50008E0F8093A204F0E0EF57FB4F8081E9CFE6
:104B6000E091A20481E08E0F8093A2048091BB00AB
:104B7000F0E0EF57FB4F80839091A2048091A10455
:104B80009817C8F285E8D8CFE091A20481E08E0F93
:104B90008093A2048091BB00F0E0EF57FB4F80832D
:104BA0008091A40481115CCF81E080937F0484EA2A
:104BB0008093BC001092A50426CF85EC8093BC00A6
:104BC0001092A50480914004803230F4E0914004BA
:104BD000F0E0E05EFB4F10826091400470E0E091F5
:104BE0007904F0917A0480E294E0099510924004EF
:104BF0000ACF1092A30434CFEF92FF920F931F932A
:104C0000CF93DF93F82E192FE62E042F81E0860F25
:104C1000880F0E94500283E00E945002CF2DD12FB6
:104C2000EC0EFD2EF11CCE15DF05B9F007FF13C009
:104C3000FE0184910E945002182F80E00E945002D1
:104C4000812321968111EFCFDF91CF911F910F9199
:104C5000FF90EF9008958881EDCF81E0F5CFCF935D
:104C6000DF931092CD041092CC0488EE93E0A0E084
:104C7000B0E08093CE049093CF04A093D004B0937F
:104C8000D10480ED92E09093CB048093CA048FEF1F
:104C90009FEF9093D7048093D60482E080931E0503
:104CA00080931F0584E295E0909321058093200571
:104CB000109223051092220582EE92E090931B053C
:104CC00080931A0580E88093240581E88093250568
:104CD0000E94C202FC01818190911E05482F490F5C
:104CE0005527551F483051059CF5A281B381109777
:104CF00009F52AE135E033832283208120931C05C6
:104D000080931D0580911F05820F808320912005CF
:104D1000A22FB09121058A2F821B8917C8F48181A7
:104D20003D91C82FD0E0CB54DD4F38838F5F818316
:104D3000F2CFD90118962D913C9119972115310583
:104D4000C1F72AE135E019963C932E931897D5CFF9
:104D5000109229051092280588EE93E0A0E0B0E0BB
:104D600080932A0590932B05A0932C05B0932D05D5
:104D70008EEE92E0909327058093260586EB91E0D6
:104D8000E2E3F5E0DF019C011D9221503040E1F7A4
:104D900083E395E090937B0680937A068CE796E018
:104DA0009093840680938306DF91CF910895789441
:104DB00084B5826084BD84B5816084BD85B5826020
:104DC00085BD85B5816085BD80916E0081608093D1
:104DD0006E0010928100809181008260809381003A
:104DE000809181008160809381008091800081604A
:104DF00080938000809191008260809391008091E7
:104E000091008160809391008091900081608093F7
:104E100090008091C10084608093C1008091C100A6
:104E200082608093C1008091C10081608093C10045
:104E30008091C30081608093C3008091C000826034
:104E40008093C0008091C20081608093C2008091F5
:104E50007A00846080937A0080917A0082608093E7
:104E60007A0080917A00816080937A0080917A0044
:104E7000806880937A001092780410925D041092FA
:104E80005C048091D70081608093D70080EA809392
:104E9000D80089B5806189BD89B5826089BD09B4B2
:104EA00000FEFDCF61E070E080E090E00E94A10490
:104EB0008091D8008F7C80618093D8008091E00041
:104EC000807F8093E0008091E1008E7E8093E100FE
:104ED0008DE08093E200559A209A5D9828988FEF94
:104EE0009FEF9093D7048093D60460E08AE00E94FD
:104EF0001C0460E089E00E941C0460E087E00E94DE
:104F00001C0460E08BE00E941C0461E083E10E94CD
:104F10001C0461E080E00E941C0462E08BE00E94BF
:104F20001C0462E087E00E941C0462E086E00E94AC
:104F30001C0462E085E00E941C0462E084E00E94A0
:104F40001C0480E00E94CD0381E00E94CD0385E433
:104F500093E00E944C096CE271E080E090E00E94D6
:104F6000A1040E94691C811112C0C6E4D1E0FE01B7
:104F70006491662339F08AEC94E00E94070321963D
:104F8000892BA9F78CEF92E00E943F09FFCF0E9486
:104F9000691C882321F081E593E00E944C0980E0A0
:104FA000A82E80E0B82E82E10E945804BC01990F1F
:104FB000880B990B0E94B12A6B017C0120E030E044
:104FC00040EA52E40E94022A87FF7AC00E940E083B
:104FD000D0E0C0E08BE593E00E945E09CE010E9424
:104FE000650984E693E00E944C098AE693E00E94FA
:104FF0005E098AE00E9458040E94650984E793E0F4
:105000000E945E0989E00E9458040E9465098EE7AB
:1050100093E00E944C0984E893E00E945E0984E1D9
:105020000E9458040E9465098EE893E00E945E0980
:1050300086E10E9458040E94650988E993E00E9475
:105040005E098BE00E94F3030E94650983EA93E006
:105050000E945E0987E00E94F3030E9465098EEAC0
:1050600093E00E945E0986E00E94F3030E946509B6
:1050700089EB93E00E945E0985E00E94F3030E94A1
:10508000650984EC93E00E945E0984E00E94F303CA
:105090000E9465098FEC93E00E945E0982E10E9404
:1050A00058040E94650961E070E080E090E00E9491
:1050B000A104A114B10409F476CF0E94000073CFBB
:1050C00020E030E849EF53E4C701B6010E94612BAC
:1050D00018160CF0A2C00E940E08CFE7D0E00E9484
:1050E0007819F82E6EE574E080917A0690917B062F
:1050F0000E94811380906604909067040E94C60805
:105100006C0190E080E00E948F05EC2E69E070E970
:105110008F2D9C2F0E946D050E944B0261E070E074
:1051200080E090E00E94A10482E10E945804BC014A
:10513000990F880B990B0E94B12A2B013C0120E0AA
:1051400030E040EA52E40E94022A10E000E087FDCD
:1051500028C020E030E849EF53E4C301B2010E94C7
:10516000612B0FE710E01816E4F02FEC37EF4BE758
:1051700050E4C301B2010E94072A2B013C0120E048
:1051800030E0A9010E94612B20E030E040E05FE3C5
:1051900087FD6BC0C301B2010E9496290E94792A43
:1051A0008B01602F82E00E9488050E940E0880918A
:1051B0006604909167049401281B390BC9010E9471
:1051C0008F050E94C6088C159D05B1F068E070E857
:1051D0008F2D9E2D0E946D050E944B020E94781912
:1051E000F82E0E94C6086C0169E070E98F2D9E2D93
:1051F0000E946D050E944B02101611060CF48ECF12
:1052000068E070E88F2D9E2D0E946D050E944B0274
:1052100090E080E00E948F05DDCE2FEC37EF4BE76A
:1052200050E4C701B6010E94072A6B017C0120E00F
:1052300030E0A9010E94612B20E030E040E05FE314
:1052400087FD0EC0C701B6010E9496290E94792AE7
:10525000EB010E940E081C161D060CF440CFBACEBE
:10526000C701B6010E949529F1CFC301B2010E9486
:10527000952994CF052E97FB1EF400940E94512986
:1052800057FD07D00E94642907FC03D04EF40C940C
:10529000512950954095309521953F4F4F4F5F4F85
:1052A000089590958095709561957F4F8F4F9F4F92
:1052B00008950E948629A59F900DB49F900DA49FEC
:1052C000800D911D11240895A1E21A2EAA1BBB1B6B
:1052D000FD010DC0AA1FBB1FEE1FFF1FA217B307C2
:1052E000E407F50720F0A21BB30BE40BF50B661FD8
:1052F000771F881F991F1A9469F76095709580959C
:1053000090959B01AC01BD01CF010895A29FB00112
:10531000B39FC001A39F700D811D1124911DB29FE9
:10532000700D811D1124911D08955058BB27AA2787
:105330000E94AD290C94272B0E94192B38F00E9453
:10534000202B20F039F49F3F19F426F40C94162BEF
:105350000EF4E095E7FB0C94102BE92F0E94382BFC
:1053600058F3BA17620773078407950720F079F49A
:10537000A6F50C945A2B0EF4E0950B2EBA2FA02D07
:105380000B01B90190010C01CA01A0011124FF27F2
:10539000591B99F0593F50F4503E68F11A16F040ED
:1053A000A22F232F342F4427585FF3CF46953795EC
:1053B0002795A795F0405395C9F77EF41F16BA0BB1
:1053C000620B730B840BBAF09150A1F0FF0FBB1F5F
:1053D000661F771F881FC2F70EC0BA0F621F731FA8
:1053E000841F48F4879577956795B795F7959E3F05
:1053F00008F0B0CF9395880F08F09927EE0F979596
:10540000879508950E94EC2A08F481E008950E948F
:105410001B2A0C94272B0E94202B58F00E94192B3A
:1054200040F029F45F3F29F00C94102B51110C949B
:105430005B2B0C94162B0E94382B68F39923B1F345
:10544000552391F3951B550BBB27AA2762177307AA
:10545000840738F09F5F5F4F220F331F441FAA1F3E
:10546000A9F335D00E2E3AF0E0E832D091505040FA
:10547000E695001CCAF72BD0FE2F29D0660F771FA8
:10548000881FBB1F261737074807AB07B0E809F08E
:10549000BB0B802DBF01FF2793585F4F3AF09E3F13
:1054A000510578F00C94102B0C945B2B5F3FE4F3C8
:1054B000983ED4F3869577956795B795F7959F5F56
:1054C000C9F7880F911D9695879597F90895E1E0A2
:1054D000660F771F881FBB1F621773078407BA0701
:1054E00020F0621B730B840BBA0BEE1F88F7E0955C
:1054F00008950E94802A6894B1110C945B2B089542
:105500000E94402B88F09F5798F0B92F9927B751E8
:10551000B0F0E1F0660F771F881F991F1AF0BA9557
:10552000C9F714C0B13091F00E945A2BB1E0089530
:105530000C945A2B672F782F8827B85F39F0B93F22
:10554000CCF3869577956795B395D9F73EF490950A
:105550008095709561957F4F8F4F9F4F0895E89488
:1055600009C097FB3EF490958095709561957F4FAB
:105570008F4F9F4F9923A9F0F92F96E9BB27939559
:10558000F695879577956795B795F111F8CFFAF469
:10559000BB0F11F460FF1BC06F5F7F4F8F4F9F4F9A
:1055A00016C0882311F096E911C0772321F09EE8F8
:1055B000872F762F05C0662371F096E8862F70E05E
:1055C00060E02AF09A95660F771F881FDAF7880F38
:1055D0009695879597F90895990F0008550FAA0B8E
:1055E000E0E8FEEF16161706E807F907C0F01216F6
:1055F0001306E407F50798F0621B730B840B950BF9
:1056000039F40A2661F0232B242B252B21F408954D
:105610000A2609F4A140A6958FEF811D811D0895EA
:1056200097F99F6780E870E060E008959FEF80EC55
:10563000089500240A9416161706180609060895F8
:1056400000240A9412161306140605060895092E5E
:105650000394000C11F4882352F0BB0F40F4BF2BCD
:1056600011F460FF04C06F5F7F4F8F4F9F4F08950D
:1056700057FD9058440F551F59F05F3F71F0479503
:10568000880F97FB991F61F09F3F79F087950895E8
:10569000121613061406551FF2CF4695F1DF08C007
:1056A000161617061806991FF1CF86957105610524
:1056B00008940895E894BB2766277727CB0197F9CC
:1056C00008950E94EC2A08F48FEF08950E94792B28
:1056D0000C94272B0E94192B38F00E94202B20F0CD
:1056E000952311F00C94102B0C94162B11240C9470
:1056F0005B2B0E94382B70F3959FC1F3950F50E000
:10570000551F629FF001729FBB27F00DB11D639F73
:10571000AA27F00DB11DAA1F649F6627B00DA11D19
:10572000661F829F2227B00DA11D621F739FB00DBF
:10573000A11D621F839FA00D611D221F749F33272F
:10574000A00D611D231F849F600D211D822F762FC8
:105750006A2F11249F5750409AF0F1F088234AF0A5
:10576000EE0FFF1FBB1F661F771F881F9150504011
:10577000A9F79E3F510580F00C94102B0C945B2BE5
:105780005F3FE4F3983ED4F3869577956795B79598
:10579000F795E7959F5FC1F7FE2B880F911D9695B2
:1057A000879597F90895DB018F939F930E9459295C
:1057B000BF91AF91A29F800D911DA39F900DB29FAD
:1057C000900D11240895AA1BBB1B51E107C0AA1F0D
:1057D000BB1FA617B70710F0A61BB70B881F991F92
:1057E0005A95A9F780959095BC01CD010895EE0FCB
:1057F000FF1F0590F491E02D09940E948629B7FFC0
:105800000895821B930B0895FB01DC0101900D921A
:0A5810000020E1F70895F894FFCF9F
:10581A000A0009000800070006000500040011003C
:10582A0010000F000E000D000C000B0016001500F2
:10583A00140013001200110010001D001C001B00B0
:10584A001A001900180017002200210020001F006A
:10585A001E001D001C002600250024002300220033
:10586A002100200029002800270026002500240006
:10587A0023002C002B002A002900280027002600DC
:10588A002E002D002C002B002A00290028003200AF
:10589A00310030002F002E002D002C00350034007E
:1058AA0033003200310030002F0038003700360054
:1058BA0035003400330032003A003900380037002E
:1058CA00360035003400FFFFFFFF00E10000000052
:1058DA00000001FF0101000001FF000109000110A1
:1058EA00000111000124010125FF01750001FF01DA
:1058FA00014E2C01480001302001FF00013009014E
:10590A00540001310401320301408301462501603C
:10591A000001270001500601510001529601560864
:10592A000157300161000162000164000165000154
:10593A0066A001FF010122320147140149FF014A11
:10594A000001FF00017A0A017B0001782101FF01B1
:10595A000123340142000144FF01452601460501A5
:10596A004040010E0601201A01434001FF000134A4
:10597A000301354401FF01013104014B09014C05C2
:10598A00014D0401FF0001440001452001470801BF
:10599A0048280167000170040171010172FE017655
:1059AA000001770001FF01010D0101FF00018001E3
:1059BA000101F801FF01018E0101000101FF00014F
:1059CA00800000000000C180810000000A00000081
:1059DA0005000000000000000500000000000000B3
:1059EA000703B70520031D036703250343030000CC
:1059FA000000D005D205CD05D921000000002A07F4
:105A0A00FD065907D306F606E306D4060D0A005624
:105A1A004C35334C30582054533000564C35334CA7
:105A2A0030582054533100564C35334C305820549A
:105A3A00533200564C35334C305820455331206F81
:105A4A0072206C6174657200564C35334C305800C4
:105A5A004D494449007374617274696E672E2E2E23
:105A6A0000647720626F6F746564006272656174A6
:105A7A00683A20004A4F592031004A4F59203120B4
:105A8A00583A20004A4F59203120593A20004A4FAB
:105A9A00592032004A4F59203220583A20004A4FA2
:105AAA0059203220593A2000627574746F6E312081
:105ABA003D2000627574746F6E32203D200062755D
:105ACA0074746F6E33203D2000627574746F6E3487
