:100000000C9496000C94BE000C94BE000C94BE00A0
:100010000C94BE000C94BE000C94BE000C94BE0068
:100020000C94BE000C94BE000C946F040C94DE047F
:100030000C94BE000C94BE000C94BE000C94BE0048
:100040000C94BE000C94BE000C94BE000C94BE0038
:100050000C94BE000C94BE000C94BE000C941007CF
:100060000C94BE000C94BE000C94BE000C94BE0018
:100070000C94BE000C94BE000C94BE000C94BE0008
:100080000C94BE000C94BE000C94BE000C94BE00F8
:100090000C94BE000C94BE000C94BE000C94BE00E8
:1000A0000C94BE000C94BE000C94BE00080B000221
:1000B0000202000009040000010202000005240001
:1000C0001001052401010104240206052406000193
:1000D0000705810310004009040100020A00000026
:1000E00007050202400000070583024000000403E8
:1000F000090412010002EF02014041233780000190
:100100000102030141726475696E6F204C4C43001B
:1001100041726475696E6F204D6963726F000706E6
:1001200005040100080A0B0C0D095A0711241FBE13
:10013000CFEFDAE0DEBFCDBF11E0A0E0B1E0E2E258
:10014000F3E102C005900D92AC33B107D9F721E07D
:10015000ACE3B1E001C01D92A73BB207E1F710E0AC
:10016000C6E9D0E004C02197FE010E948909C53983
:10017000D107C9F70E94D6070C948F090C94000090
:10018000FC0180915A01882311F13FB7F89482E075
:100190008093E9002091F200822F90E01816190652
:1001A00014F481E090E0882339F0289A44E64093E3
:1001B00059014091F1004083222339F02091F2004F
:1001C000211103C02BE62093E8003FBF08958FEF75
:1001D0009FEF089540914F015091500120914D01A2
:1001E00030914E0142175307B4F49091E800957096
:1001F000E1F39091E80092FD19C08093F1008091A5
:100200004F019091500101968F739927892B19F412
:100210008EEF8093E80080914F01909150010196FC
:100220009093500180934F0181E0089580E00895FC
:10023000EF92FF920F931F93CF93DF93F82E192F16
:10024000E62E042F81E0860F880F0E94EA0083E0EB
:100250000E94EA00CF2DD12FEC0EFD2EF11CCE1501
:10026000DF05B9F007FF13C0FE0184910E94EA0088
:10027000182F80E00E94EA00812321968111EFCFA0
:10028000DF91CF911F910F91FF90EF90089588819A
:10029000EDCF81E0F5CFDF92EF92FF920F931F93A6
:1002A000CF93DF93D82E8A01EB017B01E40EF51E7C
:1002B000CE15DF0559F0D7FE12C0FE0184910E94D1
:1002C000EA0021968111F4CF0FEF1FEFC801DF91F3
:1002D000CF911F910F91FF90EF90DF90089588814B
:1002E000EECF2FB7F89487708093E9009091E800E3
:1002F000892F807295FF04C09091F20080E4891BE1
:100300002FBF0895615030F02091F100FC0120834F
:100310000196F8CF289A84E6809359010895809138
:10032000450181110DC082E08093410184E08093FA
:100330004201109244011092430181E080934501F3
:1003400081E491E008950F931F93CF93DF931F9261
:10035000CDB7DEB782E0898342E450E06CEA70E01A
:1003600080E80E944B010E948F01DC0112960D91E2
:100370001C910115110589F0D801ED91FC910280C5
:10038000F381E02DBE016F5F7F4FC801099597FD96
:1003900004C0F80100851185ECCF89810F90DF91B1
:1003A000CF911F910F910895CF93DF931F92CDB7F7
:1003B000DEB76983DC01ED91FC910280F381E02DD1
:1003C00041E050E0BE016F5F7F4F09950F90DF91D4
:1003D000CF91089583E08093E9008091F200882313
:1003E00019F08AE38093E800089583E00E94710188
:1003F00090E00895CF93DF931F92CDB7DEB7FC0155
:100400008485958597FD08C02FEF3FEF35872487BA
:100410000F90DF91CF910895CE0101960E94C00008
:10042000019719F4898190E0F3CF8FEF9FEFF0CF20
:100430000F931F93CF93DF931F92CDB7DEB78C013D
:10044000FC018485958597FF0BC0CE0101960E9423
:10045000C000019771F4898190E0F8019587848745
:10046000F801848595850F90DF91CF911F910F91B1
:1004700008958FEF9FEFF1CFFC018485958597FD5F
:100480000BC09FB7F89482E08093E9008091F2005E
:100490009FBF90E0019608959FB7F89482E0809303
:1004A000E9008091F2009FBF90E008953FB7F89473
:1004B00080913D0190913E01A0913F01B09140019A
:1004C00026B5A89B05C02F3F19F00196A11DB11DAF
:1004D0003FBFBA2FA92F982F8827BC01CD01620FEB
:1004E000711D811D911D42E0660F771F881F991FA6
:1004F0004A95D1F70895CF92DF92EF92FF920E9432
:1005000056026B017C010E9456026C197D098E090E
:100510009F09683E734081059105A8F3FF90EF9015
:10052000DF90CF9008957F928F929F92AF92BF926B
:10053000CF92DF92EF92FF920F931F93CF93DF93AF
:10054000C82E8B017A0180915A01811110C08FEF62
:100550009FEFDF91CF911F910F91FF90EF90DF9070
:10056000CF90BF90AF909F908F907F900895809193
:10057000530180FF05C08091E00082608093E0001D
:10058000CE2DDF2DD12C8AEFB82E8C2D8770982E92
:100590008C2D8072882E8C2D8074782E9AE3A92E53
:1005A000209719F4DD2009F44EC08C2D0E947101B2
:1005B000811106C0BA94BB2051F20E947B02F0CF99
:1005C0008C171D0611F00CF08C2F9FB7F8949092A9
:1005D000E9002091E80025FD02C09FBFE1CF282F50
:1005E00030E0C21BD30B882029F08150A0F010927C
:1005F000F100FBCFF801C7FC0AC0815050F04191D7
:100600004093F100FACF44914093F100319681502C
:10061000D0F7020F131FDD2021F0A092E800D12CAB
:10062000DCCF8091E80085FD07C0A092E800DD24C2
:10063000D394209791F2F3CF209779F6772069F23F
:10064000A092E800CACF5D9A84E680935201C70168
:1006500080CFCF93DF93EC0180910B01882331F0A1
:1006600083E00E9493021816190634F081E090E0AE
:100670009B838A8380E090E0DF91CF91089590E0A2
:1006800080E0089580E008950F931F93CF93DF9348
:10069000CDB7DEB7C456D1090FB6F894DEBF0FBE92
:1006A000CDBFFC01DB019C919E5F9C939E01295F65
:1006B0003F4F8AE5D9011D928A95E9F788E0898341
:1006C0008BE08A8322E02C8391E09D839E8339E036
:1006D000398764E06A879E879F873A8B44E24B8B19
:1006E0009C8BA0E0B1E0BE8BAD8B09E010E0188FD1
:1006F0000F8B998F3B8F6C8F2F8F98A353E059A34B
:1007000087E08CA34DA39EA3B8A7AFA3A1E4B0E05C
:10071000BAA7A9A786E08BA74CA72DA79EA79FA73E
:1007200089AB4AAB2BAB2CAB2DAB3FAB48AF59AF32
:100730009AAF5BAF9CAF2DAF9EAF21963FAF219795
:1007400022964FAF229723965FAF239724962FAF21
:10075000249725966FAF259726969FAF26972796C5
:100760009FAF279728969FAF28972A963FAF2A9743
:1007700045E02B964FAF2B972D962FAF2D9760E42A
:1007800070E02F967FAF6EAF2F9763964FAF639752
:1007900085E264968FAF649765969FAF659766967E
:1007A0009FAF669767969FAF679768963FAF6897CA
:1007B00069964FAF69976B962FAF6B976D967FAF2A
:1007C0006EAF6D97A1964FAFA197A2968FAFA297EC
:1007D000A3969FAFA397A4969FAFA497A5965FAF4C
:1007E000A59792819B839B879F5F9A8F9D8F838123
:1007F0002C968FAF2C978F5F80686A968FAF6A9721
:1008000044E650E0BE016F5F7F4F80E00E944B01E5
:10081000CC59DF4F0FB6F894DEBF0FBECDBFDF91CE
:10082000CF911F910F910895FC0101900020E9F7ED
:100830003197AF01481B590BBC018BE591E00C943B
:1008400029038F929F92AF92BF920F931F93CF93E2
:10085000DF93CDB7DEB7A1970FB6F894DEBF0FBE1A
:10086000CDBF19A2423008F44AE08E010F5D1F4F40
:10087000842E912CB12CA12CA50194010E94510928
:10088000E62FB901CA01EA30F4F4E05DD801EE9335
:100890008D01232B242B252B79F790E080E01097F6
:1008A00019F0CD010E941404A1960FB6F894DEBF92
:1008B0000FBECDBFDF91CF911F910F91BF90AF9031
:1008C0009F908F900895E95CE1CF84E0E1E3F1E04F
:1008D000DB0101900D928A95E1F784E008951F9263
:1008E0000F920FB60F9211248F939F938091E10086
:1008F0009091E100937F9093E10083FF0FC01092ED
:10090000E90091E09093EB001092EC0092E3909359
:10091000ED0010925A0198E09093F00082FF22C0FF
:1009200093E09093E9009091F200992319F09AE3F3
:100930009093E80090915201992341F090915201D7
:10094000915090935201911101C05D98909159017D
:10095000992341F09091590191509093590191112F
:1009600001C0289884FF18C08091E2008E7E8160CB
:100970008093E2008091E1008F7E8093E10080917E
:1009800053018E7E8061809353019F918F910F90D0
:100990000FBE0F901F90189580FFF7CF8091E20057
:1009A0008E7E80618093E2008091E1008E7E809354
:1009B000E100809153018E7E8160E5CF1F920F92FE
:1009C0000FB60F921124CF92DF92EF92FF920F9306
:1009D0001F932F933F934F935F936F937F938F93C7
:1009E0009F93AF93BF93EF93FF93CF93DF93CDB7D5
:1009F000DEB76C97DEBFCDBF1092E9008091E800B2
:100A000083FF25C068E0CE0145960E94820182EFF7
:100A10008093E8008D8987FF39C09091E80090FFAE
:100A2000FCCF982F907609F034C19E894F89588D5C
:100A30002F89F88C911131C0803861F58091540173
:100A40008093F1001092F1008EEF8093E8006C9695
:100A50000FB6F894DEBF0FBECDBFDF91CF91FF91EF
:100A6000EF91BF91AF919F918F917F916F915F9126
:100A70004F913F912F911F910F91FF90EF90DF9039
:100A8000CF900F900FBE0F901F9018959EEF9093F0
:100A9000E800C7CF1092F100D5CF913059F4811101
:100AA000D3CF4130510581F6809154018D7F8093E1
:100AB0005401CACF933049F48111C6CF413051055A
:100AC00019F6809154018260F2CF953041F4809103
:100AD000E80080FFFCCF20682093E300B5CF96307C
:100AE00009F0A9C00B8D1C8D22E01092E900109234
:100AF000500110924F01F2122EC010924E0110922E
:100B00004D010E94A3011F8299E09983FA8291E02E
:100B10009E8390EA98879AEF998720914F013091B0
:100B20005001275F3F4F3C832B838D831092E90058
:100B30001092500110924F0110934E0100934D01FD
:100B400049E050E0BE016F5F7F4F80E00E944B01A3
:100B50000E94A30179CF10934E0100934D010E9492
:100B60008F01DC0112960D911C910115110509F4FC
:100B700051C1D801ED91FC910480F581E02DBE01B9
:100B80006B5E7F4FC8010995009709F03EC1F801DF
:100B900000851185EACFF3E0FF120EC08F8988230C
:100BA00009F440C0823061F440E86DE080E191E0FA
:100BB0000E941801811148CF81E28093EB0047CF5A
:100BC000813029F440E86BE084E091E0F1CF83309C
:100BD00099F70E948F01DC011296ED90FC908E0136
:100BE0000F5F1F4F6801E114F10479F0D701ED9117
:100BF000FC910680F781E02DB801C7010995080F27
:100C0000111DF701E084F184EECFD8011C92F601AA
:100C100001900020E9F73197BF016C197D0940E090
:100C2000C601C6CF6EEE70E0FB01449150E080E853
:100C30000E944B0109CF973009F4BECF983021F4C0
:100C400081E08093F10000CF993009F0FDCE8370F0
:100C500009F0B2CFEDE0F1E081E031E096E32191DF
:100C6000222371F08093E9003093EB00DF011197AC
:100C70002C912093EC009093ED008F5F873079F7F3
:100C80008EE78093EA001092EA008F8980935A01E0
:100C9000DBCE8B8D9C8D1092E9001092500110924A
:100CA0004F0190934E0180934D01898D811192C027
:100CB0008E899D89913A49F4813209F07DCF47E0D0
:100CC00050E064E071E080E0B3CF913209F074CF7E
:100CD000833269F48F89988DB0E0A0E080930001A1
:100CE00090930101A0930201B0930301ADCE803235
:100CF00069F48091E80082FFFCCF67E084E091E036
:100D00000E9482018BEF8093E8009ECE823209F030
:100D10009BCE8F8980930B01EEEFFFE78591949135
:100D20008B3F9C4D51F1E0E0F8E0809104019091FF
:100D30000501A0910601B0910701803B9440A105F7
:100D4000B105F1F480910B0180FD1AC0EE3F8AE0FD
:100D5000F80789F587E797E79183808380916000A2
:100D60008093510188E19BE00FB6F894A895809399
:100D700060000FBE9093600067CEEEEFFAE0D5CF33
:100D8000808191818737974709F05ECEA895809141
:100D900060008861809360008091510180936000C1
:100DA000EE3F2AE0F20789F08091FE0A9091FF0A57
:100DB0009183808349CE808191818737980751F252
:100DC0009093FF0A8093FE0AC5CF1092FF0A1092FB
:100DD000FE0A3ACE0E948F01DC0112960D911C9101
:100DE0000115110509F4E8CED801ED91FC910190AF
:100DF000F081E02DBE016B5E7F4FC8010995811126
:100E000023CEF80100851185EBCF181619060CF4D6
:100E10001BCED2CEF1E0FF12BECE62EF70E004CF67
:100E20001F920F920FB60F9211242F933F938F931F
:100E30009F93AF93BF938091550190915601A091DC
:100E40005701B091580130913C0123E0230F2D3719
:100E500058F50196A11DB11D20933C0180935501C9
:100E600090935601A0935701B093580180913D0192
:100E700090913E01A0913F01B09140010196A11DCA
:100E8000B11D80933D0190933E01A0933F01B0932B
:100E90004001BF91AF919F918F913F912F910F9002
:100EA0000FBE0F901F90189526E8230F0296A11DE4
:100EB000B11DD2CFCF93DF9310925E0110925D01EE
:100EC00088EE93E0A0E0B0E080935F019093600132
:100ED000A0936101B093620187E191E090935C017E
:100EE00080935B018FEF9FEF909368018093670180
:100EF00082E08093AF018093B00185EB91E0909305
:100F0000B2018093B1011092B4011092B30189E251
:100F100091E09093AC018093AB0180E88093B501A0
:100F200081E88093B6010E948F01FC01818190913C
:100F3000AF01482F490F5527551F483051059CF5E3
:100F4000A281B381109709F52BEA31E03383228324
:100F500020812093AD018093AE018091B001820F7A
:100F600080832091B101A22FB091B2018A2F821B00
:100F70008917C8F481813D91C82FD0E0C45FDE4F4E
:100F800038838F5F8183F2CFD90118962D913C91E0
:100F9000199721153105C1F72BEA31E019963C93D9
:100FA0002E931897D5CFDF91CF910895CF93DF93EC
:100FB00000D000D0CDB7DEB7789484B5826084BD10
:100FC00084B5816084BD85B5826085BD85B581604D
:100FD00085BD80916E00816080936E0010928100CB
:100FE0008091810082608093810080918100816086
:100FF0008093810080918000816080938000809147
:101000009100826080939100809191008160809333
:101010009100809190008160809390008091C10048
:1010200084608093C1008091C10082608093C10080
:101030008091C10081608093C1008091C300816074
:101040008093C3008091C00082608093C000809133
:10105000C20081608093C20080917A008460809396
:101060007A0080917A00826080937A0080917A0081
:10107000816080937A0080917A00806880937A0002
:1010800010925A0110925401109253018091D7008E
:1010900081608093D70080EA8093D80089B5806111
:1010A00089BD89B5826089BD09B400FEFDCF0E946B
:1010B0007B028091D8008F7C80618093D8008091E2
:1010C000E000807F8093E0008091E1008E7E80933D
:1010D000E1008DE08093E200559A209A5D9828986F
:1010E0008FEF9FEF909368018093670144244A94A7
:1010F00023E0522E612C712C30E0232E30E0332E71
:101100001CE300E42FB7F8946091550170915601EB
:1011100080915701909158012FBF20ED37E040E0BA
:1011200050E00E945109623071058105910500F57A
:1011300088E08983E0E8EA831B831C828091AE010A
:1011400044E050E0BE016F5F7F4F8F5F0E949302CB
:10115000F9E0F98380E98A831B830C838091AE01D7
:1011600044E050E0BE016F5F7F4F8F5F0E949302AB
:10117000E8E2F1E0849120917B00982F990F990F7C
:1011800090722F7D922B90937B0087708064809368
:101190007C0080917A00806480937A0080917A004C
:1011A00086FDFCCF80917800A0917900BA2FA82FFE
:1011B0002FEF3FE30E948209A30192010E943209AE
:1011C00069014901330FAA08BB084AE0C501B4010F
:1011D000B7FE0DC06DE28BE591E00E94D401662759
:1011E0007727CB01681979098A099B094AE00E948F
:1011F0002104CC0CDD1C7601F594E794E894E7F823
:10120000FF2486E391E00E9414046D2D70E090E0CD
:1012100080E04AE00E94210486E391E00E941404E9
:10122000B701FF0C880B990B4AE00E94210488E368
:1012300091E00E941404FEE0F98380EE8A83EB8241
:10124000DC828091AE0144E050E0BE016F5F7F4FD1
:101250008F5F0E9493022114310409F453CF0E943E
:1012600000004FCF052E97FB1EF400940E94490901
:1012700057FD07D00E94510907FC03D04EF40C948F
:10128000490950954095309521953F4F4F4F5F4FFD
:10129000089590958095709561957F4F8F4F9F4FE2
:1012A0000895A1E21A2EAA1BBB1BFD010DC0AA1FA7
:1012B000BB1FEE1FFF1FA217B307E407F50720F0BF
:1012C000A21BB30BE40BF50B661F771F881F991F3A
:1012D0001A9469F760957095809590959B01AC0183
:1012E000BD01CF010895A29FB001B39FC001A39F8C
:1012F000700D811D1124911DB29F700D811D11244F
:10130000911D08950E947309B7FF0895821B930BE6
:101310000895EE0FFF1F0590F491E02D0994F894C5
:02132000FFCFFD
:10132200FFFFFFFF00E100000000000000C180811C
:1013320000000000000000D4012903F501EA013C8D
:1013420002FA01180200000000420344033F036551
:0C135200044D4944490020000D0A000031
:00000001FF
