:100000000C94F1000C9419010C9419010C94190131
:100010000C9419010C9419010C9419010C941901F8
:100020000C9419010C9419010C940D1E0C947C1E57
:100030000C9419010C9419010C9419010C941901D8
:100040000C9419010C9419010C9419010C941901C8
:100050000C9419010C9419010C9419010C94AE2004
:100060000C9419010C9419010C9419010C941901A8
:100070000C9419010C9419010C9419010C94190198
:100080000C9419010C9419010C9419010C94190188
:100090000C94F8200C9419010C9419010C9419017A
:1000A0000C9419010C9419010C941901080B00020D
:1000B0000202000009040000010202000005240001
:1000C0001001052401010104240206052406000193
:1000D0000705810310004009040100020A00000026
:1000E00007050202400000070583024000000403E8
:1000F000090412010002EF02014041233780000190
:100100000102030141726475696E6F204C4C43001B
:1001100041726475696E6F204D6963726F000000F3
:100120000000240027002A002D003000564C3533F3
:100130004C3058204150492053696D706C652052F5
:10014000616E67696E67206578616D706C650A0A1B
:10015000004661696C656420746F20626F6F742063
:10016000564C35334C305800070605040100080A88
:100170000B0C0D0900000000250028002B002E00AC
:10018000310004040404040304050202020204030F
:100190000202020206060606060604040202020421
:1001A0000404080201104080401020408040800874
:1001B00002040180402010020110801020404020E5
:1001C0000000000200090F0000030401000C000001
:1001D000000000000000000000000000000000001F
:1001E0004A2211241FBECFEFDAE0DEBFCDBF12E0FE
:1001F000A0E0B1E0E6E9F8E402C005900D92A83B6A
:10020000B107D9F725E0A8EBB2E001C01D92A63BEB
:10021000B207E1F710E0C1EFD0E004C02197FE0182
:100220000E942224C03FD107C9F70E9481220C946A
:1002300049240C940000982F2091A30381E02132DF
:1002400008F043C080917F038111FCCF8091A2030D
:1002500032E030937F0390937E039FEF90937D0372
:1002600010927C0320937B03A2E8B3E0EBE5F3E07C
:1002700090E0291331C010925A0390915A03880FCD
:10028000892B80935A0380915903813049F510924C
:10029000590380915A038093BB008091BC0083FD79
:1002A000F8CF85EC8093BC0080917F038230E1F32E
:1002B00080917D038F3FB1F080917D038032A1F06A
:1002C00080917D03803391F084E01092810310923D
:1002D000A3031092800308953D9131939F5FC9CF8E
:1002E00085EEE0CF80E0F1CF82E0EFCF83E0EDCF8D
:1002F000CF93DF9300D000D0CDB7DEB719821A823A
:100300001B821C8289819A81AB81BC818A3F9105C5
:10031000A105B10568F4000089819A81AB81BC8197
:100320000196A11DB11D89839A83AB83BC83EACF5B
:1003300080E00F900F900F900F90DF91CF91089574
:100340004F925F926F927F928F929F92AF92BF92E5
:10035000CF92DF92EF92FF920F931F93CF93F90109
:100360000FEF1FEF980100831183228333834A012B
:100370005B01B3E0B694A79497948794BA95D1F7AC
:100380006A017B0127E0C222DD24EE24FF249501CF
:100390008401C0E0063011052105310508F041C097
:1003A000C1113FC0DC01A00FB11F6C91412C512C39
:1003B000320180169106A206B30649F470E00C2CB7
:1003C00002C0759567950A94E2F726013701462F1A
:1003D00050E060FF17C0B901A801A3E0440F551F0A
:1003E000661F771FAA95D1F7440E551E661E771E0D
:1003F0004082518262827382C1E00F5F1F4F2F4F94
:100400003F4FC8CFBA01759567954FEF441A540A0C
:10041000640A740A48E04416510461047104B9F690
:10042000ECCFCF911F910F91FF90EF90DF90CF9085
:10043000BF90AF909F908F907F906F905F904F9004
:100440000895282F30E0F901E054FE4F9491F9010E
:10045000EF55FE4F84912E573E4FF90124912223F0
:1004600009F42DC09923E9F091509F30D0F4E92F81
:10047000F0E0E35CFD4F0C94222468026C024C0215
:10048000600264025102510251026F027502790248
:100490007D02830251028702909180009F779093A2
:1004A0008000E22FF0E0EE0FFF1FEC58FE4FA59109
:1004B000B4919FB7F894EC918E2B8C939FBF0895C5
:1004C000909180009F7DEBCF90918000977FE7CF48
:1004D00094B59F7794BDE5CF94B59F7DFBCF909168
:1004E00090009F7790939000DCCF909190009F7D3B
:1004F000F9CF90919000977FF5CF9091C0009F77B2
:100500009093C000CECF9091C0009F7DF9CF909185
:10051000C200977F9093C200C4CF08950895FC0154
:1005200080915203882311F13FB7F89482E08093C1
:10053000E9002091F200822F90E01816190614F4B9
:1005400081E090E0882339F0289A44E640935103F3
:100550004091F1004083222339F02091F2002111D3
:1005600003C02BE62093E8003FBF08958FEF9FEF75
:1005700008952FB7F89483E08093E9009091E80004
:10058000892F807295FF04C09091F20080E4891B4E
:100590002FBF08958091490381110DC082E080939F
:1005A000450384E08093460310924803109247036A
:1005B00081E08093490385E493E008954091260308
:1005C00050912703209124033091250342175307AC
:1005D000B4F49091E8009570E1F39091E80092FDF9
:1005E00019C08093F1008091260390912703019612
:1005F0008F739927892B19F48EEF8093E8008091EF
:100600002603909127030196909327038093260356
:1006100081E0089580E00895DF92EF92FF920F93BA
:100620001F93CF93DF93D82E8A01EB017B01E40E59
:10063000F51ECE15DF0559F0D7FE12C0FE018491DC
:100640000E94DE0221968111F4CF0FEF1FEFC80147
:10065000DF91CF911F910F91FF90EF90DF90089560
:100660008881EECF0F931F93CF93DF931F92CDB767
:10067000DEB782E0898342E450E06CEA70E080E813
:100680000E940C030E94CA02DC0112960D911C917B
:100690000115110589F0D801ED91FC910280F381DB
:1006A000E02DBE016F5F7F4FC801099597FD04C023
:1006B000F80100851185ECCF89810F90DF91CF91F2
:1006C0001F910F910895615030F02091F100FC01CD
:1006D00020830196F8CF289A84E6809351030895E9
:1006E000CF93DF931F92CDB7DEB76983DC01ED9125
:1006F000FC910280F381E02D41E050E0BE016F5F8C
:100700007F4F09950F90DF91CF91089583E08093FB
:10071000E9008091F200882319F08AE38093E800D1
:1007200008950E94B90290E00895CF93DF931F923D
:10073000CDB7DEB7FC018485958597FD08C02FEF06
:100740003FEF358724870F90DF91CF910895CE0139
:1007500001960E948F02019719F4898190E0F3CFEE
:100760008FEF9FEFF0CF0F931F93CF93DF931F92E5
:10077000CDB7DEB78C01FC018485958597FF0BC052
:10078000CE0101960E948F02019771F4898190E059
:10079000F80195878487F801848595850F90DF910E
:1007A000CF911F910F9108958FEF9FEFF1CFFC0133
:1007B0008485958597FD0BC09FB7F89482E0809360
:1007C000E9008091F2009FBF90E0019608959FB7E5
:1007D000F89482E08093E9008091F2009FBF90E05E
:1007E00008953FB7F8948091200390912103A09140
:1007F0002203B091230326B5A89B05C02F3F19F013
:100800000196A11DB11D3FBFBA2FA92F982F882790
:10081000BC01CD01620F711D811D911D42E0660F6B
:10082000771F881F991F4A95D1F708958F929F923D
:10083000AF92BF92CF92DF92EF92FF924B015C0199
:100840000E94F1036B017C010E94F1036C197D0988
:100850008E099F09683E734081059105A8F321E048
:10086000821A9108A108B10888EEC80E83E0D81E4C
:10087000E11CF11C81149104A104B10429F7FF903B
:10088000EF90DF90CF90BF90AF909F908F900895A2
:100890008F929F92AF92BF92CF92DF92EF92FF9290
:1008A0000F931F93CF93DF936C017B018A0180919B
:1008B0000B01882309F45CC080915203882309F45A
:1008C00057C080912A0380FF05C08091E0008260BC
:1008D0008093E000E801B12C8AEFA82E93E0892EE6
:1008E0002AE3922E209711F4BB20D9F10E94B9027D
:1008F00081110AC0AA94AA20D9F161E070E080E0D9
:1009000090E00E941604EECF8C171D0611F00CF03B
:100910008C2F9FB7F8948092E9002091E80025FD84
:1009200002C09FBFDFCF282F30E0C21BD30BF701DF
:10093000815020F041914093F100FACFE20EF31E76
:10094000BB2021F09092E800B12CEBCF8091E80021
:1009500085FDE7CF9092E800BB24B394209709F37C
:10096000F3CF5D9A84E680932903101611063CF0BC
:1009700081E090E0F6019383828310E000E0C801FB
:10098000DF91CF911F910F91FF90EF90DF90CF906B
:10099000BF90AF909F908F90089585ED8093BC009D
:1009A0008091BC0084FDFCCF10927F0308952091BC
:1009B000F802260F3327331F21323105ECF4209142
:1009C0007F03FC0190E080E0243069F082E008952C
:1009D000A091F8022191AC0148525D4FA40FB52FB0
:1009E000B11D2C930196861798F38091F802680F39
:1009F0006093F80280E0089581E008950895E09101
:100A0000580380915703E81730F4F0E0E854FD4FA5
:100A1000808190E008958FEF9FEF089590915803A3
:100A2000809157032FEF3FEF981748F4E92FF0E03C
:100A3000E854FD4F208130E09F5F90935803C90137
:100A400008958091570390915803891B990B08953D
:100A5000CF92DF92EF92FF920F931F93CF93DF938A
:100A60007C01CB018A0120918003222389F0EB01D4
:100A70006B01C40ED51ECC15DD0569F06991D70157
:100A8000ED91FC910190F081E02DC7010995F3CF24
:100A9000642F0E94D704C801DF91CF911F910F915D
:100AA000FF90EF90DF90CF900895CF93DF931F9248
:100AB000CDB7DEB76983209180032223F9F020911E
:100AC000A303203258F021E030E0FC01338322837D
:100AD00090E080E00F90DF91CF91089580918103A5
:100AE000E82FF0E0EE57FC4F998190838F5F809361
:100AF00081038093A30381E090E0ECCF61E0CE011D
:100B000001960E94D704F7CF90E080E008958F927D
:100B10009F92AF92BF92CF92DF92EF92FF920F938C
:100B20001F93CF93DF936A014801E70191E090930F
:100B300080038093A203109281031092A303E881A3
:100B4000F9810190F081E02DC70109958C0C9D1C65
:100B5000C814D90459F0E881F9810190F081E02DA1
:100B6000D6016D916D01CE010995F2CF81E00E9411
:100B70001B0190E080E0DF91CF911F910F91FF90DA
:100B8000EF90DF90CF90BF90AF909F908F9008959F
:100B9000EF92FF920F931F93CF93DF9300D0CDB7C7
:100BA000DEB7FC01EF5BFE4F70813496E080F18090
:100BB0004A83598302E010E020E030E0AE014F5F4D
:100BC0005F4F872F0E948705892B51F08CEE0F9085
:100BD0000F90DF91CF911F910F91FF90EF900895AB
:100BE00080E0F5CFEF92FF920F931F93CF93DF93A7
:100BF0001F92CDB7DEB7FC01EF5BFE4F70813496DC
:100C0000E080F180498301E010E020E030E0AE01B7
:100C10004F5F5F4F872F0E948705892B49F08CEE2D
:100C20000F90DF91CF911F910F91FF90EF9008955A
:100C300080E0F6CFEF92FF920F931F93AB01FC0180
:100C4000EB5BFE4FE080F1808F5B9E4F06E010E093
:100C500020E030E060EBFC0180810E948705892B59
:100C600031F08CEE1F910F91FF90EF90089580E08E
:100C7000F9CFFC0101900020E9F73197AF01481B43
:100C8000590BBC0184EA93E00C9448048F929F9224
:100C9000AF92BF920F931F93CF93DF93CDB7DEB781
:100CA000A1970FB6F894DEBF0FBECDBF19A2423098
:100CB00008F44AE08E010F5D1F4F842E912CB12C59
:100CC000A12CA50194010E940024E62FB901CA01BC
:100CD000EA30F4F4E05DD801EE938D01232B242B50
:100CE000252B79F790E080E0109719F0CD010E9454
:100CF0003906A1960FB6F894DEBF0FBECDBFDF91C7
:100D0000CF911F910F91BF90AF909F908F900895BA
:100D1000E95CE1CF0F931F93CF93DF938C01D0E079
:100D2000C0E0F801EC0FFD1F6491662341F084EAF6
:100D300093E00E947003892B11F02196F2CF8AE391
:100D400092E00E9439068C0F9D1FDF91CF911F9179
:100D50000F9108958F929F92AF92BF92CF92DF92A0
:100D6000EF92FF920F931F93CF93C82F6A01480110
:100D700081E080938003C093A203109281031092BC
:100D8000A303D701ED91FC910190F081E02DC70103
:100D9000099581E00E941B0180917F038111FCCFA6
:100DA000982D81E080937F0380937E032FEF209323
:100DB0007D0310927C03280D20937B0380935A03BC
:100DC00080915A03CC0FC82BC0935A0380915903CA
:100DD000813099F51092590380915A038093BB009A
:100DE0008091BC0083FDF8CF85EC8093BC0080919E
:100DF0007F038130E1F380917C03891710F4909197
:100E00007C03EBE5F3E0A8EBB2E080E0891317C0C8
:100E100010925803809357038C0C9D1CC814D9045E
:100E200091F0D701ED91FC910284F385E02DC7018B
:100E30000995F60181936F01F1CF85EED6CF21910F
:100E40002D938F5FE3CF90E080E0CF911F910F91C2
:100E5000FF90EF90DF90CF90BF90AF909F908F90DA
:100E600008952F923F924F925F926F927F928F924E
:100E70009F92AF92BF92CF92DF92EF92FF920F9329
:100E80001F93CF93DF93CDB7DEB72F970FB6F894AC
:100E9000DEBF0FBECDBF9C878B876D875F874E8778
:100EA0003901170128012F82388649865A8610E0B9
:100EB00000E0EE24E394F12C0A151B0509F461C04F
:100EC0009E01295F3F4FB201A1018E859F850E943F
:100ED000A0014F81588569857A854F3F2FEF5207D2
:100EE0006207720709F49CC0DB01CA018C549F4F52
:100EF000AF4FBF4FE6E0B695A79597958795EA95D2
:100F0000D1F7880F991F880F991F8A5F9D4F21E0A5
:100F1000FC0180819181A281B381892B8A2B8B2B4B
:100F200009F420E0FD85F2137BC01A012B0133E0A8
:100F300056944794379427943A95D1F7DB01CA0128
:100F400087709927AA27BB2726E02216310441047F
:100F5000510468F4F301E20DF31D970102C0220F62
:100F6000331F8A95E2F7C9019081892B80831A018A
:100F70002B013FEF231A330A430A530A0F5F1F4F17
:100F80009BCFB12CF4012082318242825382B11076
:100F90002DC0B3018B859C850E941A06B82E811145
:100FA00025C0EB85FC85EB5BFE4FE080F180EB8597
:100FB000FC85EF5BFE4F06E010E020E030E0AE0184
:100FC0004F5F5F4F60EB80810E94AA06892B11F072
:100FD0009CEEB92EF301DE011196C3010696319104
:100FE0002D91321320C0E817F907C9F78B2D2F96E2
:100FF0000FB6F894DEBF0FBECDBFDF91CF911F912A
:101000000F91FF90EF90DF90CF90BF90AF909F90A7
:101010008F907F906F905F904F903F902F900895AA
:101020002EECB22EAFCF8EECB82EE0CFCF92DF9267
:10103000EF92FF920F931F93CF93DF9300D000D0D6
:10104000CDB7DEB76A01FC01EB5BFE4FE080F180BB
:101050008F5B9E4F04E010E020E030E0AE014F5F78
:101060005F4FFC0180810E94AA0649815A81542762
:101070004527542770E060E0762F652F542F4427D2
:101080002B81422B762F652F542F44272C81422B06
:10109000F6014083518362837383892B71F480E06E
:1010A0000F900F900F900F90DF91CF911F910F91A4
:1010B000FF90EF90DF90CF9008958CEEF1CFCF921C
:1010C000DF92EF92FF920F931F93CF93DF9300D0A5
:1010D000CDB7DEB76A01FC01EB5BFE4FE080F1802B
:1010E0008F5B9E4F02E010E020E030E0AE014F5FEA
:1010F0005F4FFC0180810E94AA0629813A81322734
:1011000023273227F60131832083892B61F480E085
:101110000F900F90DF91CF911F910F91FF90EF9063
:10112000DF90CF9008958CEEF3CFEF92FF920F9364
:101130001F93CF93DF9300D0CDB7DEB78C017A0138
:101140006330710509F449C090F46130710509F10B
:1011500062307105E1F1F80181A992A9A3A9B4A9AE
:10116000F70180839183A283B38380E049C0663016
:10117000710588F7AE014F5F5F4F64E60E945F081C
:1011800081113EC0298180E0922F990FB0E0A0E04C
:10119000E7CFAE014F5F5F4F64E40E945F088111AB
:1011A0002FC0998120E0392F330FA90170E060E052
:1011B000232BD1F0F7014083518362837383F801BD
:1011C00045AB56AB67AB70AF91E096A319C0FC017D
:1011D00081AD92ADA3ADB4ADC3CFFC01FD968081CE
:1011E0009181A281B381BCCFF80145A956A967A915
:1011F00070ADF7014083518362837383F80116A2B7
:101200000F900F90DF91CF911F910F91FF90EF9072
:1012100008958F929F92AF92BF92CF92DF92EF92FA
:10122000FF920F931F93CF93DF9300D0CDB7DEB71C
:10123000962ED42E822EFC01EF5BFE4FC0805C0107
:101240002BEBA21A2EEFB20AF501E080F18001E04B
:1012500010E020E030E0AE014E5F5F4F8C2D0E9429
:10126000AA06892BA9F42A812D2128292A83F50190
:10127000E080F180298301E010E020E030E0AE0161
:101280004F5F5F4F692D8C2D0E948705892B81F060
:101290008CEE0F900F90DF91CF911F910F91FF90E7
:1012A000EF90DF90CF90BF90AF909F908F90089578
:1012B00080E0EFCFEF92FF920F931F93FC01EB5B67
:1012C000FE4FE080F1808F5B9E4F01E010E020E058
:1012D00030E0FC0180810E94AA06892B31F08CEE5F
:1012E0001F910F91FF90EF90089580E0F9CFEF925A
:1012F000FF920F931F93CF93DF931F92CDB7DEB76B
:101300007C0100E041E06BE0C7010E94F205182F6C
:1013100040E06BE0C7010E94F205182BAE014F5F61
:101320005F4F63E1C7010E945A09812B0F5F9981CA
:10133000977061F0033061F0882321F30F90DF9103
:10134000CF911F910F91FF90EF9008950330B1F767
:1013500084EFF4CF9F92AF92BF92CF92DF92EF9241
:10136000FF920F931F93CF93DF931F92CDB7DEB7FA
:101370007C015B016A01922E198241E06FEF0E94AD
:10138000F205182F40E060E0C7010E94F205182B1B
:1013900040E06FEFC7010E94F205182B992031F051
:1013A000A5016BECC7010E945A09182B002341F0DC
:1013B000AE014F5F5F4F6EEEC7010E945A09182BB6
:1013C00041E06FEFC7010E94F205182B41E060E099
:1013D000C7010E94F205182B40E06FEFC7010E9481
:1013E000F20599819F7EF6019083812B0F90DF910A
:1013F000CF911F910F91FF90EF90DF90CF90BF9012
:10140000AF909F9008950F931F93CF93DF931F92F8
:10141000CDB7DEB78A01AE014F5F5F4F613081F01B
:1014200060E50E945A09811105C099819F5F990F5B
:10143000F80190830F90DF91CF911F910F91089544
:1014400060E7EFCFCF92DF92EF92FF921F93CF939F
:10145000DF931F92CDB7DEB77C0140E063E80E94C6
:10146000F205182F811117C0D12CC12CAE014F5F8E
:101470005F4F63E8C7010E945A09182F89818111C3
:101480000AC0111108C08FEFC81AD80A88ECC81614
:10149000D10461F719EF41E063E8C7010E94F2054A
:1014A000812B0F90DF91CF911F91FF90EF90DF90F4
:1014B000CF900895CF92DF92EF92FF920F931F93F8
:1014C000CF93DF931F92CDB7DEB77C0110E000E031
:1014D0006C018EECC80ED11CF6018081AE014F5F0D
:1014E0005F4F8430A9F463E1C7010E945A099981D2
:1014F000292F2770987111F58823D9F00F90DF916B
:10150000CF911F910F91FF90EF90DF90CF900895B2
:1015100064E1C7010E945A098111F0CF998190FDC1
:10152000EDCF0F5F1F4F083C110531F00E9478018D
:10153000D3CF2430B1F7E2CF89EFE0CF8AEFDECF0F
:10154000CF93DF93EC01462F416060E00E94F205EB
:10155000811111C0CE010E945A0A81110CC0CE0126
:101560000E947709811107C040E060E0CE01DF9161
:10157000CF910C94F205DF91CF9108950F931F93B3
:10158000CF93DF931F92CDB7DEB78B011982AE01E7
:101590004F5F5F4F61E00E945A09811116C0998127
:1015A00094FB332730F9F801308393FB332730F96C
:1015B000328392FB332730F9318396FB222720F9BF
:1015C0002383991F9927991F94830F90DF91CF91BF
:1015D0001F910F9108952F923F924F925F926F92B9
:1015E0007F928F929F92AF92BF92CF92DF92EF92B3
:1015F000FF921F93CF93DF93CDB7DEB72B970FB634
:10160000F894DEBF0FBECDBF6C011A011B861F828E
:101610001E82623009F06EC0AE01465F5F4F60E02F
:101620000E94030A182F811108C0AE01455F5F4F69
:1016300066E4C6010E945A09182FAA85B0E020E08E
:101640003FE24AE350E00E9437242B013C0124EFA3
:10165000420E21E0521E611C711CCB84D12CF12C56
:10166000E12C8FEFC81AD80AE80AF80A98EE892EFA
:1016700093E0992EA12CB12CC301B201A5019401D4
:101680000E940024CA01B901A70196010E94DC232F
:101690006B017C01C301B20120ED37E040E050E076
:1016A0000E940024C701B601620F731F841F951F9B
:1016B000A50194010E940024F1012083318342831B
:1016C0005383812F2B960FB6F894DEBF0FBECDBF8C
:1016D000DF91CF911F91FF90EF90DF90CF90BF905F
:1016E000AF909F908F907F906F905F904F903F90C2
:1016F0002F900895633009F043C0AE01465F5F4FFD
:1017000060E00E94030A182F20E030E0A901811157
:10171000D3CFAE01465F5F4F60E0C6010E94030A6F
:10172000182F811108C0AE014A5F5F4F61E5C60105
:101730000E945F08182FEE81FF81AA85B0E020E0AB
:101740003FE24AE350E00E9437242B013C0124EFA2
:10175000420E21E0521E611C711C6F01DD24F12C30
:10176000E12C04C0CC0CDD1CEE1CFF1CFA95D2F75A
:101770008FEFC81AD80AE80AF80AEE24FF2476CFB9
:10178000BE016F5F7F4F0E94BE0A8C81882351F19A
:10179000AE01465F5F4F60E0C6010E94030A182F4A
:1017A000F12CE12C81111BC0AE014A5F5F4F61E556
:1017B000C6010E945F08182F2E813F81C901992719
:1017C000B0E0A0E004C0880F991FAA1FBB1F3A9584
:1017D000D2F70196A11DB11D7C01112329F0D12C56
:1017E000C12C25C0F12CE12CAE01465F5F4F61E0BA
:1017F000C6010E94030A182F8111F1CFAE01485F84
:101800005F4F61E7C6010E945F08182F2885398560
:10181000C9019927B0E0A0E004C0880F991FAA1F52
:10182000BB1F3A95D2F70196A11DB11D6C01AA8587
:10183000B0E020E03FE24AE350E00E9437242B0171
:101840003C01E4EF4E0EE1E05E1E611C711C88EE6F
:10185000882E83E0982EA12CB12CC301B201A501E2
:1018600094010E940024D601AE19BF090E943724BA
:101870000FCF4F925F926F927F92BF92CF92DF9283
:10188000EF92FF920F931F93CF93DF9300D000D07E
:10189000CDB7DEB78A01AE014F5F5F4F0E94EB0A02
:1018A000B82E81112AC069817A818B819C8128EEB2
:1018B000422E23E0522E612C712CA30192010E9432
:1018C000002469017A019B01AC01AFEFBFEF0E94D8
:1018D00037246C507E4F8F4F9F4FA30192010E947F
:1018E00000247601DD24CC24C20ED31EE41EF51E96
:1018F000F801C082D182E282F3828B2D0F900F908B
:101900000F900F90DF91CF911F910F91FF90EF906B
:10191000DF90CF90BF907F906F905F904F90089531
:101920005F926F927F928F929F92AF92BF92CF926F
:10193000DF92EF92FF920F931F93CF93DF93CDB778
:10194000DEB761970FB6F894DEBF0FBECDBF7C0146
:101950008B01FC018089FB018083AE014A5F5F4FF0
:1019600068EFC7010E945F08582E81113AC1AE018D
:101970004F5F5F4F64E0C7010E941608582E811127
:1019800030C12E813F812115310569F050E040E0E2
:1019900069817A818B819C810E940024F8012683D1
:1019A000378340875187F80186819781A085B1856B
:1019B000F701868B978BA08FB18FF8011286AE014D
:1019C0004F5F5F4F60E2C7010E945F08582E811190
:1019D00008C189819A81009709F01AC1F701858DA4
:1019E000968DA78DB0A1F80185879687A787B08BC4
:1019F000F701128EAE014F5F5F4F68E2C7010E9490
:101A00005F08582E8111EDC089819A819F708115E0
:101A1000F8E09F0708F090514AEF489F9001499FD6
:101A2000300D1124C901330FAA0BBB0BF801818BB8
:101A3000928BA38BB48B5801F1E2AF0EB11C47011E
:101A400025E2820E911C380185E1680E711CD12CB3
:101A5000C12CA501B601C7010E949508582E81111D
:101A6000C0C0F40181914F01F30181933F01FFEF69
:101A7000CF1ADF0A24E0A20EB11C86E0C816D104FA
:101A800041F7AE014F5F5F4F61E0C7010E945A0905
:101A9000582E8111A6C08981F701E35EFE4F808335
:101AA00087FFCAC081E0F80181AFF80181ADF7017D
:101AB000E75BFF4F808380ED97E0A0E0B0E08A878E
:101AC0009B87AC87BD871E821F821886198686E396
:101AD0009BE0A0E0B0E0F80182839383A483B58308
:101AE000BE016F5F7F4FC7010E94BE0A582E811151
:101AF00078C08981811107C08A81811104C08B81DE
:101B0000882309F43EC0AE01465F5F4F62E0C70123
:101B10000E94EB0A8111C1C089818823A9F08A85BE
:101B20009B85AC85BD85825B9D4FAF4FBF4FF80154
:101B30004281538164817581840F951FA61FB71F51
:101B400082839383A483B5838B81882309F477C030
:101B50008A859B85AC85BD858E549D4FAF4FBF4F09
:101B6000880F991FAA1FBB1FF8014281538164810E
:101B70007581840F951FA61FB71F82839383A4834B
:101B8000B5838C81811168C08D81882301F1AE01FC
:101B9000425F5F4F64E0C7010E94EB0A8E849F841E
:101BA000A888B988F6E28F0EF2E09F1EA11CB11C36
:101BB000F8014281538164817581480D591D6A1D68
:101BC0007B1D4283538364837583811166C0F80152
:101BD00082819381A481B581F701828B938BA48B41
:101BE000B58B852D61960FB6F894DEBF0FBECDBFC5
:101BF000DF91CF911F910F91FF90EF90DF90CF90E9
:101C0000BF90AF909F908F907F906F905F9008955E
:101C100033E0880F991F3A95E1F7B0E0A0E0F801B2
:101C200085879687A787B08BF701858F968FA78FBB
:101C3000B0A381E0828FDECEF80111AE36CF8A816B
:101C4000882309F49ECF8A859B85AC85BD858C56FB
:101C50009D4FAF4FBF4F88CFAE014A5F5F4F63E0EC
:101C6000C7010E94EB0A8E809F80A884B984F4E9A2
:101C70008F0EF2E09F1EA11CB11CF801428153811E
:101C800064817581480D591D6A1D7B1D42835383F4
:101C900064837583882309F477CF582EA2CF2F92BF
:101CA0003F924F925F926F927F928F929F92AF92EC
:101CB000BF92CF92DF92EF92FF920F931F93CF9339
:101CC000DF93CDB7DEB769970FB6F894DEBF0FBECE
:101CD000CDBF00ED17E020E030E00B871C872D879B
:101CE0003E871F86188A198A1A8A40322EE45207C4
:101CF00061057105E0F45CEFB52E8B2D69960FB68A
:101D0000F894DEBF0FBECDBFDF91CF911F910F9131
:101D1000FF90EF90DF90CF90BF90AF909F908F900B
:101D20007F906F905F904F903F902F9008954E8BD3
:101D30005F8B688F798F8C01BE016A5F7F4F0E9435
:101D4000BE0AB82E8111D9CFCE88DF88E88CF98CF5
:101D500088EEC81A88E0D80AE108F1088E8181115E
:101D600006C08F81811103C088858823C1F1AE012F
:101D7000455F5F4F62E0C8010E94EB0A81110AC112
:101D80008E81882391F08B859C85AD85BE85825B95
:101D90009D4FAF4FBF4F8C159D05AE05BF0508F099
:101DA000AACFC81AD90AEA0AFB0A8885882309F447
:101DB00071C08B859C85AD85BE858E549D4FAF4F80
:101DC000BF4F880F991FAA1FBB1F8C159D05AE051D
:101DD000BF0508F090CFC81AD90AEA0AFB0A89851C
:101DE0008823D9F0AE01415F5F4F63E0C8010E94D4
:101DF000EB0A4F85588969897A894C565D4F6F4F38
:101E00007F4F4C155D056E057F0508F074CF81117D
:101E1000C1C0C41AD50AE60AF70A8A85882309F4DC
:101E20006CCFBE016F5F7F4FC8010E94BE0A8C81DC
:101E30008823E9F1AE014B5E5F4F60E0C8010E946C
:101E4000030AB82E81111CC0AE014D5E5F4F61E5E3
:101E5000C8010E945F08B82E8B899C891C0133241D
:101E6000512C412C04C0220C331C441C551C9A9547
:101E7000D2F79FEF291A390A490A590ABB20C9F03B
:101E80008E899F89A88DB98DF801828B938BA48B45
:101E9000B58B33CF8F81882309F4A1CF8B859C85A7
:101EA000AD85BE858C569D4FAF4FBF4F8ECF312C29
:101EB000212CAE014B5E5F4F61E0C8010E94030A16
:101EC000B82E8111DDCFA6E2CA1AA2E0DA0AE10833
:101ED000F108AD89B0E020E03FE24AE350E00E9423
:101EE00037244B015C01B4EF8B0EB1E09B1EA11CAB
:101EF000B11CA8EEB3E0A70196010E9437242B0184
:101F00003C01C501B40120ED37E040E050E00E9403
:101F10000024420E531E641E751EC501B40128EE36
:101F200033E040E050E00E940024C301B2010E946F
:101F30000024220E331E21143104E1F04101B12CA2
:101F4000A12CE1E08E1A9108A108B10890E080E090
:101F5000B501A4014427452B462B472B31F0B694FD
:101F6000A794979487940196F3CF982F88271C0104
:101F7000280C391CA10161E7C8010E94C805B82ED0
:101F800081117ECFF801E153FF4FC082D182E282FE
:101F9000F38276CFB82EB1CE7F928F929F92AF927E
:101FA000BF92CF92DF92EF92FF920F931F93CF9346
:101FB000DF931F92CDB7DEB77C015B016A01722E01
:101FC0004C0183EE881A8EEF980AF4011081198271
:101FD00041E061E0C7010E94F20581114AC060E45E
:101FE000C7010E94A00A811144C0F1E07F121AC00B
:101FF00000E021E0AE014F5F5F4FB501C7010E94D5
:10200000AA09882389F00F90DF91CF911F910F913A
:10201000FF90EF90DF90CF90BF90AF909F908F9008
:102020007F900895F501108242E061E0C7010E94AF
:10203000F205811124C060E0C7010E94A00A81114D
:102040001EC0F1E07F1218C001E020E0A601BE0131
:102050006F5F7F4FC7010E94AA098111D4CF412F22
:1020600061E0C7010E94F2058111CDCFF401108318
:10207000CACFF5011082C7CFF6011082F0CFF6016A
:10208000F9CF2F923F924F925F926F927F928F92F1
:102090009F92AF92BF92CF92DF92EF92FF920F93F7
:1020A0001F93CF93DF93CDB7DEB7EC970FB6F894BD
:1020B000DEBF0FBECDBF6C015B01DC0150961C92F0
:1020C00041E060E80E94F20541E06FEFC6010E9426
:1020D000F20540E060E0C6010E94F205F601E95D0C
:1020E000FE4F408161E9C6010E94F20541E060E0D7
:1020F000C6010E94F20540E06FEFC6010E94F205A2
:1021000040E060E8C6010E94F20541E060E0C601DF
:102110000E94F205811116C091E09983412C512C47
:102120003201BFEF4B1A5B0A6B0A7B0A998190FF61
:102130002AC08111B6C2E8EC4E1651046104710444
:10214000D1F489EFEC960FB6F894DEBF0FBECDBF89
:10215000DF91CF911F910F91FF90EF90DF90CF9083
:10216000BF90AF909F908F907F906F905F904F90B7
:102170003F902F900895AE014F5F5F4F60E0C60122
:102180000E945A09CECFF8EC4F1651046104710435
:10219000C1F28111D7CFC6010E945A0A8111D2CF54
:1021A00083E0F601E15EFE4F8083B696E080F18029
:1021B0000CE010E020E030E0AE01465E5F4F64E1ED
:1021C000349780810E94AA06892B11F08CEEBACF39
:1021D000D50156961C925697F501108211821282F3
:1021E00013826CA170E0762F66272DA1620F711DFE
:1021F00014961D921D921D921C921797E9A1F0E072
:10220000FE2FEE27FF0F2F01712C612C1C964D9293
:102210005D926D927C921F978BA190E0982F8827FA
:10222000990F8C0130E020E050960D931D932D9373
:102230003C9353970C8D10E0102F00272D8D7801C3
:10224000E20EF11CFCAEEBAE5596FC92EE9254976A
:102250009A8CD601A75CBE4F2D913C9111975B974C
:102260008C90283E03E03007E9F1629FC001639F34
:10227000900D729F900D11248C509E4F68EE73E06C
:102280000E94EC23D6015D96ED90FD900D911C917E
:1022900090975A962C91222329F12BAD3CAD2E9D7F
:1022A000A0012F9D500D3E9D500D1124452F552707
:1022B000E417F50741F460EE7AE8882009F4E3C0FA
:1022C00068EB72E212C09F01DB010E9428248301A7
:1022D0007F01E41AF50A01091109A80197010E947A
:1022E0000024B901882009F4CEC0CB0196958795CA
:1022F00096958795D50119969C938E93189762951C
:10230000660F660F607C57966C931FA61EA6892DDC
:1023100090E07C0173E0F594E7947A95E1F7FAAEEA
:10232000E9AE09AD0F70902E09F4B2C089AD8D7081
:1023300011E018AB853029F084EF800F843008F06D
:1023400018AA41E06FEFC6010E94F205811107C093
:10235000AE01425D5F4F66EBC6010E945F089EA51D
:1023600020E0392F330F790110E000E0E9AAFAAA42
:102370000BAB1CAB811105C040E06FEFC6010E94A2
:10238000F205F601EE5CFE4FE9A8FAA80BA91CA91C
:10239000E082F18202831383811178C1D601959680
:1023A0008C909597882009F47FC0F501E484F5842A
:1023B000068517855A968C9120E030E0A901882384
:1023C00099F0A489B589F601258D368D478D50A1E8
:1023D0000E9437249B01AC0120583F4F4F4F5F4F65
:1023E000232F342F452F55272E0D3F1D401F511FE2
:1023F000A8EEB3E00E94372470588F4F9F4FBC0166
:1024000088279927F601E65DFE4F672B682B692B1D
:1024100009F041C08EEA97E8AFE8B2E0808391838B
:10242000A283B3831EEAE12E17E8F12E0FE812E033
:10243000EDAAFEAA0FAB18AFD5011B961C921E92F7
:102440001A97AE01465D5F4F70E060E0C6010E94E2
:1024500095084AA55BA56CA57DA5411551056105AB
:10246000710559F0FF24F3940DA91EA92FA938ADC9
:10247000401751076207730708F0F12C8823A9F071
:10248000212C312C07C1F50171876087178A3DCF58
:1024900001E008AB56CF10821182128213821DAA6E
:1024A0001EAA1FAA18AEC8CFF12CD60197963C9051
:1024B000332009F4C5C0AE014A5D5F4F62E070E0B1
:1024C000C6010E9495084EA15FA168A579A5411596
:1024D00051056105710559F0EE24E39409A91AA983
:1024E0002BA93CA9401751076207730708F0E12C9C
:1024F000212C90E0811132C0D60198962C90222098
:1025000009F4A4C00BAD1CAD0115110509F49AC066
:10251000962D852D742D6627980150E040E00E948D
:10252000002429013A01AE014F5F5F4F63E070E084
:10253000C6010E94950849815A816B817C814115B1
:1025400051056105710531F091E0441655066606A6
:10255000770608F090E0882309F479C0D5011B962E
:102560001C921E921A9780E0811002C0FF24F394FF
:10257000F60136A1F3A6F4E09F1609F4B0C021E0FD
:10258000311120E0D6019C962C93311002C0EE242C
:10259000E394F601E5A6211001C091E0D6019E96D4
:1025A0009C93F501808F9601265B3F4F99E1F901DD
:1025B000DE01119601900D929A95E1F7D5011896DA
:1025C000ED91FC91199757969C9157971A966D919A
:1025D0007C911B971C96ED90FD900D911C911F977F
:1025E00050964D905D906D907C90539754964D9180
:1025F0005C91559714968D909D90AD90BC901797D7
:102600008D829E82AF82B886FA87E9877C876B8746
:10261000ED86FE860F87188B498A5A8A6B8A7C8AD8
:102620005E8B4D8B988F898F89E1FE013196D901A0
:1026300001900D928A95E1F7C6010E94770982CD3B
:10264000E12C5ACF412C512C32016DCF90E018A9CA
:102650008FEF113009F488CF890D8330F0F026E038
:10266000921639F139E0931621F189AD8D708830D9
:10267000B1F041E0E41699F054E0951639F191304B
:1026800001F1F41601F19F2DEF2C68CF212C312C94
:10269000812CF12C90E0E12C61CF85E065CF83E0C7
:1026A00063CFB8EC4B1651046104710409F04ACDB4
:1026B00048CD84E081105CCFF60136A121E023A74C
:1026C0005ECF82E0F7CFE92E81E0F4CF82E0811087
:1026D0004FCF81E0D6019B968C93E12C82E021E0E4
:1026E00051CFAF92BF92DF92EF92FF920F931F9361
:1026F000CF93DF93CDB7DEB769970FB6F894DEBFFF
:102700000FBECDBF8C015B017C0183EEE81A8EEF1A
:10271000F80AF701D08040EC61E0C8010E94F205A0
:10272000811126C0BE016F5F7F4FC8010E9441101A
:1027300081111EC041E06FEFC8010E94F2058111B6
:1027400017C0A50166EBC8010E945F08811110C087
:1027500040E06FEFC8010E94F205811109C04D2DC4
:1027600061E0C8010E94F205811102C0F701D08228
:1027700069960FB6F894DEBF0FBECDBFDF91CF9143
:102780001F910F91FF90EF90DF90BF90AF90089551
:102790002F923F924F925F926F927F928F929F9271
:1027A000AF92BF92CF92DF92EF92FF920F931F935F
:1027B000CF93DF93CDB7DEB7AC970FB6F894DEBFFB
:1027C0000FBECDBF1C017FA36EA359A748A71F82D0
:1027D000188619861A861B861C861D861E86198AEF
:1027E0001A8AFC01E85DFE4F20813181398F288FE4
:1027F000AC014F5E5E4F5B8F4A8FDA011C922C0159
:10280000BEEE4B1ABEEF5B0AF20110823C01FDEEF8
:102810006F1AFEEF7F0AD3011C92FC01EC5EFE4FA3
:102820001082319610823196108241E06FEF0E9443
:10283000F2058B8B81111DC140E06FE4C1010E9444
:10284000F2058B8B811115C14CE26EE4C1010E942F
:10285000F2058B8B81110DC140E06FEFC1010E9429
:10286000F2058B8B811105C144EB66EBC1010E941F
:10287000F2058B8B8111FDC040E060E8C1010E9430
:10288000F2058B8B8111F5C020E0AE014E5E5F4FEB
:10289000BE016F5E7F4FC1010E94CC0F8B8B8111F7
:1028A000E8C01F82188619861A86F101E95EFE4F7C
:1028B000FD8FEC8F9E01295F3F4F4901A3E0AA2EB7
:1028C000B12CC12CD12CE12CF12C87012A8D3B8D10
:1028D000AF0160E0C1010E9431078B8B8111C9C03B
:1028E0004F81588569857A854C8B5D8B6E8B7F8B8C
:1028F000BE01615F7F4FC1010E9471138B8B8111FB
:10290000B8C08F859889688D798D6817790708F028
:10291000D3C0AA8DBB8D1C92F2011082D3011C92F0
:102920003296108231961082319610828C899D8960
:10293000AE89BF898C549F4FAF4FBF4FE6E0B6952D
:10294000A79597958795EA95D1F7880F991F880FD6
:10295000991F8A5F9D4FFC0180819181A281B38183
:10296000892B8A2B8B2B91F42C893D894E895F8989
:102970002C3231054105510548F42F5F3F4F4F4F31
:102980005F4F2C8B3D8B4E8B5F8BD0CFAE01495F61
:102990005F4F4A0173E0A72EB12CC12CD12CEC88DB
:1029A000FD880E891F892A8D3B8D4C8D5D8D61E0E0
:1029B000C1010E943107811159C16F8178858985D4
:1029C0009A856C8B7D8B8E8B9F8BBE01615F7F4F59
:1029D000C1010E947113811149C18F859889A88D09
:1029E000B98D11E063E0462E512C612C712CA81793
:1029F000B90720F010E0412C512C3201C12CD12C10
:102A00007601C39460C0D501C4010196A11DB11D1A
:102A10008C8B9D8BAE8BBF8B86E0EAA5FBA5ACA50E
:102A2000B02F01900D928A95E1F74E8C5F8C68A0D3
:102A300079A04AA35BA36CA37DA36FC04E8C5F8C6F
:102A400068A079A0AEA1BFA14D925D926D927C92DB
:102A50001397E8A5F9A51083F101EC5FFE4F81E023
:102A6000808332978C918083A8A5B9A58C913196EB
:102A700080838B89AC960FB6F894DEBF0FBECDBFB6
:102A8000DF91CF911F910F91FF90EF90DF90CF904A
:102A9000BF90AF909F908F907F906F905F904F907E
:102AA0003F902F900895BEECBB8BE3CFEEECEB8B09
:102AB000E0CFFEECFB8BDDCF10E0412C512C32013E
:102AC000C12CD12C76018F859889288D398D82175C
:102AD000930708F0B7CF46E0EA8DFB8D9E012F5F8C
:102AE0003F4FD90101900D924A95E1F7E88DF98D9C
:102AF0008E1B9F0BAC0170E060E04AA35BA36CA34C
:102B00007DA353E0452E512C612C712CB1016F5ED9
:102B10007E4F7BA76AA72CA7032F9E01255F3F4FFF
:102B20004C895D896E897F898C8D9D8D0E94A00165
:102B30008B849C84AD84BE847FEF87169706A7069E
:102B4000B70609F4B0CFD301C2010196A11DB11D92
:102B50008E8F9F8FA8A3B9A3D501C4018C549F4F1A
:102B6000AF4FBF4F36E0B695A795979587953A95A5
:102B7000D1F7880F991F880F991F8A5F9D4F11E029
:102B8000FC0180819181A281B381892B8A2B8B2BBF
:102B900009F410E0812F90E0B0E0A0E08C159D05D5
:102BA000AE05BF0509F082CFD501C40123E0B6957B
:102BB000A795979587952A95D1F7B501A4014770F8
:102BC00055276627772786309105A105B10508F0BE
:102BD00070CFEA8DFB8DE80FF91F21E030E001C0D6
:102BE000220F4A95EAF78081822B80836A8D7B8D44
:102BF000C1010E941A06811139C0BE01615F7F4F79
:102C0000C1010E947113811131C08F859889288D6F
:102C1000398DAC01421B530B8217930711F450E01E
:102C200040E070E060E0A88DB98DA817B90708F002
:102C3000EACE8AA19BA1ACA1BDA184179507A607E6
:102C4000B70708F0FBCEBE016F5F7F4FC1010E9446
:102C50001A0696E0FE013196D101AF5EBE4F01909B
:102C60000D929A95E1F7882309F4ECCE8B8B01CF76
:102C70009F92AF92BF92CF92DF92EF92FF920F930B
:102C80001F93CF93DF93CDB7DEB7A0970FB6F8941D
:102C9000DEBF0FBECDBF6C012FEDC20ED11CF60101
:102CA000A080F7E0F12CAF1609F4EEC0B62E8C012F
:102CB00041E060E80E94F205F82E41E06FEFC801A4
:102CC0000E94F205F82A40E060E0C8010E94F20587
:102CD000F82A46E06FEFC8010E94F205F82AAE011B
:102CE000425E5F4F63E8C8010E945A09F82A4E8D80
:102CF000446063E8C8010E94F205F82A47E06FEFDC
:102D0000C8010E94F205F82A41E061E8C8010E946A
:102D1000F205F82A0E947801F82A41E060E8C8012B
:102D20000E94F205F82A21E0B212C1C0A0FC02C242
:102D30004BE664E9C8010E94F205E82EC8010E9432
:102D4000220A8E29F82AAE01465E5F4F60E9C8016B
:102D50000E941608F82A8A8D9B8DAC8DBD8D992E08
:102D6000E89497F897FBEE24E0F844E264E9C801A0
:102D70000E94F205F82AC8010E94220AF82AAE0130
:102D8000465E5F4F60E9C8010E941608F82A8A8DE6
:102D90009B8D2C8D3D8D3C8B2D8B9E8B8F8B45E29F
:102DA00064E9C8010E94F205F82AC8010E94220ABB
:102DB000F82AAE01465E5F4F60E9C8010E9416081E
:102DC000F82A8C8D9D8D988F898F40E061E8C8012D
:102DD0000E94F205F82A46E06FEFC8010E94F20552
:102DE000F82AAE01425E5F4F63E8C8010E945A09AB
:102DF000F82A4E8D4B7F63E8C8010E94F205F82A3D
:102E000041E06FEFC8010E94F205F82A41E060E05E
:102E1000C8010E94F205F82A40E06FEFC8010E9445
:102E2000F205F82A40E060E8C8010E94F205F82A9D
:102E300059F5F1E0BF1699F0A1FC23C0F801E0526A
:102E4000FF4F8F8D8083319688A18083BE016F5F95
:102E50007F4FC8018E519F4F0E94422412C0A0FC98
:102E600010C0F801EE5FFE4F90823196E082DE01E5
:102E700054967496035E1E4F8D9181930E171F0713
:102E8000D9F7BA28F601B0828F2DA0960FB6F89424
:102E9000DEBF0FBECDBFDF91CF911F910F91FF908D
:102EA000EF90DF90CF90BF90AF909F900895A1FCDE
:102EB00041C142E064E9C8010E94F205E82EC80160
:102EC0000E94220A8E29F82AAE01415E5F4F60E916
:102ED000C8010E945A09F82A4BE764E9C8010E9418
:102EE000F205F82AC8010E94220AF82AAE01405EC3
:102EF0005F4F60E9C8010E945A09F82A47E764E970
:102F0000C8010E94F205F82AC8010E94220AF82A84
:102F1000AE01465E5F4F60E9C8010E941608F82ABC
:102F20004A8D5B8D6C8D7D8DDB01CA0129E1B695E3
:102F3000A795979587952A95D1F78983DB01CA01D3
:102F400032E1B695A795979587953A95D1F78F7702
:102F50008A83DB01CA01EBE0B695A7959795879523
:102F6000EA95D1F78F778B83DB01CA01F4E0B69540
:102F7000A79597958795FA95D1F78F778C83440F0E
:102F8000440F440F48774E8F48E764E9C8010E9418
:102F9000F205F82AC8010E94220AF82AAE01465E0C
:102FA0005F4F60E9C8010E941608F82A8A8D9B8D40
:102FB000AC8DBD8DAC01BD012DE176956795579522
:102FC00047952A95D1F72E8D240F2D83AC01BD0195
:102FD00036E176956795579547953A95D1F74F77AE
:102FE0004E83AC01BD01EFE0769567955795479507
:102FF000EA95D1F74F774F83292F2F772887AC0198
:10300000BD0176956795579547954F774987982FD6
:103010009295990F990F90749E8F49E764E9C801C2
:103020000E94F205F82AC8010E94220AF82AAE017D
:10303000465E5F4F60E9C8010E941608F82A8A8D33
:103040009B8DAC8DBD8DAC01BD012AE17695679558
:10305000579547952A95D1F72E8D240F2A87AC01D5
:10306000BD0133E176956795579547953A95D1F728
:103070004F774B87AC01BD01ECE07695679557958E
:103080004795EA95D1F74F774C87AC01BD01F5E044
:103090007695679557954795FA95D1F74F774D8770
:1030A000982F990F990F9C779E8F4AE764E9C80182
:1030B0000E94F205F82AC8010E94220AF82AAE01ED
:1030C000465E5F4F60E9C8010E941608F82A8A8DA3
:1030D0009B8DAC8DBD8DAC01BD012EE176956795C4
:1030E000579547952A95D1F72E8D240F2E87AC0141
:1030F000BD0137E176956795579547953A95D1F794
:103100004F774F872A2F2F77288BAC01BD01E9E03D
:103110007695679557954795EA95D1F74F77498BFF
:10312000F2E0B695A79597958795FA95D1F78F77A1
:103130008A8B1B8AE12C912C48CE2F923F924F9282
:103140005F926F927F928F929F92AF92BF92CF9237
:10315000DF92EF92FF920F931F93CF93DF93CDB740
:10316000DEB7C355D1090FB6F894DEBF0FBECDBF91
:10317000E0914805F0914905EF5BFE4F89E28083BD
:10318000E0914805F0914905EE5BFE4F81E08083B8
:10319000E0914805F0914905ED5BFE4F20E931E0F3
:1031A00031832083E0914805F0914905EB5BFE4FA8
:1031B00024EF33E031832083109258031092570399
:1031C000109281031092A30310927F0380937E03D9
:1031D0001092590382E00E94210283E00E942102A2
:1031E0008091B9008E7F8093B9008091B9008D7F66
:1031F0008093B90088E48093B80085E48093BC0094
:103200008DE892E090935603809355038EE892E008
:10321000909354038093530321E04EEF69E881E0DB
:1032200094E00E940909811106C040E068E881E04D
:1032300094E00E94F2052E018BE3480E511CA2017E
:1032400060EC81E094E00E945A091092E00488EE5C
:1032500093E090933B0580933A0580E991E0909349
:103260003D0580933C0585E89BE6A1E0B0E08093B6
:103270003E0590933F05A0934005B093410584EA35
:1032800090E7A9E0B0E08093C9049093CA04A093AA
:10329000CB04B093CC0410921E0410921F04109221
:1032A000200410922104FE0131962A96FFAFEEAF62
:1032B0002A97BF0181E094E00E94900C182F8111A1
:1032C0000BC019821A828AE3FE013196A1E1B4E0B3
:1032D00001900D928A95E1F784E690E090932305A2
:1032E0008093220584E893E090932505809324053C
:1032F00084EF91E0909327058093260580E09AE083
:1033000090932A058093290581E08093390541E057
:1033100060E881E094E00E94F205D82E41E06FEF72
:1033200081E094E00E94F205D82AD12A40E060E0D2
:1033300081E094E00E94F205D82AAE01415C5F4F23
:1033400061E981E094E00E945A09D82A8FAD809308
:10335000280541E060E081E094E00E94F205D82A6F
:1033600040E06FEF81E094E00E94F205D82A40E04F
:1033700060E881E094E00E94F205D82A10E000E0C5
:10338000FF24F394D110ADC10330110509F49CC0A2
:103390007CF401301105D9F00230110509F491C017
:1033A000F0922604F801E050FC4FF6A280E025C020
:1033B0000430110509F48BC020E04FEE05301105F3
:1033C00079F760E681E094E00E94090914C0409119
:1033D0003604509137046091380470913904B9E093
:1033E0007695679557954795BA95D1F764E481E04E
:1033F00094E00E94C8058823A9F20F5F1F4FD82EC2
:103400000630110509F0BECF81116EC0109228045C
:103410001092290422E04EEF60E681E094E00E94E1
:103420000909811161C010922A0420E14FEE60E683
:1034300081E094E00E940909811156C010922B048A
:1034400080E090E0A2E1B0E08093320490933304F6
:10345000A0933404B09335048091270481113AC0BD
:1034600080E090E4A0E0B0E08093360490933704CD
:10347000A0933804B093390480E090E0A3E2B0E078
:1034800080933A0490933B04A0933C04B0933D0492
:1034900010923E0410923F04109240041092410496
:1034A0008FEF80931E054FEF61E081E094E00E9472
:1034B000F20591E090932005811116C01092050548
:1034C00013C0F09228046ECFF09229046BCF20E055
:1034D0004EEF77CF40E250E064E481E094E00E9458
:1034E000C805882309F4BCCF8093000449E26AE848
:1034F00080914805909149050E94F205809300044F
:103500006AE070E080E090E00E9416048091000480
:10351000811184C1E0914805F0914905EF5BFE4FB0
:1035200089E2808362E081E094E00E943816811194
:103530002FC08091E1048111D6C06CE372E083E971
:1035400095E00E9442246DE372E083E595E00E94DD
:10355000422466E772E083E795E00E94422443EB51
:1035600055E060EC81E094E00E945A09811110C09E
:10357000AE014F5F5F4F62EC81E094E00E945A0918
:1035800091E09093B405998192959F709093B505C1
:1035900080930004811107C08091B505813019F036
:1035A0008BEF80930004809100048111CDC0609066
:1035B0004805709049058AE32A96EEADFFAD2A973B
:1035C00011928A95E9F725961FAE1EAE259728968B
:1035D0001FAE289727961FAE279723961CAE1DAEC9
:1035E0001EAE1FAE239761E0C3010E943816F3019F
:1035F000ED5FFE4F3080F1E0F31508F496C0F30163
:10360000EE5FFE4F2080A22CB12CD12CC12C81E08A
:10361000381284C091E2A916B104C104D10408F0A3
:1036200084C041E06FEFC3010E94F20581111AC00E
:1036300040E06FE4C3010E94F205811113C04CE227
:103640006EE4C3010E94F20581110CC040E06FEFEF
:10365000C3010E94F205811105C044EB66EBC30172
:103660000E94F20593012F5E3E4FF90110823196C0
:1036700010823196108231961082319610823196E6
:103680001082E12CF12C8701332009F4E2C0D8012B
:10369000C7018C549F4FAF4FBF4FF6E0B695A7952B
:1036A00097958795FA95D1F7880F991F880F991FDD
:1036B0008A5F9D4FFC0180819181A281B381892B1A
:1036C0008A2B8B2B09F0C5C0FCE2EF16F104010533
:1036D000110509F4BEC08FEFE81AF80A0F4F1F4F0B
:1036E000D6CF8D2D01CF1091E20463EE74E083E913
:1036F00095E00E944224112309F425CF133240F4AF
:1037000069E472E0103209F020CF65E572E01DCF68
:1037100061E672E0173208F018CFF7CFEDE0AE1691
:10372000B104C104D10408F47CCFAE014A5B5F4F01
:10373000BE01615C7F4FC3010E94C813B82EBB203D
:1037400009F49BC0B09200048091000481110EC066
:10375000AE014D5B5F4FBE016F5F7F4F80914805AB
:10376000909149050E94C813809300048091000441
:1037700081110DC021E0A201BE01615C7F4F8091EB
:103780004805909149050E94CC0F809300048091D8
:103790000004811126C0E0914805F0914905108A86
:1037A000E0914805F0914905FF24F394F5A20091BA
:1037B000480510914905F80145A956A967A970ADBA
:1037C00099E076956795579547959A95D1F764E472
:1037D000C8010E94C805811102C0F801F6A28093B9
:1037E000000480910004811115C0E0914805F0911A
:1037F000490581E080A7E0914805F0914905FD96D3
:1038000084ED98E0A0E0B0E080839183A283B3834D
:103810001092000481E090910004911180E0CD5A53
:10382000DF4F0FB6F894DEBF0FBECDBFDF91CF9153
:103830001F910F91FF90EF90DF90CF90BF90AF90CE
:103840009F908F907F906F905F904F903F902F90C0
:1038500008954201A301495E5E4F632DC3010E949A
:103860003107B82E81116BCF81E0F301EC5FFE4F81
:1038700080833297208231963082F301E85CFE4FDC
:1038800080818111C5C13297C080D18030E020E0B5
:103890004301FBEB8F1AFEEF9F0AC3018F5B9E4F24
:1038A0002C969FAF8EAF2C97F301ED5DFE4F2E96B9
:1038B000FFAFEEAF2E97809760969FAF8EAF609769
:1038C00032966296FFAFEEAF6297079664969FAF0F
:1038D0008EAF649703C0ECEFBE2E9101F601E20FAC
:1038E000F31F0081002309F484C0B1102BCF19010C
:1038F0009FEF291A390AD601A20DB31D6C910F3F13
:1039000009F04DC0190182E0280E311CD601A20D2C
:10391000B31D8C91613029F198F0623089F16330E8
:10392000D1F6190194E0290E311C238190E0982FE3
:103930008827820F911D6496EEADFFAD64970EC08F
:10394000190194E0290E311C238190E0982F8827DB
:10395000820F911D6096EEADFFAD609791838083DD
:10396000BCCF190194E0290E311C238190E0982FDF
:103970008827820F911D2E96EEADFFAD2E97EECFCC
:10398000190194E0290E311C238190E0982F88279B
:10399000820F911D6296EEADFFAD6297DFCF0530CD
:1039A00008F099CF2E5F3F4FD601A20FB31FF2014F
:1039B000202E312CCF0184199509821593051CF412
:1039C0008D918193F7CF220E331EF401E080F180B8
:1039D00010E030E020E0A2012C96EEADFFAD2C9778
:1039E00080810E948705892B09F477CF7CEEB72E62
:1039F00074CFB110A7CE44E06AE0C3010E94F20583
:103A0000B82E81119FCE20E04FEE64E8C3010E94E2
:103A10000909B82E811196CE84E0F301E253FF4FDD
:103A20008083C3010E947709B82E81118BCE41E0BB
:103A30006FEFC3010E94F205B82EAE014D5B5F4FE0
:103A400064E8C3010E945F08B82A40E06FEFC30139
:103A50000E94F205B82A09F075CEF301E853FF4F32
:103A600025968EAD9FAD259724E0880F991F2A9546
:103A7000E1F7B0E0A0E080839183A283B383BE012D
:103A80006F5F7F4FC3010E94900CB82E81115ACEF8
:103A9000AE01495B5F4F69E0C3010E945A09B82E2D
:103AA000811150CE28968FAD2897817028968FAFC0
:103AB0002897F301E25EFE4F80838AE3FE01319690
:103AC000D301509601900D928A95E1F7AE01495BC2
:103AD0005F4F61E0C3010E945A09B82E811132CEB6
:103AE0008301035E1E4F28968FAD2897F8018083CF
:103AF0001BAEA20161E0C3010E945A09B82E8111D8
:103B000021CE8BADF82EE894F4F884FF12C04F2D2F
:103B100061E0C3010E94F205B82E811113CEF801B5
:103B2000F082F3014289538964897589C3010E9437
:103B30004F0E1BAEA20161E0C3010E945A09B82ECC
:103B4000811100CE8BADF82EE894F2F882FF12C0FE
:103B50004F2D61E0C3010E94F205B82E8111F2CD14
:103B6000F801F082F3014289538964897589C301A0
:103B70000E944F0E83E0F301E15EFE4F8083AE01B1
:103B80004B5B5F4F60E0C3010E94030AB82E8111B6
:103B9000D9CD26968FAD2697F301E852FF4F80834B
:103BA000AE014B5B5F4F61E0C3010E94030AB82E78
:103BB0008111C8CD26968FAD2697F301ED52FF4FA8
:103BC0008083A20163E0C3010E94390CB82E8111E9
:103BD000B9CD8BAD9CADADADBEADF301EC52FF4F99
:103BE00080839183A283B383A20164E0C3010E9416
:103BF000390CB82E8111A6CDF301E153FF4F8BADE7
:103C00009CADADADBEAD80839183A283B3839ACDCD
:103C10008CE0C82E81E0D82E39CE1F920F920FB6BD
:103C20000F9211248F939F938091E1009091E10076
:103C3000937F9093E10083FF0FC01092E90091E021
:103C40009093EB001092EC0092E39093ED001092B1
:103C5000520398E09093F00082FF22C093E090938B
:103C6000E9009091F200992319F09AE39093E8000B
:103C700090912903992341F09091290391509093B9
:103C80002903911101C05D9890915103992341F04E
:103C900090915103915090935103911101C0289834
:103CA00084FF18C08091E2008E7E81608093E200E4
:103CB0008091E1008F7E8093E10080912A038E7EC7
:103CC000806180932A039F918F910F900FBE0F9078
:103CD0001F90189580FFF7CF8091E2008E7E806163
:103CE0008093E2008091E1008E7E8093E1008091DC
:103CF0002A038E7E8160E5CF1F920F920FB60F923E
:103D00001124CF92DF92EF92FF920F931F932F9384
:103D10003F934F935F936F937F938F939F93AF9353
:103D2000BF93EF93FF93CF93DF93CDB7DEB76C973D
:103D3000DEBFCDBF1092E9008091E80083FF25C06F
:103D400068E0CE0145960E94630382EF8093E8000D
:103D50008D8987FF39C09091E80090FFFCCF982FA4
:103D6000907609F034C19E894F89588D2F89F88C3F
:103D7000911131C0803861F580912B038093F1005F
:103D80001092F1008EEF8093E8006C960FB6F894D5
:103D9000DEBF0FBECDBFDF91CF91FF91EF91BF91FD
:103DA000AF919F918F917F916F915F914F913F91D3
:103DB0002F911F910F91FF90EF90DF90CF900F9078
:103DC0000FBE0F901F9018959EEF9093E800C7CFFD
:103DD0001092F100D5CF913059F48111D3CF4130F9
:103DE000510581F680912B038D7F80932B03CACFE1
:103DF000933049F48111C6CF4130510519F68091B5
:103E00002B038260F2CF953041F48091E80080FF6F
:103E1000FCCF20682093E300B5CF963009F0A9C00D
:103E20000B8D1C8D22E01092E90010922703109256
:103E30002603F2122EC010922503109224030E9432
:103E400032031F8299E09983FA8291E09E8390EA7F
:103E500098879AEF99872091260330912703275F4F
:103E60003F4F3C832B838D831092E90010922703F0
:103E700010922603109325030093240349E050E099
:103E8000BE016F5F7F4F80E00E940C030E943203EF
:103E900079CF10932503009324030E94CA02DC010A
:103EA00012960D911C910115110509F451C1D8010B
:103EB000ED91FC910480F581E02DBE016B5E7F4F9A
:103EC000C8010995009709F03EC1F80100851185E8
:103ED000EACFF3E0FF120EC08F89882309F440C0B7
:103EE000823061F440E86DE080E191E00E941722A9
:103EF000811148CF81E28093EB0047CF813029F4D4
:103F000040E86BE084E091E0F1CF833099F70E94C4
:103F1000CA02DC011296ED90FC908E010F5F1F4FDC
:103F20006801E114F10479F0D701ED91FC9106806C
:103F3000F781E02DB801C7010995080F111DF701A0
:103F4000E084F184EECFD8011C92F60101900020AC
:103F5000E9F73197BF016C197D0940E0C601C6CF72
:103F60006EEE70E0FB01449150E080E80E940C038B
:103F700009CF973009F4BECF983021F481E08093C7
:103F8000F10000CF993009F0FDCE837009F0B2CF77
:103F9000E0E0F2E081E031E096E32191222371F04C
:103FA0008093E9003093EB00DF0111972C9120936F
:103FB000EC009093ED008F5F873079F78EE7809368
:103FC000EA001092EA008F8980935203DBCE8B8D3A
:103FD0009C8D1092E9001092270310922603909373
:103FE000250380932403898D811192C08E899D8938
:103FF000913A49F4813209F07DCF47E050E064E026
:1040000071E080E0B3CF913209F074CF833269F46C
:104010008F89988DB0E0A0E080930001909301011A
:10402000A0930201B0930301ADCE803269F4809178
:10403000E80082FFFCCF67E084E091E00E94630328
:104040008BEF8093E8009ECE823209F09BCE8F8961
:1040500080930B01EEEFFFE7859194918B3F9C4D90
:1040600051F1E0E0F8E08091040190910501A09108
:104070000601B0910701803B9440A105B105F1F420
:1040800080910B0180FD1AC0EE3F8AE0F80789F5A8
:1040900087E797E79183808380916000809328036E
:1040A00088E19BE00FB6F894A895809360000FBE5E
:1040B0009093600067CEEEEFFAE0D5CF80819181DA
:1040C0008737974709F05ECEA89580916000886198
:1040D000809360008091280380936000EE3F2AE087
:1040E000F20789F08091FE0A9091FF0A9183808304
:1040F00049CE808191818737980751F29093FF0ACA
:104100008093FE0AC5CF1092FF0A1092FE0A3ACEA3
:104110000E94CA02DC0112960D911C910115110535
:1041200009F4E8CED801ED91FC910190F081E02DE9
:10413000BE016B5E7F4FC8010995811123CEF80146
:1041400000851185EBCF181619060CF41BCED2CEC4
:10415000F1E0FF12BECE62EF70E004CF1F920F922B
:104160000FB60F9211242F933F938F939F93AF938A
:10417000BF9380911C0390911D03A0911E03B091E9
:104180001F0330911B0323E0230F2D3758F50196B1
:10419000A11DB11D20931B0380931C0390931D034D
:1041A000A0931E03B0931F038091200390912103DD
:1041B000A0912203B09123030196A11DB11D80930C
:1041C000200390932103A0932203B0932303BF9174
:1041D000AF919F918F913F912F910F900FBE0F90B4
:1041E0001F90189526E8230F0296A11DB11DD2CF6E
:1041F0001F920F920FB60F9211242F933F934F935C
:104200005F936F937F938F939F93AF93BF93EF933E
:10421000FF938091B900887F803609F44AC0F0F599
:10422000883209F4A7C018F5803109F49BC0B8F4AE
:10423000882309F4F9C0883009F494C0FF91EF9104
:10424000BF91AF919F918F917F916F915F914F91AE
:104250003F912F910F900FBE0F901F9018958831AE
:1042600009F488C0803251F780937D0314C08034F4
:1042700009F49DC040F48033B9F38833F9F6809394
:104280007D0385ECB0C0803509F485C0883509F41C
:1042900096C0883499F60E94CD04D0CF883909F4AD
:1042A0008CC038F5883729F050F4883611F0803703
:1042B00029F683E080937F0310921A0357C0883851
:1042C00009F47BC0803919F0803809F0B7CF8091AC
:1042D0001A03803208F071C0E0911A0381E08E0F5A
:1042E00080931A038091BB00F0E0E650FD4F80837D
:1042F0003DC0803B39F0E0F4803A09F479C0883A57
:1043000009F09CCF84E080937F031092F902109211
:10431000F802E0915503F091560309958091F80257
:1043200081110FC081E08093F8021092D80209C079
:10433000803C09F4A6CF883C09F4A3CF883B09F060
:104340007DCFE091F90281E08E0F8093F902F0E0D9
:10435000E852FD4F80818093BB009091F9028091DB
:10436000F80229C080915A038093BB0085EC8093AA
:10437000BC0064CF90917C0380917B03981758F523
:10438000E0917C0381E08E0F80937C03F0E0E55A9E
:10439000FC4F8081E9CFE0917C0381E08E0F809318
:1043A0007C038091BB00F0E0E55AFC4F8083909144
:1043B0007C0380917B039817C8F285E8D8CFE09101
:1043C0007C0381E08E0F80937C038091BB00F0E042
:1043D000E55AFC4F808380917E0381115CCF81E0A0
:1043E0008093590384EA8093BC0010927F0326CF08
:1043F00085EC8093BC0010927F0380911A03803279
:1044000030F4E0911A03F0E0E650FD4F1082609125
:104410001A0370E0E0915303F09154038AEF92E0A5
:10442000099510921A030ACF10927D0334CFEF92B0
:10443000FF920F931F93CF93DF93F82E192FE62E41
:10444000042F81E0860F880F0E94DE0283E00E9425
:10445000DE02CF2DD12FEC0EFD2EF11CCE15DF0587
:10446000B9F007FF13C0FE0184910E94DE02182FED
:1044700080E00E94DE02812321968111EFCFDF913F
:10448000CF911F910F91FF90EF9008958881EDCF0C
:1044900081E0F5CFE4EAF3E01382128288EE93E044
:1044A000A0E0B0E084839583A683B7832AE132E05D
:1044B000318320832FEF3FEF35872487E4EFF3E04C
:1044C0001382128284839583A683B7838CE292E061
:1044D0009183808386EB91E0E0E0F4E0DF019C01D2
:1044E0001D9221503040E1F781E094E0909349051E
:1044F000809348058AE495E0909352058093510596
:104500000895789484B5826084BD84B5816084BD4B
:1045100085B5826085BD85B5816085BD80916E0061
:10452000816080936E001092810080918100826092
:1045300080938100809181008160809381008091CF
:1045400080008160809380008091910082608093E0
:104550009100809191008160809391008091900002
:104560008160809390008091C10084608093C1003D
:104570008091C10082608093C1008091C100816000
:104580008093C1008091C30081608093C3008091BB
:10459000C00082608093C0008091C20081608093DF
:1045A000C20080917A00846080937A0080917A00C2
:1045B000826080937A0080917A00816080937A0093
:1045C00080917A00806880937A0010925203109252
:1045D0002B0310922A038091D70081608093D7002B
:1045E00080EA8093D80089B5806189BD89B58260F1
:1045F00089BD09B400FEFDCF61E070E080E090E08D
:104600000E9416048091D8008F7C80618093D8002E
:104610008091E000807F8093E0008091E1008E7EB9
:104620008093E1008DE08093E200559A209A5D9896
:1046300028988FEF9FEF9093B1038093B003EEEA39
:10464000F1E02491EFE8F1E08491882399F090E083
:10465000880F991FFC01E25EFE4FA591B491FC0109
:10466000EC58FE4F859194918FB7F894EC91E22B22
:10467000EC938FBF8EE792E00E9439068AE392E0C6
:104680000E9439060E949D18811105C081E591E0C4
:104690000E948A06FFCF0E949D18882341F084E97A
:1046A00092E00E9439068AE392E00E9439068CE289
:1046B00091E00E948A06C8E6D1E000E010E08EE9B1
:1046C00092E00E9439066CE273E080914805909177
:1046D00049050E9441108091440360913403709118
:1046E0003503843011F460E070E86B01770FEE0859
:1046F000FF084AE0C701B601F7FE0DC06DE284EA8B
:1047000093E00E94700366277727CB016C197D091F
:104710008E099F094AE00E9446068AE392E00E94C1
:104720003906FE01849120917B00982F990F990FF3
:1047300090722F7D922B90937B0087708064809382
:104740007C0080917A00806480937A0080917A0066
:1047500086FDFCCF90917800809179008927982779
:1047600089276C01092E000CEE08FF0897FF20C076
:104770006DE284EA93E00E94700366277727CB01FD
:104780006C197D098E099F094AE00E9446068AE35A
:1047900092E00E9439066AE070E080E090E00E94BA
:1047A00016040115110509F48ACF0E94000087CF75
:1047B0004AE0C701B601E9CFDB018F939F930E94C6
:1047C0003724BF91AF91A29F800D911DA39F900DA3
:1047D000B29F900D11240895AA1BBB1B51E107C085
:1047E000AA1FBB1FA617B70710F0A61BB70B881F81
:1047F000991F5A95A9F780959095BC01CD01089510
:10480000A1E21A2EAA1BBB1BFD010DC0AA1FBB1FD4
:10481000EE1FFF1FA217B307E407F50720F0A21B46
:10482000B30BE40BF50B661F771F881F991F1A94B3
:1048300069F760957095809590959B01AC01BD01DD
:10484000CF010895EE0FFF1F0590F491E02D09941C
:10485000A29FB001B39FC001A39F700D811D1124C1
:10486000911DB29F700D811D1124911D08950E940C
:104870002824A59F900DB49F900DA49F800D911D9D
:1048800011240895FB01DC0101900D920020E1F755
:064890000895F894FFCF2B
:10489600FFFFFFFF00E100000000000001FF010133
:1048A600000001FF000109000110000111000124B0
:1048B600010125FF01750001FF01014E2C01480091
:1048C60001302001FF0001300901540001310401CB
:1048D6003203014083014625016000012700015093
:1048E6000601510001529601560801573001610038
:1048F6000162000164000165000166A001FF01017B
:1049060022320147140149FF014A0001FF00017AE2
:104916000A017B0001782101FF01012334014200D5
:104926000144FF014526014605014040010E0601EE
:10493600201A01434001FF0001340301354401FF01
:1049460001013104014B09014C05014D0401FF0031
:10495600014400014520014708014828016700017C
:1049660070040171010172FE01760001770001FFFA
:1049760001010D0101FF000180010101F801FF01A4
:10498600018E0101000101FF00018000000000000E
:10499600C180810000000A00000005000000000040
:1049A60000000500000000000000700348049103A9
:1049B6008603D7039503B3030000000055052805B9
:1049C6008405FE0421050E05FF040D0A00564C352C
:1049D600334C30582054533000564C35334C3058F5
:1049E6002054533100564C35334C305820545332F2
:1049F60000564C35334C305820455331206F7220C9
:104A06006C6174657200564C35334C305800416405
:104A160061667275697420564C35334C3058207473
:104A260065737400647720626F6F74656400526505
:104A36006164696E672061206D6561737572656D6D
:084A4600656E742E2E2E200077
:00000001FF
