:100000000C94D3000C94FB000C94FB000C94FB00AC
:100010000C94FB000C94FB000C94FB000C94FB0074
:100020000C94FB000C94FB000C9416060C949406A4
:100030000C94FB000C94FB000C94FB000C94FB0054
:100040000C94FB000C94FB000C94FB000C94FB0044
:100050000C94FB000C94FB000C94FB000C94C60861
:100060000C94FB000C94FB000C94FB000C94FB0024
:100070000C94FB000C94FB000C94FB000C94FB0014
:100080000C94FB000C94FB000C94FB000C94FB0004
:100090000C94FB000C94FB000C94FB000C94FB00F4
:1000A0000C94FB000C94FB000C94FB000706050469
:1000B0000100080A0B0C0D09080B000202020000E7
:1000C00009040000010202000005240010010524BB
:1000D000010101042402060524060001070581032D
:1000E00010004009040100020A0000000705020296
:1000F00040000007058302400000040309041201C8
:100100000002EF0201404123378000010102030198
:1001100041726475696E6F204C4C43004172647586
:10012000696E6F204D6963726F000000000024004B
:1001300027002A002D0030000000000025002800C4
:100140002B002E0031000404040404030405020201
:100150000202040302020202060606060606040460
:1001600002020204040408020110408040102040F2
:10017000804080080204018040201002011080109D
:10018000204040200000000200090F00000304018D
:10019000000C000000000000000000000000000053
:1001A00000000000100911241FBECFEFDAE0DEBF0F
:1001B000CDBF11E0A0E0B1E0E2E9F6E102C00590B8
:1001C0000D92A43BB107D9F722E0A4EBB1E001C046
:1001D0001D92AF32B207E1F710E0C3EDD0E004C0EA
:1001E0002197FE010E94410BC23DD107C9F70E9431
:1001F0008C090C94470B0C940000282F30E0F90177
:10020000EC57FE4F9491F901EB59FE4F84912A5B14
:100210003E4FF9012491222309F42DC09923E9F0DE
:1002200091509F30D0F4E92FF0E0E75EFE4F0C9440
:10023000410B4401480128013C0140012D012D01E1
:100240002D014B015101550159015F012D01630140
:10025000909180009F7790938000E22FF0E0EE0F66
:10026000FF1FE85CFE4FA591B4919FB7F894EC9105
:100270008E2B8C939FBF0895909180009F7DEBCF34
:1002800090918000977FE7CF94B59F7794BDE5CF9D
:1002900094B59F7DFBCF909190009F7790939000B5
:1002A000DCCF909190009F7DF9CF90919000977F47
:1002B000F5CF9091C0009F779093C000CECF9091E2
:1002C000C0009F7DF9CF9091C200977F9093C200AC
:1002D000C4CFCF93DF9390E0FC01EB59FE4F249104
:1002E0008A5B9E4FFC0184918823C1F090E0880FC7
:1002F000991FFC01E65DFE4FC591D491FC01E85CBD
:10030000FE4FA591B4919FB7F8948881E22FE095B4
:100310008E2388838C91E823EC939FBFDF91CF914C
:100320000895FC018091D201882311F13FB7F89420
:1003300082E08093E9002091F200822F90E018166D
:10034000190614F481E090E0882339F0289A44E6F5
:100350004093D1014091F1004083222339F0209154
:10036000F200211103C02BE62093E8003FBF08955F
:100370008FEF9FEF08958093E9008091F20088232A
:1003800019F08AE38093E80008954091CB015091E1
:10039000CC012091C9013091CA0142175307B4F42E
:1003A0009091E8009570E1F39091E80092FD19C0FA
:1003B0008093F1008091CB019091CC0101968F73D5
:1003C0009927892B19F48EEF8093E8008091CB0157
:1003D0009091CC0101969093CC018093CB0181E068
:1003E000089580E00895EF92FF920F931F93CF93AB
:1003F000DF93F82E192FE62E042F81E0860F880F49
:100400000E94C50183E00E94C501CF2DD12FEC0EC3
:10041000FD2EF11CCE15DF05B9F007FF13C0FE015C
:1004200084910E94C501182F80E00E94C50181239C
:1004300021968111EFCFDF91CF911F910F91FF9006
:10044000EF9008958881EDCF81E0F5CFDF92EF92B4
:10045000FF920F931F93CF93DF93D82E8A01EB0166
:100460007B01E40EF51ECE15DF0559F0D7FE12C054
:10047000FE0184910E94C50121968111F4CF0FEFF6
:100480001FEFC801DF91CF911F910F91FF90EF9067
:10049000DF9008958881EECF2FB7F894877080930E
:1004A000E9009091E800892F807295FF04C0909137
:1004B000F20080E4891B2FBF0895615030F0209135
:1004C000F100FC0120830196F8CF289A84E68093FE
:1004D000D10108958091C10181110DC082E0809306
:1004E000BD0184E08093BE011092C0011092BF0153
:1004F00081E08093C1018DEB91E008950F931F93EC
:10050000CF93DF931F92CDB7DEB782E0898342E4B9
:1005100050E068EB70E080E80E9426020E946A02C8
:10052000DC0112960D911C910115110589F0D8017D
:10053000ED91FC910280F381E02DBE016F5F7F4F52
:10054000C801099597FD04C0F80100851185ECCF1D
:1005500089810F90DF91CF911F910F910895CF93D3
:10056000DF931F92CDB7DEB76983DC01ED91FC917B
:100570000280F381E02D41E050E0BE016F5F7F4FCC
:1005800009950F90DF91CF91089583E00C94BB0102
:1005900083E00E944C0290E00895CF93DF931F9276
:1005A000CDB7DEB7FC018485958597FD08C02FEF98
:1005B0003FEF358724870F90DF91CF910895CE01CB
:1005C00001960E949101019719F4898190E0F3CF7F
:1005D0008FEF9FEFF0CF0F931F93CF93DF931F9277
:1005E000CDB7DEB78C01FC018485958597FF0BC0E4
:1005F000CE0101960E949101019771F4898190E0EA
:10060000F80195878487F801848595850F90DF919F
:10061000CF911F910F9108958FEF9FEFF1CFFC01C4
:100620008485958597FD0BC09FB7F89482E08093F1
:10063000E9008091F2009FBF90E0019608959FB776
:10064000F89482E08093E9008091F2009FBF90E0EF
:100650000895823108F08251E82FF0E0E455FF4F11
:10066000E49190917B008E2F880F880F80729F7D80
:10067000892B80937B00E770E064E0937C0080919D
:100680007A00806480937A0080917A0086FDFCCFA6
:10069000809178009091790008953FB7F894809107
:1006A000B9019091BA01A091BB01B091BC0126B5EE
:1006B000A89B05C02F3F19F00196A11DB11D3FBF9A
:1006C000BA2FA92F982F8827BC01CD01620F711D69
:1006D000811D911D42E0660F771F881F991F4A9563
:1006E000D1F708958F929F92AF92BF92CF92DF92EF
:1006F000EF92FF924B015C010E944D036B017C0164
:100700000E944D036C197D098E099F09683E734054
:1007100081059105A8F321E0821A9108A108B1088A
:1007200088EEC80E83E0D81EE11CF11C81149104F0
:10073000A104B10429F7FF90EF90DF90CF90BF9014
:10074000AF909F908F9008957F928F929F92AF92DB
:10075000BF92CF92DF92EF92FF920F931F93CF93AE
:10076000DF93C82E8B017A018091D201811110C0D4
:100770008FEF9FEFDF91CF911F910F91FF90EF903F
:10078000DF90CF90BF90AF909F908F907F90089513
:100790008091CF0180FF05C08091E000826080934E
:1007A000E000CE2DDF2DD12C8AEFB82E8C2D877056
:1007B000982E8C2D8072882E8C2D8074782E9AE342
:1007C000A92E209719F4DD2009F452C08C2D0E9427
:1007D0004C0281110AC0BA94BB2051F261E070E072
:1007E00080E090E00E947203ECCF8C171D0611F0A0
:1007F0000CF08C2F9FB7F8949092E9002091E800BC
:1008000025FD02C09FBFDDCF282F30E0C21BD30BD8
:10081000882029F08150A0F01092F100FBCFF80160
:10082000C7FC0AC0815050F041914093F100FACFCB
:1008300044914093F10031968150D0F7020F131F7D
:10084000DD2021F0A092E800D12CDCCF8091E800DF
:1008500085FD07C0A092E800DD24D394209791F293
:10086000F3CF209779F6772069F2A092E800CACFFB
:100870005D9A84E68093CE01C7017CCFCF93DF934E
:10088000EC0180910B01882331F083E00E94A403E6
:100890001816190634F081E090E09B838A8380E08B
:1008A00090E0DF91CF91089590E080E0089580E09E
:1008B00008950F931F93CF93DF93CDB7DEB7C45640
:1008C000D1090FB6F894DEBF0FBECDBFFC01DB012E
:1008D0009C919E5F9C939E01295F3F4F8AE5D901C1
:1008E0001D928A95E9F788E089838BE08A8322E06C
:1008F0002C8391E09D839E8339E0398764E06A8789
:100900009E879F873A8B44E24B8B9C8BA0E0B1E0A3
:10091000BE8BAD8B09E010E0188F0F8B998F3B8F4A
:100920006C8F2F8F98A353E059A387E08CA34DA31E
:100930009EA3B8A7AFA3A1E4B0E0BAA7A9A786E099
:100940008BA74CA72DA79EA79FA789AB4AAB2BAB24
:100950002CAB2DAB3FAB48AF59AF9AAF5BAF9CAF61
:100960002DAF9EAF21963FAF219722964FAF229792
:1009700023965FAF239724962FAF249725966FAFCA
:10098000259726969FAF269727969FAF279728965D
:100990009FAF28972A963FAF2A9745E02B964FAFF7
:1009A0002B972D962FAF2D9760E470E02F967FAF99
:1009B0006EAF2F9763964FAF639785E264968FAFC4
:1009C000649765969FAF659766969FAF66976796A3
:1009D0009FAF679768963FAF689769964FAF6997E3
:1009E0006B962FAF6B976D967FAF6EAF6D97A1969D
:1009F0004FAFA197A2968FAFA297A3969FAFA39751
:100A0000A4969FAFA497A5965FAFA59792819B836D
:100A10009B879F5F9A8F9D8F83812C968FAF2C979A
:100A20008F5F80686A968FAF6A9744E650E0BE0198
:100A30006F5F7F4F80E00E942602CC59DF4F0FB6D8
:100A4000F894DEBF0FBECDBFDF91CF911F910F9104
:100A50000895FC0101900020E9F73197AF01481B90
:100A6000590BBC0183ED91E00C943E048F929F9250
:100A7000AF92BF920F931F93CF93DF93CDB7DEB7A3
:100A8000A1970FB6F894DEBF0FBECDBF19A24230BA
:100A900008F44AE08E010F5D1F4F842E912CB12C7B
:100AA000A12CA50194010E94100BE62FB901CA01E7
:100AB000EA30F4F4E05DD801EE938D01232B242B72
:100AC000252B79F790E080E0109719F0CD010E9476
:100AD0002905A1960FB6F894DEBF0FBECDBFDF91FA
:100AE000CF911F910F91BF90AF909F908F900895DD
:100AF000E95CE1CFCF93DF930E942905EC0181E30C
:100B000091E00E9429058C0F9D1FDF91CF910895E0
:100B1000CF93DF93682F70E090E080E04AE00E947E
:100B20003605EC0181E391E00E9429058C0F9D1FA1
:100B3000DF91CF9108950F931F93CF93DF9300D050
:100B400000D0CDB7DEB7082F162F84E391E00E94C6
:100B5000290581E00E9488058EE391E00E94290525
:100B6000802F0E94880588E491E00E942905812F4A
:100B70000E9488058BE0898381EB8A830B831C8329
:100B800003E212E0F801838144E050E0BE016F5FB0
:100B90007F4F8F5F0E94A403F80183818F5F0E94C3
:100BA000BB010F900F900F900F90DF91CF911F918D
:100BB0000F910895CF92DF92EF92FF92CF93DF9340
:100BC0006C01990FEE08FF08F7FE1FC06DE283ED80
:100BD00091E00E94AF02EC0166277727CB016C19E8
:100BE0007D098E099F094AE00E943605C80FD91F6A
:100BF00081E391E00E9429058C0F9D1FDF91CF9129
:100C0000FF90EF90DF90CF9008954AE0C701B601C2
:100C10000E943605EC01ECCF84E0E0E5F1E0DB0179
:100C200001900D928A95E1F784E008951F920F924A
:100C30000FB60F9211242F933F934F935F936F93AF
:100C40007F938F939F93AF93BF93CF93EF93FF9334
:100C5000C091E1008091E100837F8093E100C3FFB8
:100C60000FC01092E90081E08093EB001092EC003D
:100C700082E38093ED001092D20188E08093F0002F
:100C8000C2FF1BC083E00E94BB018091CE0188237C
:100C900041F08091CE0181508093CE01811101C03D
:100CA0005D988091D101882341F08091D1018150DC
:100CB0008093D101811101C02898C4FF23C0809185
:100CC000E2008E7E81608093E2008091E1008F7E61
:100CD0008093E1008091CF018E7E80618093CF016F
:100CE000FF91EF91CF91BF91AF919F918F917F91A4
:100CF0006F915F914F913F912F910F900FBE0F9089
:100D00001F901895C0FFECCF8091E2008E7E80612D
:100D10008093E2008091E1008E7E8093E1008091DB
:100D2000CF018E7E8160DACF1F920F920FB60F92A5
:100D30001124CF92DF92EF92FF920F931F932F9384
:100D40003F934F935F936F937F938F939F93AF9353
:100D5000BF93EF93FF93CF93DF93CDB7DEB76C973D
:100D6000DEBFCDBF1092E9008091E80083FF25C06F
:100D700068E0CE0145960E945D0282EF8093E80014
:100D80008D8987FF39C09091E80090FFFCCF982FA4
:100D9000907609F034C19E894F89588D2F89F88C3F
:100DA000911131C0803861F58091D0018093F100BC
:100DB0001092F1008EEF8093E8006C960FB6F894D5
:100DC000DEBF0FBECDBFDF91CF91FF91EF91BF91FD
:100DD000AF919F918F917F916F915F914F913F91D3
:100DE0002F911F910F91FF90EF90DF90CF900F9078
:100DF0000FBE0F901F9018959EEF9093E800C7CFFD
:100E00001092F100D5CF913059F48111D3CF4130F8
:100E1000510581F68091D0018D7F8093D001CACF9A
:100E2000933049F48111C6CF4130510519F68091B4
:100E3000D0018260F2CF953041F48091E80080FFCC
:100E4000FCCF20682093E300B5CF963009F0A9C00D
:100E50000B8D1C8D22E01092E9001092CC011092B3
:100E6000CB01F2122EC01092CA011092C9010E9449
:100E70007E021F8299E09983FA8291E09E8390EA34
:100E800098879AEF99872091CB013091CC01275F09
:100E90003F4F3C832B838D831092E9001092CC014D
:100EA0001092CB011093CA010093C90149E050E0B0
:100EB000BE016F5F7F4F80E00E9426020E947E028B
:100EC00079CF1093CA010093C9010E946A02DC0124
:100ED00012960D911C910115110509F451C1D8010B
:100EE000ED91FC910480F581E02DBE016B5E7F4F9A
:100EF000C8010995009709F03EC1F80100851185E8
:100F0000EACFF3E0FF120EC08F89882309F440C0B6
:100F1000823061F440E86DE08CE191E00E94F301E1
:100F2000811148CF81E28093EB0047CF813029F4D3
:100F300040E86BE080E191E0F1CF833099F70E94C7
:100F40006A02DC011296ED90FC908E010F5F1F4F3C
:100F50006801E114F10479F0D701ED91FC9106806C
:100F6000F781E02DB801C7010995080F111DF701A0
:100F7000E084F184EECFD8011C92F60101900020AC
:100F8000E9F73197BF016C197D0940E0C601C6CF72
:100F90006AEF70E0FB01449150E080E80E94260275
:100FA00009CF973009F4BECF983021F481E08093C7
:100FB000F10000CF993009F0FDCE837009F0B2CF77
:100FC000EDE0F1E081E031E096E32191222371F040
:100FD0008093E9003093EB00DF0111972C9120936F
:100FE000EC009093ED008F5F873079F78EE7809368
:100FF000EA001092EA008F898093D201DBCE8B8DBC
:101000009C8D1092E9001092CC011092CB0190932C
:10101000CA018093C901898D811192C08E899D89F1
:10102000913A49F4813209F07DCF47E050E064E025
:1010300071E080E0B3CF913209F074CF833269F46C
:101040008F89988DB0E0A0E080930001909301011A
:10105000A0930201B0930301ADCE803269F4809178
:10106000E80082FFFCCF67E084E091E00E945D022F
:101070008BEF8093E8009ECE823209F09BCE8F8961
:1010800080930B01EEEFFFE7859194918B3F9C4D90
:1010900051F1E0E0F8E08091040190910501A09108
:1010A0000601B0910701803B9440A105B105F1F420
:1010B00080910B0180FD1AC0EE3F8AE0F80789F5A8
:1010C00087E797E791838083809160008093CD01CB
:1010D00088E19BE00FB6F894A895809360000FBE5E
:1010E0009093600067CEEEEFFAE0D5CF80819181DA
:1010F0008737974709F05ECEA89580916000886198
:10110000809360008091CD0180936000EE3F2AE0E3
:10111000F20789F08091FE0A9091FF0A9183808303
:1011200049CE808191818737980751F29093FF0AC9
:101130008093FE0AC5CF1092FF0A1092FE0A3ACEA3
:101140000E946A02DC0112960D911C910115110595
:1011500009F4E8CED801ED91FC910190F081E02DE9
:10116000BE016B5E7F4FC8010995811123CEF80146
:1011700000851185EBCF181619060CF41BCED2CEC4
:10118000F1E0FF12BECE6EEF70E004CF1F920F921F
:101190000FB60F9211242F933F938F939F93AF938A
:1011A000BF938091B5019091B601A091B701B09124
:1011B000B8013091B40123E0230F2D3758F5019683
:1011C000A11DB11D2093B4018093B5019093B60188
:1011D000A093B701B093B8018091B9019091BA0181
:1011E000A091BB01B091BC010196A11DB11D8093DE
:1011F000B9019093BA01A093BB01B093BC01BF9118
:10120000AF919F918F913F912F910F900FBE0F90B3
:101210001F90189526E8230F0296A11DB11DD2CF6D
:10122000CF93DF931092D6011092D50188EE93E010
:10123000A0E0B0E08093D7019093D801A093D901AA
:10124000B093DA0187E191E09093D4018093D301C8
:101250008FEF9FEF9093E0018093DF0182E0809316
:101260002702809328028DE292E090932A028093D5
:10127000290210922C0210922B0289E291E09093A5
:1012800024028093230280E880932D0281E88093DA
:101290002E020E946A02FC01818190912702482F50
:1012A000490F5527551F483051059CF5A281B38140
:1012B000109709F523E232E03383228320812093C3
:1012C00025028093260280912802820F808320913C
:1012D0002902A22FB0912A028A2F821B8917C8F4F3
:1012E00081813D91C82FD0E0C45FDE4F38838F5F8E
:1012F0008183F2CFD90118962D913C911997211530
:101300003105C1F723E232E019963C932E931897EA
:10131000D5CFDF91CF910895789484B5826084BD54
:1013200084B5816084BD85B5826085BD85B58160E9
:1013300085BD80916E00816080936E001092810067
:101340008091810082608093810080918100816022
:1013500080938100809180008160809380008091E3
:1013600091008260809391008091910081608093D0
:101370009100809190008160809390008091C100E5
:1013800084608093C1008091C10082608093C1001D
:101390008091C10081608093C1008091C300816011
:1013A0008093C3008091C00082608093C0008091D0
:1013B000C20081608093C20080917A008460809333
:1013C0007A0080917A00826080937A0080917A001E
:1013D000816080937A0080917A00806880937A009F
:1013E0001092D2011092D0011092CF018091D700BB
:1013F00081608093D70080EA8093D80089B58061AE
:1014000089BD89B5826089BD09B400FEFDCF61E068
:1014100070E080E090E00E9472038091D8008F7CA1
:1014200080618093D8008091E000807F8093E0000D
:101430008091E1008E7E8093E1008DE08093E20058
:10144000559A209A5D9828988FEF9FEF9093E0012E
:101450008093DF018AE00E94690189E00E946901AE
:1014600088E00E94690180E00E94FD0081E00E9406
:10147000FD0085E591E00E947A05C0910B016AE0CC
:1014800070E080E090E00E947203CC2309F497C0E2
:1014900098E2892E98E0992EA12CB12C20E0C22E42
:1014A00020E0D22E81E691E00E947A0587E691E065
:1014B0000E9429058AE00E9429030E94DA0581E73B
:1014C00091E00E94290589E00E9429030E94DA0523
:1014D0008BE791E00E94290588E00E9429030E9481
:1014E000DA058AE00E9429038C0189E00E94290321
:1014F000EC0188E00E9429037C01012E000C220BE4
:10150000330BA90198012C5E3B4F4F4F5F4FAFE764
:10151000B0E00E94050BA50194010E94E60A122F7B
:10152000722E032F9E01DD0F440B550B2C5E3B4F9B
:101530004F4F5F4FAFE7B0E00E94050BA50194014C
:101540000E94E60AC22F622ED32FE114F10419F093
:101550008FE7E82EF12C8AE891E00E947A0583E972
:1015600091E00E942905872D902F0E94DA058EE9CF
:1015700091E00E942905862D9D2F0E94DA0589EAB7
:1015800091E00E942905C7010E94DA05612F80E1E0
:101590000E949B056C2F81E10E949B056E2D82E1CC
:1015A0000E949B0564E670E080E090E00E94720378
:1015B000C114D10409F476CF0E94000073CF61E01A
:1015C00070E080E090E00E94720357CF052E97FBF9
:1015D0001EF400940E94FD0A57FD07D00E94100BD4
:1015E00007FC03D04EF40C94FD0A509540953095BD
:1015F00021953F4F4F4F5F4F08959095809570957F
:1016000061957F4F8F4F9F4F08950E94320BA59F8A
:10161000900DB49F900DA49F800D911D11240895ED
:10162000A1E21A2EAA1BBB1BFD010DC0AA1FBB1FE6
:10163000EE1FFF1FA217B307E407F50720F0A21B58
:10164000B30BE40BF50B661F771F881F991F1A94C5
:1016500069F760957095809590959B01AC01BD01EF
:10166000CF010895A29FB001B39FC001A39F700D49
:10167000811D1124911DB29F700D811D1124911D9A
:101680000895EE0FFF1F0590F491E02D0994F89452
:02169000FFCF8A
:10169200FFFFFFFF00E100000000000000C18081A9
:1016A20000000000000000AF023E04C802C5020FA5
:1016B20003CD02EB02000000005704590454040C4D
:1016C200060D0A006368616E6E656C3A2000636FF6
:1016D2006E74726F6C3A200076616C75653A200008
:1016E2004D494449007374617274696E672E2E2EDF
:1016F200004A4F592031004A4F59203120583A2090
:10170200004A4F59203120593A20004A4F5920317E
:1017120020427574746F6E3A20004D4F4449464919
:101722004544004D4F4444454420583A20004D4F13
:101732004444454420593A20004D4F4444454420F6
:04174200423A200007
:00000001FF
