:100000000C94D3000C94FB000C94FB000C94FB00AC
:100010000C94FB000C94FB000C94FB000C94FB0074
:100020000C94FB000C94FB000C94D7050C94550623
:100030000C94FB000C94FB000C94FB000C94FB0054
:100040000C94FB000C94FB000C94FB000C94FB0044
:100050000C94FB000C94FB000C94FB000C948708A0
:100060000C94FB000C94FB000C94FB000C94FB0024
:100070000C94FB000C94FB000C94FB000C94FB0014
:100080000C94FB000C94FB000C94FB000C94FB0004
:100090000C94FB000C94FB000C94FB000C94FB00F4
:1000A0000C94FB000C94FB000C94FB000706050469
:1000B0000100080A0B0C0D09080B000202020000E7
:1000C00009040000010202000005240010010524BB
:1000D000010101042402060524060001070581032D
:1000E00010004009040100020A0000000705020296
:1000F00040000007058302400000040309041201C8
:100100000002EF0201404123378000010102030198
:1001100041726475696E6F204C4C43004172647586
:10012000696E6F204D6963726F000000000024004B
:1001300027002A002D0030000000000025002800C4
:100140002B002E0031000404040404030405020201
:100150000202040302020202060606060606040460
:1001600002020204040408020110408040102040F2
:10017000804080080204018040201002011080109D
:10018000204040200000000200090F00000304018D
:10019000000C000000000000000000000000000053
:1001A00000000000D10811241FBECFEFDAE0DEBF4F
:1001B000CDBF11E0A0E0B1E0EAE2F9E102C00590B4
:1001C0000D92AA39B107D9F722E0AAE9B1E001C03E
:1001D0001D92A931B207E1F710E0C3EDD0E004C0F1
:1001E0002197FE010E948D0CC23DD107C9F70E94E4
:1001F0004D090C94930C0C940000282F30E0F90169
:10020000EC57FE4F9491F901EB59FE4F84912A5B14
:100210003E4FF9012491222309F42DC09923E9F0DE
:1002200091509F30D0F4E92FF0E0E75EFE4F0C9440
:100230008D0C4401480128013C0140012D012D0194
:100240002D014B015101550159015F012D01630140
:10025000909180009F7790938000E22FF0E0EE0F66
:10026000FF1FE85CFE4FA591B4919FB7F894EC9105
:100270008E2B8C939FBF0895909180009F7DEBCF34
:1002800090918000977FE7CF94B59F7794BDE5CF9D
:1002900094B59F7DFBCF909190009F7790939000B5
:1002A000DCCF909190009F7DF9CF90919000977F47
:1002B000F5CF9091C0009F779093C000CECF9091E2
:1002C000C0009F7DF9CF9091C200977F9093C200AC
:1002D000C4CFCF93DF9390E0FC01EB59FE4F249104
:1002E0008A5B9E4FFC0184918823C1F090E0880FC7
:1002F000991FFC01E65DFE4FC591D491FC01E85CBD
:10030000FE4FA591B4919FB7F8948881E22FE095B4
:100310008E2388838C91E823EC939FBFDF91CF914C
:100320000895FC018091BC01882311F13FB7F89436
:1003300082E08093E9002091F200822F90E018166D
:10034000190614F481E090E0882339F0289A44E6F5
:100350004093BB014091F1004083222339F020916A
:10036000F200211103C02BE62093E8003FBF08955F
:100370008FEF9FEF08958093E9008091F20088232A
:1003800019F08AE38093E80008954091B1015091FB
:10039000B2012091AF013091B00142175307B4F47C
:1003A0009091E8009570E1F39091E80092FD19C0FA
:1003B0008093F1008091B1019091B20101968F7309
:1003C0009927892B19F48EEF8093E8008091B10171
:1003D0009091B20101969093B2018093B10181E0B6
:1003E000089580E00895EF92FF920F931F93CF93AB
:1003F000DF93F82E192FE62E042F81E0860F880F49
:100400000E94C50183E00E94C501CF2DD12FEC0EC3
:10041000FD2EF11CCE15DF05B9F007FF13C0FE015C
:1004200084910E94C501182F80E00E94C50181239C
:1004300021968111EFCFDF91CF911F910F91FF9006
:10044000EF9008958881EDCF81E0F5CFDF92EF92B4
:10045000FF920F931F93CF93DF93D82E8A01EB0166
:100460007B01E40EF51ECE15DF0559F0D7FE12C054
:10047000FE0184910E94C50121968111F4CF0FEFF6
:100480001FEFC801DF91CF911F910F91FF90EF9067
:10049000DF9008958881EECF2FB7F894877080930E
:1004A000E9009091E800892F807295FF04C0909137
:1004B000F20080E4891B2FBF0895615030F0209135
:1004C000F100FC0120830196F8CF289A84E68093FE
:1004D000BB0108958091A70181110DC082E0809336
:1004E000A30184E08093A4011092A6011092A501BB
:1004F00081E08093A70183EA91E008950F931F9311
:10050000CF93DF931F92CDB7DEB782E0898342E4B9
:1005100050E068EB70E080E80E9426020E946A02C8
:10052000DC0112960D911C910115110589F0D8017D
:10053000ED91FC910280F381E02DBE016F5F7F4F52
:10054000C801099597FD04C0F80100851185ECCF1D
:1005500089810F90DF91CF911F910F910895CF93D3
:10056000DF931F92CDB7DEB76983DC01ED91FC917B
:100570000280F381E02D41E050E0BE016F5F7F4FCC
:1005800009950F90DF91CF91089583E00C94BB0102
:1005900083E00E944C0290E00895CF93DF931F9276
:1005A000CDB7DEB7FC018485958597FD08C02FEF98
:1005B0003FEF358724870F90DF91CF910895CE01CB
:1005C00001960E949101019719F4898190E0F3CF7F
:1005D0008FEF9FEFF0CF0F931F93CF93DF931F9277
:1005E000CDB7DEB78C01FC018485958597FF0BC0E4
:1005F000CE0101960E949101019771F4898190E0EA
:10060000F80195878487F801848595850F90DF919F
:10061000CF911F910F9108958FEF9FEFF1CFFC01C4
:100620008485958597FD0BC09FB7F89482E08093F1
:10063000E9008091F2009FBF90E0019608959FB776
:10064000F89482E08093E9008091F2009FBF90E0EF
:100650000895823108F08251E82FF0E0E455FF4F11
:10066000E49190917B008E2F880F880F80729F7D80
:10067000892B80937B00E770E064E0937C0080919D
:100680007A00806480937A0080917A0086FDFCCFA6
:10069000809178009091790008953FB7F894809107
:1006A0009F019091A001A091A101B091A20126B556
:1006B000A89B05C02F3F19F00196A11DB11D3FBF9A
:1006C000BA2FA92F982F8827BC01CD01620F711D69
:1006D000811D911D42E0660F771F881F991F4A9563
:1006E000D1F708958F929F92AF92BF92CF92DF92EF
:1006F000EF92FF924B015C010E944D036B017C0164
:100700000E944D036C197D098E099F09683E734054
:1007100081059105A8F321E0821A9108A108B1088A
:1007200088EEC80E83E0D81EE11CF11C81149104F0
:10073000A104B10429F7FF90EF90DF90CF90BF9014
:10074000AF909F908F9008957F928F929F92AF92DB
:10075000BF92CF92DF92EF92FF920F931F93CF93AE
:10076000DF93C82E8B017A018091BC01811110C0EA
:100770008FEF9FEFDF91CF911F910F91FF90EF903F
:10078000DF90CF90BF90AF909F908F907F90089513
:100790008091B50180FF05C08091E0008260809368
:1007A000E000CE2DDF2DD12C8AEFB82E8C2D877056
:1007B000982E8C2D8072882E8C2D8074782E9AE342
:1007C000A92E209719F4DD2009F452C08C2D0E9427
:1007D0004C0281110AC0BA94BB2051F261E070E072
:1007E00080E090E00E947203ECCF8C171D0611F0A0
:1007F0000CF08C2F9FB7F8949092E9002091E800BC
:1008000025FD02C09FBFDDCF282F30E0C21BD30BD8
:10081000882029F08150A0F01092F100FBCFF80160
:10082000C7FC0AC0815050F041914093F100FACFCB
:1008300044914093F10031968150D0F7020F131F7D
:10084000DD2021F0A092E800D12CDCCF8091E800DF
:1008500085FD07C0A092E800DD24D394209791F293
:10086000F3CF209779F6772069F2A092E800CACFFB
:100870005D9A84E68093B401C7017CCFCF93DF9368
:10088000EC0180910B01882331F083E00E94A403E6
:100890001816190634F081E090E09B838A8380E08B
:1008A00090E0DF91CF91089590E080E0089580E09E
:1008B00008950F931F93CF93DF93CDB7DEB7C45640
:1008C000D1090FB6F894DEBF0FBECDBFFC01DB012E
:1008D0009C919E5F9C939E01295F3F4F8AE5D901C1
:1008E0001D928A95E9F788E089838BE08A8322E06C
:1008F0002C8391E09D839E8339E0398764E06A8789
:100900009E879F873A8B44E24B8B9C8BA0E0B1E0A3
:10091000BE8BAD8B09E010E0188F0F8B998F3B8F4A
:100920006C8F2F8F98A353E059A387E08CA34DA31E
:100930009EA3B8A7AFA3A1E4B0E0BAA7A9A786E099
:100940008BA74CA72DA79EA79FA789AB4AAB2BAB24
:100950002CAB2DAB3FAB48AF59AF9AAF5BAF9CAF61
:100960002DAF9EAF21963FAF219722964FAF229792
:1009700023965FAF239724962FAF249725966FAFCA
:10098000259726969FAF269727969FAF279728965D
:100990009FAF28972A963FAF2A9745E02B964FAFF7
:1009A0002B972D962FAF2D9760E470E02F967FAF99
:1009B0006EAF2F9763964FAF639785E264968FAFC4
:1009C000649765969FAF659766969FAF66976796A3
:1009D0009FAF679768963FAF689769964FAF6997E3
:1009E0006B962FAF6B976D967FAF6EAF6D97A1969D
:1009F0004FAFA197A2968FAFA297A3969FAFA39751
:100A0000A4969FAFA497A5965FAFA59792819B836D
:100A10009B879F5F9A8F9D8F83812C968FAF2C979A
:100A20008F5F80686A968FAF6A9744E650E0BE0198
:100A30006F5F7F4F80E00E942602CC59DF4F0FB6D8
:100A4000F894DEBF0FBECDBFDF91CF911F910F9104
:100A50000895FC0101900020E9F73197AF01481B90
:100A6000590BBC018DEB91E00C943E048F929F9248
:100A7000AF92BF920F931F93CF93DF93CDB7DEB7A3
:100A8000A1970FB6F894DEBF0FBECDBF19A24230BA
:100A900008F44AE08E010F5D1F4F842E912CB12C7B
:100AA000A12CA50194010E942B0BE62FB901CA01CC
:100AB000EA30F4F4E05DD801EE938D01232B242B72
:100AC000252B79F790E080E0109719F0CD010E9476
:100AD0002905A1960FB6F894DEBF0FBECDBFDF91FA
:100AE000CF911F910F91BF90AF909F908F900895DD
:100AF000E95CE1CFCF93DF930E942905EC0181E30C
:100B000091E00E9429058C0F9D1FDF91CF910895E0
:100B1000CF93DF93682F70E090E080E04AE00E947E
:100B20003605EC0181E391E00E9429058C0F9D1FA1
:100B3000DF91CF910895CF92DF92EF92FF92CF9302
:100B4000DF936C01990FEE08FF08F7FE1FC06DE2FE
:100B50008DEB91E00E94AF02EC0166277727CB0175
:100B60006C197D098E099F094AE00E943605C80F5D
:100B7000D91F81E391E00E9429058C0F9D1FDF9111
:100B8000CF91FF90EF90DF90CF9008954AE0C7019A
:100B9000B6010E943605EC01ECCF84E0E4E3F1E01D
:100BA000DB0101900D928A95E1F784E008951F9290
:100BB0000F920FB60F9211242F933F934F935F9391
:100BC0006F937F938F939F93AF93BF93CF93EF9345
:100BD000FF93C091E1008091E100837F8093E10069
:100BE000C3FF0FC01092E90081E08093EB001092E8
:100BF000EC0082E38093ED001092BC0188E08093CA
:100C0000F000C2FF1BC083E00E94BB018091B401D1
:100C1000882341F08091B40181508093B401811107
:100C200001C05D988091BB01882341F08091BB0198
:100C300081508093BB01811101C02898C4FF23C05B
:100C40008091E2008E7E81608093E2008091E100DD
:100C50008F7E8093E1008091B5018E7E80618093CC
:100C6000B501FF91EF91CF91BF91AF919F918F917E
:100C70007F916F915F914F913F912F910F900FBE98
:100C80000F901F901895C0FFECCF8091E2008E7EF0
:100C900080618093E2008091E1008E7E8093E1008C
:100CA0008091B5018E7E8160DACF1F920F920FB6D0
:100CB0000F921124CF92DF92EF92FF920F931F9326
:100CC0002F933F934F935F936F937F938F939F9354
:100CD000AF93BF93EF93FF93CF93DF93CDB7DEB77F
:100CE0006C97DEBFCDBF1092E9008091E80083FFD2
:100CF00025C068E0CE0145960E945D0282EF809398
:100D0000E8008D8987FF39C09091E80090FFFCCF03
:100D1000982F907609F034C19E894F89588D2F897C
:100D2000F88C911131C0803861F58091B6018093C3
:100D3000F1001092F1008EEF8093E8006C960FB6F0
:100D4000F894DEBF0FBECDBFDF91CF91FF91EF9141
:100D5000BF91AF919F918F917F916F915F914F91D3
:100D60003F912F911F910F91FF90EF90DF90CF90C7
:100D70000F900FBE0F901F9018959EEF9093E80074
:100D8000C7CF1092F100D5CF913059F48111D3CF54
:100D90004130510581F68091B6018D7F8093B60177
:100DA000CACF933049F48111C6CF4130510519F6AD
:100DB0008091B6018260F2CF953041F48091E800D5
:100DC00080FFFCCF20682093E300B5CF963009F078
:100DD000A9C00B8D1C8D22E01092E9001092B20187
:100DE0001092B101F2122EC01092B0011092AF0118
:100DF0000E947E021F8299E09983FA8291E09E838D
:100E000090EA98879AEF99872091B1013091B201C9
:100E1000275F3F4F3C832B838D831092E900109214
:100E2000B2011092B1011093B0010093AF0149E0FB
:100E300050E0BE016F5F7F4F80E00E9426020E945B
:100E40007E0279CF1093B0010093AF010E946A0235
:100E5000DC0112960D911C910115110509F451C187
:100E6000D801ED91FC910480F581E02DBE016B5E0F
:100E70007F4FC8010995009709F03EC1F801008530
:100E80001185EACFF3E0FF120EC08F89882309F4A1
:100E900040C0823061F440E86DE08CE191E00E9456
:100EA000F301811148CF81E28093EB0047CF81307D
:100EB00029F440E86BE080E191E0F1CF833099F7CD
:100EC0000E946A02DC011296ED90FC908E010F5F89
:100ED0001F4F6801E114F10479F0D701ED91FC9105
:100EE0000680F781E02DB801C7010995080F111D93
:100EF000F701E084F184EECFD8011C92F601019055
:100F00000020E9F73197BF016C197D0940E0C60167
:100F1000C6CF6AEF70E0FB01449150E080E80E9488
:100F2000260209CF973009F4BECF983021F481E032
:100F30008093F10000CF993009F0FDCE837009F065
:100F4000B2CFEDE0F1E081E031E096E321912223A0
:100F500071F08093E9003093EB00DF0111972C9141
:100F60002093EC009093ED008F5F873079F78EE748
:100F70008093EA001092EA008F898093BC01DBCE57
:100F80008B8D9C8D1092E9001092B2011092B101EC
:100F90009093B0018093AF01898D811192C08E89A9
:100FA0009D89913A49F4813209F07DCF47E050E0C4
:100FB00064E071E080E0B3CF913209F074CF833206
:100FC00069F48F89988DB0E0A0E080930001909340
:100FD0000101A0930201B0930301ADCE803269F408
:100FE0008091E80082FFFCCF67E084E091E00E94FE
:100FF0005D028BEF8093E8009ECE823209F09BCE9B
:101000008F8980930B01EEEFFFE7859194918B3FE1
:101010009C4D51F1E0E0F8E08091040190910501D0
:10102000A0910601B0910701803B9440A105B10554
:10103000F1F480910B0180FD1AC0EE3F8AE0F807C1
:1010400089F587E797E7918380838091600080939B
:10105000B30188E19BE00FB6F894A89580936000F7
:101060000FBE9093600067CEEEEFFAE0D5CF80819F
:1010700091818737974709F05ECEA89580916000EF
:101080008861809360008091B30180936000EE3F9F
:101090002AE0F20789F08091FE0A9091FF0A91837D
:1010A000808349CE808191818737980751F2909350
:1010B000FF0A8093FE0AC5CF1092FF0A1092FE0A23
:1010C0003ACE0E946A02DC0112960D911C91011524
:1010D000110509F4E8CED801ED91FC910190F08161
:1010E000E02DBE016B5E7F4FC8010995811123CEB3
:1010F000F80100851185EBCF181619060CF41BCEEC
:10110000D2CEF1E0FF12BECE6EEF70E004CF1F92A0
:101110000F920FB60F9211242F933F938F939F93AB
:10112000AF93BF9380919B0190919C01A0919D01F1
:10113000B0919E0130919A0123E0230F2D3758F58D
:101140000196A11DB11D20939A0180939B0190935C
:101150009C01A0939D01B0939E0180919F0190916D
:10116000A001A091A101B091A2010196A11DB11D04
:1011700080939F019093A001A093A101B093A2013D
:10118000BF91AF919F918F913F912F910F900FBE83
:101190000F901F90189526E8230F0296A11DB11DF0
:1011A000D2CFCF93DF931092C0011092BF0188EE8F
:1011B00093E0A0E0B0E08093C1019093C201A093BE
:1011C000C301B093C40187E191E09093BE01809385
:1011D000BD018FEF9FEF9093CA018093C90182E018
:1011E000809311028093120287E192E0909314029F
:1011F00080931302109216021092150289E291E078
:1012000090930E0280930D0280E88093170281E88C
:10121000809318020E946A02FC0181819091110260
:10122000482F490F5527551F483051059CF5A2817D
:10123000B381109709F52DE032E0338322832081BA
:1012400020930F028093100280911202820F8083FC
:1012500020911302A22FB09114028A2F821B8917AA
:10126000C8F481813D91C82FD0E0C45FDE4F388340
:101270008F5F8183F2CFD90118962D913C911997F8
:1012800021153105C1F72DE032E019963C932E93DC
:101290001897D5CFDF91CF910895CF93DF9300D0EA
:1012A00000D0CDB7DEB7789484B5826084BD84B5B4
:1012B000816084BD85B5826085BD85B5816085BD51
:1012C00080916E00816080936E0010928100809109
:1012D0008100826080938100809181008160809391
:1012E00081008091800081608093800080919100D6
:1012F0008260809391008091910081608093910041
:10130000809190008160809390008091C100846002
:101310008093C1008091C10082608093C100809160
:10132000C10081608093C1008091C300816080937F
:10133000C3008091C00082608093C0008091C20091
:1013400081608093C20080917A00846080937A00EB
:1013500080917A00826080937A0080917A00816027
:1013600080937A0080917A00806880937A0010924E
:10137000BC011092B6011092B5018091D700816036
:101380008093D70080EA8093D80089B5806189BDB9
:1013900089B5826089BD09B400FEFDCF61E070E0CF
:1013A00080E090E00E9472038091D8008F7C806181
:1013B0008093D8008091E000807F8093E00080914E
:1013C000E1008E7E8093E1008DE08093E200559AEB
:1013D000209A5D9828988FEF9FEF9093CA01809391
:1013E000C9018AE00E94690189E00E94690180E0E8
:1013F0000E94FD0081E00E94FD0089E391E00E94CF
:101400007A0510910B016AE070E080E090E00E94A4
:101410007203112309F4EEC098E2492E98E0592E88
:10142000612C712C20EEC22E85E491E00E947A0599
:101430008BE491E00E9429058AE00E9429030E9422
:101440009B0585E591E00E94290589E00E9429031A
:101450000E949B058AE00E9429038C0189E00E947A
:1014600029037C01012E000C220B330BA9019801EA
:101470002C5E3B4F4F4F5F4FAFE7B0E00E94200B19
:10148000A30192010E94010BD22E022F132F97016C
:10149000FF0C440B550B2C5E3B4F4F4F5F4FAFE79C
:1014A000B0E00E94200BA30192010E94010B4901B0
:1014B00079012090B9013090BA010215130541F469
:1014C0008091B7019091B8012817390709F47CC0C1
:1014D0008FE591E00E947A050215130591F188E6E7
:1014E00091E00E942905C8010E949B0583E791E0D5
:1014F0000E94290581E00E9488058DE791E00E9405
:1015000029058EE00E94880587E891E00E94290560
:101510008D2D0E9488058BE0898391EB9A838EE064
:101520008B83DC828091100244E050E0BE016F5F4B
:101530007F4F8F5F0E94A403809110028F5F0E94F3
:10154000BB018091B7019091B801E816F906E1F16D
:101550008FE891E00E942905C4010E949B05B40117
:10156000092C000C880B990B0E94940B2AE037ED94
:1015700043EA52E40E94F80B0E945C0B611580EE76
:10158000780714F460E070EE613090E2790714F0AF
:1015900060E070E2C982CA82862F8F778B83660FE4
:1015A000672F661F770B6F776C838091100244E082
:1015B00050E0BE016F5F7F4F8F5F0E94A403809158
:1015C00010028F5F0E94BB011093BA010093B90112
:1015D0009092B8018092B70164E670E080E090E0FC
:1015E0000E94720380E090E0892B09F41DCF0E94D5
:1015F00000001ACF61E070E080E090E00E9472038A
:1016000000CF052E97FB1EF400940E94180B57FD87
:1016100007D00E942B0B07FC03D04EF40C94180B40
:1016200050954095309521953F4F4F4F5F4F08950E
:1016300090958095709561957F4F8F4F9F4F08953E
:101640000E944D0BA59F900DB49F900DA49F800DFF
:10165000911D11240895A1E21A2EAA1BBB1BFD01A6
:101660000DC0AA1FBB1FEE1FFF1FA217B307E40781
:10167000F50720F0A21BB30BE40BF50B661F771FD9
:10168000881F991F1A9469F76095709580959095B9
:101690009B01AC01BD01CF010895A29FB001B39F92
:1016A000C001A39F700D811D1124911DB29F700D6B
:1016B000811D1124911D08950E94630B6894B1113E
:1016C0000C94F20B08950E94D70B88F09F5798F066
:1016D000B92F9927B751B0F0E1F0660F771F881F37
:1016E000991F1AF0BA95C9F714C0B13091F00E9451
:1016F000F10BB1E008950C94F10B672F782F882738
:10170000B85F39F0B93FCCF3869577956795B39577
:10171000D9F73EF490958095709561957F4F8F4FE6
:101720009F4F0895E89409C097FB3EF490958095EB
:10173000709561957F4F8F4F9F4F9923A9F0F92F97
:1017400096E9BB279395F695879577956795B79515
:10175000F111F8CFFAF4BB0F11F460FF1BC06F5FFB
:101760007F4F8F4F9F4F16C0882311F096E911C00D
:10177000772321F09EE8872F762F05C0662371F02E
:1017800096E8862F70E060E02AF09A95660F771F42
:10179000881FDAF7880F9695879597F9089557FD72
:1017A0009058440F551F59F05F3F71F04795880FCF
:1017B00097FB991F61F09F3F79F087950895121666
:1017C00013061406551FF2CF4695F1DF08C0161612
:1017D00017061806991FF1CF8695710561050894C3
:1017E0000895E894BB2766277727CB0197F90895DA
:1017F0000E940B0C0C947C0C0E946E0C38F00E9422
:10180000750C20F0952311F00C94650C0C946B0C66
:1018100011240C94F20B0E94CF0B70F3959FC1F32F
:10182000950F50E0551F629FF001729FBB27F00D8E
:10183000B11D639FAA27F00DB11DAA1F649F6627E3
:10184000B00DA11D661F829F2227B00DA11D621F32
:10185000739FB00DA11D621F839FA00D611D221FEC
:10186000749F3327A00D611D231F849F600D211DD0
:10187000822F762F6A2F11249F5750409AF0F1F053
:1018800088234AF0EE0FFF1FBB1F661F771F881FBC
:1018900091505040A9F79E3F510580F00C94650C83
:1018A0000C94F20B5F3FE4F3983ED4F38695779562
:1018B0006795B795F795E7959F5FC1F7FE2B880F62
:1018C000911D9695879597F9089597F99F6780E8F8
:1018D00070E060E008959FEF80EC089500240A9482
:1018E0001616170618060906089500240A941216FB
:1018F0001306140605060895092E0394000C11F42E
:10190000882352F0BB0F40F4BF2B11F460FF04C0DA
:101910006F5F7F4F8F4F9F4F0895EE0FFF1F059012
:0A192000F491E02D0994F894FFCF34
:10192A00FFFFFFFF00E100000000000000C180810E
:10193A0000000000000000AF023E04C802C5020F0A
:10194A0003CD02EB0200000000570459045404CDF1
:10195A00050D0A004D494449007374617274696E39
:10196A00672E2E2E004A4F592031004A4F592031F6
:10197A0020583A20004A4F59203120593A20004D28
:10198A004F444946494544004D4F44444544205834
:10199A003A20006368616E6E656C3A2000636F6E70
:1019AA0074726F6C3A200076616C75653A20004D4E
:0A19BA004F4444454420593A2000F0
:00000001FF
